{"contracts/AnchorCertificates.sol":{"AnchorCertificates":{"abi":[{"inputs":[{"internalType":"string","name":"name_","type":"string"},{"internalType":"string","name":"symbol_","type":"string"},{"internalType":"address payable","name":"collector_","type":"address"},{"internalType":"uint256","name":"startDate_","type":"uint256"},{"internalType":"uint256","name":"endDate_","type":"uint256"}],"stateMutability":"nonpayable","type":"constructor"},{"anonymous":false,"inputs":[{"indexed":true,"internalType":"address","name":"owner","type":"address"},{"indexed":true,"internalType":"address","name":"approved","type":"address"},{"indexed":true,"internalType":"uint256","name":"tokenId","type":"uint256"}],"name":"Approval","type":"event"},{"anonymous":false,"inputs":[{"indexed":true,"internalType":"address","name":"owner","type":"address"},{"indexed":true,"internalType":"address","name":"operator","type":"address"},{"indexed":false,"internalType":"bool","name":"approved","type":"bool"}],"name":"ApprovalForAll","type":"event"},{"anonymous":false,"inputs":[{"indexed":true,"internalType":"address","name":"from","type":"address"},{"indexed":true,"internalType":"address","name":"to","type":"address"},{"indexed":true,"internalType":"uint256","name":"tokenId","type":"uint256"}],"name":"Transfer","type":"event"},{"inputs":[{"internalType":"address","name":"to","type":"address"},{"internalType":"uint256","name":"tokenId","type":"uint256"}],"name":"approve","outputs":[],"stateMutability":"nonpayable","type":"function"},{"inputs":[{"internalType":"address","name":"owner","type":"address"}],"name":"balanceOf","outputs":[{"internalType":"uint256","name":"","type":"uint256"}],"stateMutability":"view","type":"function"},{"inputs":[{"internalType":"uint256","name":"","type":"uint256"}],"name":"certificates","outputs":[{"internalType":"uint256","name":"nr","type":"uint256"},{"internalType":"address","name":"sponsored","type":"address"}],"stateMutability":"view","type":"function"},{"inputs":[],"name":"collector","outputs":[{"internalType":"address payable","name":"","type":"address"}],"stateMutability":"view","type":"function"},{"inputs":[],"name":"defaultCertificatesSupply","outputs":[{"internalType":"uint256","name":"","type":"uint256"}],"stateMutability":"view","type":"function"},{"inputs":[],"name":"deluxeCertificatesSupply","outputs":[{"internalType":"uint256","name":"","type":"uint256"}],"stateMutability":"view","type":"function"},{"inputs":[],"name":"endDate","outputs":[{"internalType":"uint256","name":"","type":"uint256"}],"stateMutability":"view","type":"function"},{"inputs":[{"internalType":"uint256","name":"tokenId","type":"uint256"}],"name":"generateBase64Image","outputs":[{"internalType":"string","name":"","type":"string"}],"stateMutability":"view","type":"function"},{"inputs":[{"internalType":"uint256","name":"tokenId","type":"uint256"}],"name":"generateImage","outputs":[{"internalType":"string","name":"","type":"string"}],"stateMutability":"view","type":"function"},{"inputs":[{"internalType":"uint256","name":"tokenId","type":"uint256"}],"name":"getApproved","outputs":[{"internalType":"address","name":"","type":"address"}],"stateMutability":"view","type":"function"},{"inputs":[{"internalType":"address","name":"owner","type":"address"},{"internalType":"address","name":"operator","type":"address"}],"name":"isApprovedForAll","outputs":[{"internalType":"bool","name":"","type":"bool"}],"stateMutability":"view","type":"function"},{"inputs":[],"name":"mintCertificate","outputs":[{"internalType":"uint256","name":"tokenId","type":"uint256"}],"stateMutability":"payable","type":"function"},{"inputs":[],"name":"name","outputs":[{"internalType":"string","name":"","type":"string"}],"stateMutability":"view","type":"function"},{"inputs":[],"name":"owner","outputs":[{"internalType":"address","name":"","type":"address"}],"stateMutability":"view","type":"function"},{"inputs":[{"internalType":"uint256","name":"tokenId","type":"uint256"}],"name":"ownerOf","outputs":[{"internalType":"address","name":"","type":"address"}],"stateMutability":"view","type":"function"},{"inputs":[{"internalType":"address","name":"from","type":"address"},{"internalType":"address","name":"to","type":"address"},{"internalType":"uint256","name":"tokenId","type":"uint256"}],"name":"safeTransferFrom","outputs":[],"stateMutability":"nonpayable","type":"function"},{"inputs":[{"internalType":"address","name":"from","type":"address"},{"internalType":"address","name":"to","type":"address"},{"internalType":"uint256","name":"tokenId","type":"uint256"},{"internalType":"bytes","name":"_data","type":"bytes"}],"name":"safeTransferFrom","outputs":[],"stateMutability":"nonpayable","type":"function"},{"inputs":[{"internalType":"address","name":"operator","type":"address"},{"internalType":"bool","name":"approved","type":"bool"}],"name":"setApprovalForAll","outputs":[],"stateMutability":"nonpayable","type":"function"},{"inputs":[],"name":"startDate","outputs":[{"internalType":"uint256","name":"","type":"uint256"}],"stateMutability":"view","type":"function"},{"inputs":[{"internalType":"bytes4","name":"interfaceId","type":"bytes4"}],"name":"supportsInterface","outputs":[{"internalType":"bool","name":"","type":"bool"}],"stateMutability":"view","type":"function"},{"inputs":[],"name":"symbol","outputs":[{"internalType":"string","name":"","type":"string"}],"stateMutability":"view","type":"function"},{"inputs":[{"internalType":"uint256","name":"tokenId","type":"uint256"}],"name":"tokenURI","outputs":[{"internalType":"string","name":"","type":"string"}],"stateMutability":"view","type":"function"},{"inputs":[{"internalType":"address","name":"from","type":"address"},{"internalType":"address","name":"to","type":"address"},{"internalType":"uint256","name":"tokenId","type":"uint256"}],"name":"transferFrom","outputs":[],"stateMutability":"nonpayable","type":"function"},{"inputs":[],"name":"withdrawETH","outputs":[],"stateMutability":"nonpayable","type":"function"}],"evm":{"bytecode":{"linkReferences":{},"object":"608060405273af69610ea9ddc95883f97a6a3171d52165b69b03600660006101000a81548173ffffffffffffffffffffffffffffffffffffffff021916908373ffffffffffffffffffffffffffffffffffffffff16021790555060405180610200016040528060405180608001604052806040518060400160405280600781526020017f236563613366350000000000000000000000000000000000000000000000000081525081526020016040518060400160405280600781526020017f236664626166390000000000000000000000000000000000000000000000000081525081526020016040518060400160405280600781526020017f236230656665620000000000000000000000000000000000000000000000000081525081526020016040518060400160405280600781526020017f2365646666613900000000000000000000000000000000000000000000000000815250815250815260200160405180608001604052806040518060400160405280600781526020017f233735636662380000000000000000000000000000000000000000000000000081525081526020016040518060400160405280600781526020017f236262646663380000000000000000000000000000000000000000000000000081525081526020016040518060400160405280600781526020017f236630653564380000000000000000000000000000000000000000000000000081525081526020016040518060400160405280600781526020017f2366666334373800000000000000000000000000000000000000000000000000815250815250815260200160405180608001604052806040518060400160405280600781526020017f236666616237330000000000000000000000000000000000000000000000000081525081526020016040518060400160405280600781526020017f236666643338340000000000000000000000000000000000000000000000000081525081526020016040518060400160405280600781526020017f236666663962300000000000000000000000000000000000000000000000000081525081526020016040518060400160405280600781526020017f2366666165633000000000000000000000000000000000000000000000000000815250815250815260200160405180608001604052806040518060400160405280600781526020017f233934623461340000000000000000000000000000000000000000000000000081525081526020016040518060400160405280600781526020017f236432663565330000000000000000000000000000000000000000000000000081525081526020016040518060400160405280600781526020017f236535633562350000000000000000000000000000000000000000000000000081525081526020016040518060400160405280600781526020017f2366346439633600000000000000000000000000000000000000000000000000815250815250815260200160405180608001604052806040518060400160405280600781526020017f236634663966390000000000000000000000000000000000000000000000000081525081526020016040518060400160405280600781526020017f236363663266340000000000000000000000000000000000000000000000000081525081526020016040518060400160405280600781526020017f236134656266330000000000000000000000000000000000000000000000000081525081526020016040518060400160405280600781526020017f2361616161616100000000000000000000000000000000000000000000000000815250815250815260200160405180608001604052806040518060400160405280600781526020017f236361663765330000000000000000000000000000000000000000000000000081525081526020016040518060400160405280600781526020017f236564666665630000000000000000000000000000000000000000000000000081525081526020016040518060400160405280600781526020017f236636646665620000000000000000000000000000000000000000000000000081525081526020016040518060400160405280600781526020017f2365346261643400000000000000000000000000000000000000000000000000815250815250815260200160405180608001604052806040518060400160405280600781526020017f236634663966390000000000000000000000000000000000000000000000000081525081526020016040518060400160405280600781526020017f236631643164300000000000000000000000000000000000000000000000000081525081526020016040518060400160405280600781526020017f236662616363630000000000000000000000000000000000000000000000000081525081526020016040518060400160405280600781526020017f2366383735616100000000000000000000000000000000000000000000000000815250815250815260200160405180608001604052806040518060400160405280600781526020017f236664666662630000000000000000000000000000000000000000000000000081525081526020016040518060400160405280600781526020017f236666656562620000000000000000000000000000000000000000000000000081525081526020016040518060400160405280600781526020017f236666646362380000000000000000000000000000000000000000000000000081525081526020016040518060400160405280600781526020017f2366666331623600000000000000000000000000000000000000000000000000815250815250815260200160405180608001604052806040518060400160405280600781526020017f236630653464370000000000000000000000000000000000000000000000000081525081526020016040518060400160405280600781526020017f236635633063300000000000000000000000000000000000000000000000000081525081526020016040518060400160405280600781526020017f236666373137310000000000000000000000000000000000000000000000000081525081526020016040518060400160405280600781526020017f2339666438646600000000000000000000000000000000000000000000000000815250815250815260200160405180608001604052806040518060400160405280600781526020017f236534666266660000000000000000000000000000000000000000000000000081525081526020016040518060400160405280600781526020017f236238623566660000000000000000000000000000000000000000000000000081525081526020016040518060400160405280600781526020017f233738363865360000000000000000000000000000000000000000000000000081525081526020016040518060400160405280600781526020017f2365646565663700000000000000000000000000000000000000000000000000815250815250815260200160405180608001604052806040518060400160405280600781526020017f236666636239310000000000000000000000000000000000000000000000000081525081526020016040518060400160405280600781526020017f236666656661310000000000000000000000000000000000000000000000000081525081526020016040518060400160405280600781526020017f233934656263640000000000000000000000000000000000000000000000000081525081526020016040518060400160405280600781526020017f2336646463636600000000000000000000000000000000000000000000000000815250815250815260200160405180608001604052806040518060400160405280600781526020017f236265646366610000000000000000000000000000000000000000000000000081525081526020016040518060400160405280600781526020017f233938616366380000000000000000000000000000000000000000000000000081525081526020016040518060400160405280600781526020017f236230383866390000000000000000000000000000000000000000000000000081525081526020016040518060400160405280600781526020017f2364613966663900000000000000000000000000000000000000000000000000815250815250815260200160405180608001604052806040518060400160405280600781526020017f236263653665620000000000000000000000000000000000000000000000000081525081526020016040518060400160405280600781526020017f236664636664660000000000000000000000000000000000000000000000000081525081526020016040518060400160405280600781526020017f236662626564660000000000000000000000000000000000000000000000000081525081526020016040518060400160405280600781526020017f2366636133636300000000000000000000000000000000000000000000000000815250815250815260200160405180608001604052806040518060400160405280600781526020017f236666373561300000000000000000000000000000000000000000000000000081525081526020016040518060400160405280600781526020017f236663653338610000000000000000000000000000000000000000000000000081525081526020016040518060400160405280600781526020017f236561666664300000000000000000000000000000000000000000000000000081525081526020016040518060400160405280600781526020017f2339356531643300000000000000000000000000000000000000000000000000815250815250815260200160405180608001604052806040518060400160405280600781526020017f236662653063340000000000000000000000000000000000000000000000000081525081526020016040518060400160405280600781526020017f233861623664360000000000000000000000000000000000000000000000000081525081526020016040518060400160405280600781526020017f233239373862350000000000000000000000000000000000000000000000000081525081526020016040518060400160405280600781526020017f2330303631613800000000000000000000000000000000000000000000000000815250815250815260200160405180608001604052806040518060400160405280600781526020017f236464646464640000000000000000000000000000000000000000000000000081525081526020016040518060400160405280600781526020017f236639663366330000000000000000000000000000000000000000000000000081525081526020016040518060400160405280600781526020017f236637643964390000000000000000000000000000000000000000000000000081525081526020016040518060400160405280600781526020017f2366323532383700000000000000000000000000000000000000000000000000815250815250815250600d9060106200101592919062001fb6565b506040518061080001604052806040518060400160405280600581526020017f4255494c4400000000000000000000000000000000000000000000000000000081525081526020016040518060400160405280600581526020017f545241494e00000000000000000000000000000000000000000000000000000081525081526020016040518060400160405280600381526020017f534545000000000000000000000000000000000000000000000000000000000081525081526020016040518060400160405280600581526020017f445245414d00000000000000000000000000000000000000000000000000000081525081526020016040518060400160405280600481526020017f4c4956450000000000000000000000000000000000000000000000000000000081525081526020016040518060400160405280600581526020017f44414e434500000000000000000000000000000000000000000000000000000081525081526020016040518060400160405280600481526020017f484f50450000000000000000000000000000000000000000000000000000000081525081526020016040518060400160405280600981526020017f415243484954454354000000000000000000000000000000000000000000000081525081526020016040518060400160405280600781526020017f4558504c4f52450000000000000000000000000000000000000000000000000081525081526020016040518060400160405280600381526020017f454154000000000000000000000000000000000000000000000000000000000081525081526020016040518060400160405280600581526020017f544153544500000000000000000000000000000000000000000000000000000081525081526020016040518060400160405280600581526020017f534d454c4c00000000000000000000000000000000000000000000000000000081525081526020016040518060400160405280600381526020017f52554e000000000000000000000000000000000000000000000000000000000081525081526020016040518060400160405280600281526020017f424500000000000000000000000000000000000000000000000000000000000081525081526020016040518060400160405280600781526020017f4d45414e4445520000000000000000000000000000000000000000000000000081525081526020016040518060400160405280600481526020017f57414c4b0000000000000000000000000000000000000000000000000000000081525081526020016040518060400160405280600581526020017f4c4541564500000000000000000000000000000000000000000000000000000081525081526020016040518060400160405280600481526020017f4c4f56450000000000000000000000000000000000000000000000000000000081525081526020016040518060400160405280600981526020017f52454d494e49534345000000000000000000000000000000000000000000000081525081526020016040518060400160405280600481526020017f474956450000000000000000000000000000000000000000000000000000000081525081526020016040518060400160405280600681526020017f415343454e44000000000000000000000000000000000000000000000000000081525081526020016040518060400160405280600481526020017f4d4545540000000000000000000000000000000000000000000000000000000081525081526020016040518060400160405280600581526020017f4c4541524e00000000000000000000000000000000000000000000000000000081525081526020016040518060400160405280600981526020017f454e434f4d50415353000000000000000000000000000000000000000000000081525081526020016040518060400160405280600881526020017f4d4544495441544500000000000000000000000000000000000000000000000081525081526020016040518060400160405280600481526020017f46494e440000000000000000000000000000000000000000000000000000000081525081526020016040518060400160405280600481526020017f5345454b0000000000000000000000000000000000000000000000000000000081525081526020016040518060400160405280600581526020017f4c4155474800000000000000000000000000000000000000000000000000000081525081526020016040518060400160405280600681526020017f4c495354454e000000000000000000000000000000000000000000000000000081525081526020016040518060400160405280600481526020017f4645454c0000000000000000000000000000000000000000000000000000000081525081526020016040518060400160405280600581526020017f544f55434800000000000000000000000000000000000000000000000000000081525081526020016040518060400160405280600781526020017f464f52474956450000000000000000000000000000000000000000000000000081525081526020016040518060400160405280600581526020017f41544f4e4500000000000000000000000000000000000000000000000000000081525081526020016040518060400160405280600681526020017f414343455054000000000000000000000000000000000000000000000000000081525081526020016040518060400160405280600481526020017f504c41590000000000000000000000000000000000000000000000000000000081525081526020016040518060400160405280600481526020017f53494e470000000000000000000000000000000000000000000000000000000081525081526020016040518060400160405280600581526020017f445249564500000000000000000000000000000000000000000000000000000081525081526020016040518060400160405280600581526020017f434c494d4200000000000000000000000000000000000000000000000000000081525081526020016040518060400160405280600581526020017f5041494e5400000000000000000000000000000000000000000000000000000081525081526020016040518060400160405280600481526020017f434f44450000000000000000000000000000000000000000000000000000000081525081526020016040518060400160405280600681526020017f504f4e444552000000000000000000000000000000000000000000000000000081525081526020016040518060400160405280600581526020017f534c45455000000000000000000000000000000000000000000000000000000081525081526020016040518060400160405280600381526020017f464c59000000000000000000000000000000000000000000000000000000000081525081526020016040518060400160405280600681526020017f435245415445000000000000000000000000000000000000000000000000000081525081526020016040518060400160405280600581526020017f575249544500000000000000000000000000000000000000000000000000000081525081526020016040518060400160405280600681526020017f444952454354000000000000000000000000000000000000000000000000000081525081526020016040518060400160405280600681526020017f455343415045000000000000000000000000000000000000000000000000000081525081526020016040518060400160405280600481526020017f46414c4c0000000000000000000000000000000000000000000000000000000081525081526020016040518060400160405280600881526020017f464c4f555249534800000000000000000000000000000000000000000000000081525081526020016040518060400160405280600381526020017f4a414d000000000000000000000000000000000000000000000000000000000081525081526020016040518060400160405280600981526020017f494d50524f56495345000000000000000000000000000000000000000000000081525081526020016040518060400160405280600481526020017f4a554d500000000000000000000000000000000000000000000000000000000081525081526020016040518060400160405280600581526020017f545245415400000000000000000000000000000000000000000000000000000081525081526020016040518060400160405280600481526020017f474946540000000000000000000000000000000000000000000000000000000081525081526020016040518060400160405280600481526020017f455849540000000000000000000000000000000000000000000000000000000081525081526020016040518060400160405280600381526020017f4d4958000000000000000000000000000000000000000000000000000000000081525081526020016040518060400160405280600481526020017f5341494c0000000000000000000000000000000000000000000000000000000081525081526020016040518060400160405280600481526020017f4d414b450000000000000000000000000000000000000000000000000000000081525081526020016040518060400160405280600581526020017f534f4c564500000000000000000000000000000000000000000000000000000081525081526020016040518060400160405280600681526020017f534541524348000000000000000000000000000000000000000000000000000081525081526020016040518060400160405280600581526020017f5448494e4b00000000000000000000000000000000000000000000000000000081525081526020016040518060400160405280600881526020017f524553454152434800000000000000000000000000000000000000000000000081525081526020016040518060400160405280600781526020017f414456414e43450000000000000000000000000000000000000000000000000081525081526020016040518060400160405280600681526020017f524541534f4e0000000000000000000000000000000000000000000000000000815250815250604d90604062001ef29291906200200e565b5034801562001f0057600080fd5b50604051620084a9380380620084a9833981810160405281019062001f269190620022f5565b8484816000908051906020019062001f4092919062002068565b50806001908051906020019062001f5992919062002068565b50505082600760006101000a81548173ffffffffffffffffffffffffffffffffffffffff021916908373ffffffffffffffffffffffffffffffffffffffff16021790555081600a8190555080600b8190555050505050506200258b565b826010600402810192821562001ffb579160200282015b8281111562001ffa5782518290600462001fe9929190620020f9565b509160200191906004019062001fcd565b5b5090506200200a919062002153565b5090565b826040810192821562002055579160200282015b82811115620020545782518290805190602001906200204392919062002068565b509160200191906001019062002022565b5b5090506200206491906200217b565b5090565b82805462002076906200247c565b90600052602060002090601f0160209004810192826200209a5760008555620020e6565b82601f10620020b557805160ff1916838001178555620020e6565b82800160010185558215620020e6579182015b82811115620020e5578251825591602001919060010190620020c8565b5b509050620020f59190620021a3565b5090565b826004810192821562002140579160200282015b828111156200213f5782518290805190602001906200212e92919062002068565b50916020019190600101906200210d565b5b5090506200214f91906200217b565b5090565b5b808211156200217757600081816200216d9190620021c2565b5060040162002154565b5090565b5b808211156200219f57600081816200219591906200220f565b506001016200217c565b5090565b5b80821115620021be576000816000905550600101620021a4565b5090565b5060008181620021d391906200220f565b5060010160008181620021e791906200220f565b5060010160008181620021fb91906200220f565b5060010160006200220d91906200220f565b565b5080546200221d906200247c565b6000825580601f1062002231575062002252565b601f016020900490600052602060002090810190620022519190620021a3565b5b50565b60006200226c6200226684620023d2565b620023a9565b9050828152602081018484840111156200228557600080fd5b6200229284828562002446565b509392505050565b600081519050620022ab8162002557565b92915050565b600082601f830112620022c357600080fd5b8151620022d584826020860162002255565b91505092915050565b600081519050620022ef8162002571565b92915050565b600080600080600060a086880312156200230e57600080fd5b600086015167ffffffffffffffff8111156200232957600080fd5b6200233788828901620022b1565b955050602086015167ffffffffffffffff8111156200235557600080fd5b6200236388828901620022b1565b945050604062002376888289016200229a565b93505060606200238988828901620022de565b92505060806200239c88828901620022de565b9150509295509295909350565b6000620023b5620023c8565b9050620023c38282620024b2565b919050565b6000604051905090565b600067ffffffffffffffff821115620023f057620023ef62002517565b5b620023fb8262002546565b9050602081019050919050565b600062002415826200241c565b9050919050565b600073ffffffffffffffffffffffffffffffffffffffff82169050919050565b6000819050919050565b60005b838110156200246657808201518184015260208101905062002449565b8381111562002476576000848401525b50505050565b600060028204905060018216806200249557607f821691505b60208210811415620024ac57620024ab620024e8565b5b50919050565b620024bd8262002546565b810181811067ffffffffffffffff82111715620024df57620024de62002517565b5b80604052505050565b7f4e487b7100000000000000000000000000000000000000000000000000000000600052602260045260246000fd5b7f4e487b7100000000000000000000000000000000000000000000000000000000600052604160045260246000fd5b6000601f19601f8301169050919050565b620025628162002408565b81146200256e57600080fd5b50565b6200257c816200243c565b81146200258857600080fd5b50565b615f0e806200259b6000396000f3fe60806040526004361061014b5760003560e01c80638da5cb5b116100b6578063b88d4fde1161006f578063b88d4fde146104cd578063c24a0f8b146104f6578063c87b56dd14610521578063dd0144371461055e578063e086e5ec1461057c578063e985e9c5146105935761014b565b80638da5cb5b146103bb578063913e77ad146103e657806395d89b4114610411578063a22cb4651461043c578063a48b3b8f14610465578063acd0bddb146104a25761014b565b806342842e0e1161010857806342842e0e146102725780634b44d8121461029b57806357cecd3a146102d85780636352211e14610303578063663b3e221461034057806370a082311461037e5761014b565b806301ffc9a71461015057806306fdde031461018d578063081812fc146101b8578063095ea7b3146101f55780630b97bc861461021e57806323b872dd14610249575b600080fd5b34801561015c57600080fd5b506101776004803603810190610172919061307e565b6105d0565b6040516101849190614203565b60405180910390f35b34801561019957600080fd5b506101a26106b2565b6040516101af919061421e565b60405180910390f35b3480156101c457600080fd5b506101df60048036038101906101da91906130d0565b610744565b6040516101ec9190614181565b60405180910390f35b34801561020157600080fd5b5061021c60048036038101906102179190613042565b6107c9565b005b34801561022a57600080fd5b506102336108d3565b6040516102409190614500565b60405180910390f35b34801561025557600080fd5b50610270600480360381019061026b9190612f3c565b6108d9565b005b34801561027e57600080fd5b5061029960048036038101906102949190612f3c565b610932565b005b3480156102a757600080fd5b506102c260048036038101906102bd91906130d0565b610952565b6040516102cf919061421e565b60405180910390f35b3480156102e457600080fd5b506102ed610b95565b6040516102fa9190614500565b60405180910390f35b34801561030f57600080fd5b5061032a600480360381019061032591906130d0565b610b9b565b6040516103379190614181565b60405180910390f35b34801561034c57600080fd5b50610367600480360381019061036291906130d0565b610c4d565b60405161037592919061451b565b60405180910390f35b34801561038a57600080fd5b506103a560048036038101906103a09190612ed7565b610c91565b6040516103b29190614500565b60405180910390f35b3480156103c757600080fd5b506103d0610d49565b6040516103dd9190614181565b60405180910390f35b3480156103f257600080fd5b506103fb610d6f565b604051610408919061419c565b60405180910390f35b34801561041d57600080fd5b50610426610d95565b604051610433919061421e565b60405180910390f35b34801561044857600080fd5b50610463600480360381019061045e9190613006565b610e27565b005b34801561047157600080fd5b5061048c600480360381019061048791906130d0565b610f93565b604051610499919061421e565b60405180910390f35b3480156104ae57600080fd5b506104b7610fad565b6040516104c49190614500565b60405180910390f35b3480156104d957600080fd5b506104f460048036038101906104ef9190612f8b565b610fb3565b005b34801561050257600080fd5b5061050b61100e565b6040516105189190614500565b60405180910390f35b34801561052d57600080fd5b50610548600480360381019061054391906130d0565b611014565b604051610555919061421e565b60405180910390f35b61056661121c565b6040516105739190614500565b60405180910390f35b34801561058857600080fd5b5061059161147a565b005b34801561059f57600080fd5b506105ba60048036038101906105b59190612f00565b611575565b6040516105c79190614203565b60405180910390f35b60007f80ac58cd000000000000000000000000000000000000000000000000000000007bffffffffffffffffffffffffffffffffffffffffffffffffffffffff1916827bffffffffffffffffffffffffffffffffffffffffffffffffffffffff1916148061069b57507f5b5e139f000000000000000000000000000000000000000000000000000000007bffffffffffffffffffffffffffffffffffffffffffffffffffffffff1916827bffffffffffffffffffffffffffffffffffffffffffffffffffffffff1916145b806106ab57506106aa82611609565b5b9050919050565b6060600080546106c190614878565b80601f01602080910402602001604051908101604052809291908181526020018280546106ed90614878565b801561073a5780601f1061070f5761010080835404028352916020019161073a565b820191906000526020600020905b81548152906001019060200180831161071d57829003601f168201915b5050505050905090565b600061074f82611673565b61078e576040517f08c379a0000000000000000000000000000000000000000000000000000000008152600401610785906143e0565b60405180910390fd5b6004600083815260200190815260200160002060009054906101000a900473ffffffffffffffffffffffffffffffffffffffff169050919050565b60006107d482610b9b565b90508073ffffffffffffffffffffffffffffffffffffffff168373ffffffffffffffffffffffffffffffffffffffff161415610845576040517f08c379a000000000000000000000000000000000000000000000000000000000815260040161083c90614440565b60405180910390fd5b8073ffffffffffffffffffffffffffffffffffffffff163373ffffffffffffffffffffffffffffffffffffffff16148061088557506108848133611575565b5b6108c4576040517f08c379a00000000000000000000000000000000000000000000000000000000081526004016108bb90614360565b60405180910390fd5b6108ce83836116df565b505050565b600a5481565b6108e33382611798565b610922576040517f08c379a0000000000000000000000000000000000000000000000000000000008152600401610919906144c0565b60405180910390fd5b61092d838383611876565b505050565b61094d83838360405180602001604052806000815250610fb3565b505050565b606060008260001b60405160200161096a9190613c51565b60405160208183030381529060405290506000601061098a836000611ac7565b61099491906146b0565b60ff169050600060046109a8846001611ac7565b6109b291906146b0565b60ff16905060006109c38684611b7d565b905060006109d18585611f0a565b905060006040518060400160405280600281526020017f44460000000000000000000000000000000000000000000000000000000000008152509050600073ffffffffffffffffffffffffffffffffffffffff16600c60008a815260200190815260200160002060010160009054906101000a900473ffffffffffffffffffffffffffffffffffffffff1673ffffffffffffffffffffffffffffffffffffffff1614610ab0576040518060400160405280600281526020017f445800000000000000000000000000000000000000000000000000000000000081525090505b828282610ad2600c60008d81526020019081526020016000206000015461208d565b604d8860408110610b0c577f4e487b7100000000000000000000000000000000000000000000000000000000600052603260045260246000fd5b01610b64600c60008f815260200190815260200160002060010160009054906101000a900473ffffffffffffffffffffffffffffffffffffffff1673ffffffffffffffffffffffffffffffffffffffff16601461223a565b604051602001610b7996959493929190613da2565b6040516020818303038152906040529650505050505050919050565b60095481565b6000806002600084815260200190815260200160002060009054906101000a900473ffffffffffffffffffffffffffffffffffffffff169050600073ffffffffffffffffffffffffffffffffffffffff168173ffffffffffffffffffffffffffffffffffffffff161415610c44576040517f08c379a0000000000000000000000000000000000000000000000000000000008152600401610c3b906143a0565b60405180910390fd5b80915050919050565b600c6020528060005260406000206000915090508060000154908060010160009054906101000a900473ffffffffffffffffffffffffffffffffffffffff16905082565b60008073ffffffffffffffffffffffffffffffffffffffff168273ffffffffffffffffffffffffffffffffffffffff161415610d02576040517f08c379a0000000000000000000000000000000000000000000000000000000008152600401610cf990614380565b60405180910390fd5b600360008373ffffffffffffffffffffffffffffffffffffffff1673ffffffffffffffffffffffffffffffffffffffff168152602001908152602001600020549050919050565b600660009054906101000a900473ffffffffffffffffffffffffffffffffffffffff1681565b600760009054906101000a900473ffffffffffffffffffffffffffffffffffffffff1681565b606060018054610da490614878565b80601f0160208091040260200160405190810160405280929190818152602001828054610dd090614878565b8015610e1d5780601f10610df257610100808354040283529160200191610e1d565b820191906000526020600020905b815481529060010190602001808311610e0057829003601f168201915b5050505050905090565b3373ffffffffffffffffffffffffffffffffffffffff168273ffffffffffffffffffffffffffffffffffffffff161415610e96576040517f08c379a0000000000000000000000000000000000000000000000000000000008152600401610e8d906142c0565b60405180910390fd5b80600560003373ffffffffffffffffffffffffffffffffffffffff1673ffffffffffffffffffffffffffffffffffffffff16815260200190815260200160002060008473ffffffffffffffffffffffffffffffffffffffff1673ffffffffffffffffffffffffffffffffffffffff16815260200190815260200160002060006101000a81548160ff0219169083151502179055508173ffffffffffffffffffffffffffffffffffffffff163373ffffffffffffffffffffffffffffffffffffffff167f17307eab39ab6107e8899845ad3d59bd9653f200f220920489ca2b5937696c3183604051610f879190614203565b60405180910390a35050565b6060610fa6610fa183610952565b612534565b9050919050565b60085481565b610fbd3383611798565b610ffc576040517f08c379a0000000000000000000000000000000000000000000000000000000008152600401610ff3906144c0565b60405180910390fd5b611008848484846126df565b50505050565b600b5481565b606061101f82611673565b61105e576040517f08c379a000000000000000000000000000000000000000000000000000000000815260040161105590614420565b60405180910390fd5b60006040518060400160405280600781526020017f44656661756c74000000000000000000000000000000000000000000000000008152509050600073ffffffffffffffffffffffffffffffffffffffff16600c600085815260200190815260200160002060010160009054906101000a900473ffffffffffffffffffffffffffffffffffffffff1673ffffffffffffffffffffffffffffffffffffffff161461113b576040518060400160405280600681526020017f44656c757865000000000000000000000000000000000000000000000000000081525090505b60008161115d600c60008781526020019081526020016000206000015461208d565b60405160200161116e929190613c6c565b604051602081830303815290604052905060006040518060400160405280601781526020017f416e63686f722043697479204365727469666963617465000000000000000000815250905060006111c486610f93565b90506111f28383836040516020016111de93929190613ed6565b604051602081830303815290604052612534565b6040516020016112029190614076565b604051602081830303815290604052945050505050919050565b6000600a544211611262576040517f08c379a0000000000000000000000000000000000000000000000000000000008152600401611259906144a0565b60405180910390fd5b600b5442106112a6576040517f08c379a000000000000000000000000000000000000000000000000000000000815260040161129d906142e0565b60405180910390fd5b662386f26fc100003410156112f0576040517f08c379a00000000000000000000000000000000000000000000000000000000081526004016112e790614340565b60405180910390fd5b6112f8612dae565b66b1a2bc2ec5000034106113af5760016009600082825461131991906145f2565b9250508190555060646009541115611366576040517f08c379a000000000000000000000000000000000000000000000000000000000815260040161135d90614280565b60405180910390fd5b60095481600001818152505033816020019073ffffffffffffffffffffffffffffffffffffffff16908173ffffffffffffffffffffffffffffffffffffffff16815250506113d6565b6001600860008282546113c291906145f2565b925050819055506008548160000181815250505b42336040516020016113e9929190614155565b6040516020818303038152906040528051906020012060001c915080600c60008481526020019081526020016000206000820151816000015560208201518160010160006101000a81548173ffffffffffffffffffffffffffffffffffffffff021916908373ffffffffffffffffffffffffffffffffffffffff160217905550905050611476338361273b565b5090565b600760009054906101000a900473ffffffffffffffffffffffffffffffffffffffff1673ffffffffffffffffffffffffffffffffffffffff163373ffffffffffffffffffffffffffffffffffffffff161461150a576040517f08c379a000000000000000000000000000000000000000000000000000000000815260040161150190614320565b60405180910390fd5b600760009054906101000a900473ffffffffffffffffffffffffffffffffffffffff1673ffffffffffffffffffffffffffffffffffffffff166108fc479081150290604051600060405180830381858888f19350505050158015611572573d6000803e3d6000fd5b50565b6000600560008473ffffffffffffffffffffffffffffffffffffffff1673ffffffffffffffffffffffffffffffffffffffff16815260200190815260200160002060008373ffffffffffffffffffffffffffffffffffffffff1673ffffffffffffffffffffffffffffffffffffffff16815260200190815260200160002060009054906101000a900460ff16905092915050565b60007f01ffc9a7000000000000000000000000000000000000000000000000000000007bffffffffffffffffffffffffffffffffffffffffffffffffffffffff1916827bffffffffffffffffffffffffffffffffffffffffffffffffffffffff1916149050919050565b60008073ffffffffffffffffffffffffffffffffffffffff166002600084815260200190815260200160002060009054906101000a900473ffffffffffffffffffffffffffffffffffffffff1673ffffffffffffffffffffffffffffffffffffffff1614159050919050565b816004600083815260200190815260200160002060006101000a81548173ffffffffffffffffffffffffffffffffffffffff021916908373ffffffffffffffffffffffffffffffffffffffff160217905550808273ffffffffffffffffffffffffffffffffffffffff1661175283610b9b565b73ffffffffffffffffffffffffffffffffffffffff167f8c5be1e5ebec7d5bd14f71427d1e84f3dd0314c0f7b2291e5b200ac8c7c3b92560405160405180910390a45050565b60006117a382611673565b6117e2576040517f08c379a00000000000000000000000000000000000000000000000000000000081526004016117d990614300565b60405180910390fd5b60006117ed83610b9b565b90508073ffffffffffffffffffffffffffffffffffffffff168473ffffffffffffffffffffffffffffffffffffffff16148061185c57508373ffffffffffffffffffffffffffffffffffffffff1661184484610744565b73ffffffffffffffffffffffffffffffffffffffff16145b8061186d575061186c8185611575565b5b91505092915050565b8273ffffffffffffffffffffffffffffffffffffffff1661189682610b9b565b73ffffffffffffffffffffffffffffffffffffffff16146118ec576040517f08c379a00000000000000000000000000000000000000000000000000000000081526004016118e390614400565b60405180910390fd5b600073ffffffffffffffffffffffffffffffffffffffff168273ffffffffffffffffffffffffffffffffffffffff16141561195c576040517f08c379a0000000000000000000000000000000000000000000000000000000008152600401611953906142a0565b60405180910390fd5b6119676000826116df565b6001600360008573ffffffffffffffffffffffffffffffffffffffff1673ffffffffffffffffffffffffffffffffffffffff16815260200190815260200160002060008282546119b7919061473b565b925050819055506001600360008473ffffffffffffffffffffffffffffffffffffffff1673ffffffffffffffffffffffffffffffffffffffff1681526020019081526020016000206000828254611a0e91906145f2565b92505081905550816002600083815260200190815260200160002060006101000a81548173ffffffffffffffffffffffffffffffffffffffff021916908373ffffffffffffffffffffffffffffffffffffffff160217905550808273ffffffffffffffffffffffffffffffffffffffff168473ffffffffffffffffffffffffffffffffffffffff167fddf252ad1be2c89b69c2b068fc378daa952ba7f163c4a11628f55a4df523b3ef60405160405180910390a4505050565b600081600183611ad791906145f2565b1015611b18576040517f08c379a0000000000000000000000000000000000000000000000000000000008152600401611b0f90614460565b60405180910390fd5b600182611b2591906145f2565b83511015611b68576040517f08c379a0000000000000000000000000000000000000000000000000000000008152600401611b5f906144e0565b60405180910390fd5b60008260018501015190508091505092915050565b6060600d8260108110611bb9577f4e487b7100000000000000000000000000000000000000000000000000000000600052603260045260246000fd5b60040201600060048110611bf6577f4e487b7100000000000000000000000000000000000000000000000000000000600052603260045260246000fd5b01600d8360108110611c31577f4e487b7100000000000000000000000000000000000000000000000000000000600052603260045260246000fd5b60040201600360048110611c6e577f4e487b7100000000000000000000000000000000000000000000000000000000600052603260045260246000fd5b01600d8460108110611ca9577f4e487b7100000000000000000000000000000000000000000000000000000000600052603260045260246000fd5b60040201600160048110611ce6577f4e487b7100000000000000000000000000000000000000000000000000000000600052603260045260246000fd5b01600d8560108110611d21577f4e487b7100000000000000000000000000000000000000000000000000000000600052603260045260246000fd5b60040201600260048110611d5e577f4e487b7100000000000000000000000000000000000000000000000000000000600052603260045260246000fd5b01611d74611d6b8861208d565b600060186128fd565b600d8760108110611dae577f4e487b7100000000000000000000000000000000000000000000000000000000600052603260045260246000fd5b60040201600360048110611deb577f4e487b7100000000000000000000000000000000000000000000000000000000600052603260045260246000fd5b01600d8860108110611e26577f4e487b7100000000000000000000000000000000000000000000000000000000600052603260045260246000fd5b60040201600360048110611e63577f4e487b7100000000000000000000000000000000000000000000000000000000600052603260045260246000fd5b01600d8960108110611e9e577f4e487b7100000000000000000000000000000000000000000000000000000000600052603260045260246000fd5b60040201600360048110611edb577f4e487b7100000000000000000000000000000000000000000000000000000000600052603260045260246000fd5b01604051602001611ef3989796959493929190613f3e565b604051602081830303815290604052905092915050565b60606000611f19846002612a6b565b90506000611f28856006612a6b565b90506000611f3786600a612a6b565b90506000611f4687600e612a6b565b90506000611f55886012612a6b565b90506000611f9b856040518060400160405280600381526020017f32343500000000000000000000000000000000000000000000000000000000008152508a6002612b4d565b90506000611fe1856040518060400160405280600381526020017f32353500000000000000000000000000000000000000000000000000000000008152508b6000612b4d565b90506000612027856040518060400160405280600381526020017f32363500000000000000000000000000000000000000000000000000000000008152508c6003612b4d565b90508760000151886020015189604001518a606001518686868a600001518b602001518c604001518d6060015160405160200161206e9b9a99989796959493929190613c9b565b6040516020818303038152906040529850505050505050505092915050565b606060008214156120d5576040518060400160405280600181526020017f30000000000000000000000000000000000000000000000000000000000000008152509050612235565b600082905060005b600082146121075780806120f0906148db565b915050600a82612100919061467f565b91506120dd565b60008167ffffffffffffffff811115612149577f4e487b7100000000000000000000000000000000000000000000000000000000600052604160045260246000fd5b6040519080825280601f01601f19166020018201604052801561217b5781602001600182028036833780820191505090505b5090505b6000851461222e57600182612194919061473b565b9150600a856121a3919061495c565b60306121af91906145f2565b60f81b8183815181106121eb577f4e487b7100000000000000000000000000000000000000000000000000000000600052603260045260246000fd5b60200101907effffffffffffffffffffffffffffffffffffffffffffffffffffffffffffff1916908160001a905350600a85612227919061467f565b945061217f565b8093505050505b919050565b60606000600283600261224d91906146e1565b61225791906145f2565b67ffffffffffffffff811115612296577f4e487b7100000000000000000000000000000000000000000000000000000000600052604160045260246000fd5b6040519080825280601f01601f1916602001820160405280156122c85781602001600182028036833780820191505090505b5090507f300000000000000000000000000000000000000000000000000000000000000081600081518110612326577f4e487b7100000000000000000000000000000000000000000000000000000000600052603260045260246000fd5b60200101907effffffffffffffffffffffffffffffffffffffffffffffffffffffffffffff1916908160001a9053507f7800000000000000000000000000000000000000000000000000000000000000816001815181106123b0577f4e487b7100000000000000000000000000000000000000000000000000000000600052603260045260246000fd5b60200101907effffffffffffffffffffffffffffffffffffffffffffffffffffffffffffff1916908160001a905350600060018460026123f091906146e1565b6123fa91906145f2565b90505b60018111156124e6577f3031323334353637383961626364656600000000000000000000000000000000600f861660108110612462577f4e487b7100000000000000000000000000000000000000000000000000000000600052603260045260246000fd5b1a60f81b82828151811061249f577f4e487b7100000000000000000000000000000000000000000000000000000000600052603260045260246000fd5b60200101907effffffffffffffffffffffffffffffffffffffffffffffffffffffffffffff1916908160001a905350600485901c9450806124df9061484e565b90506123fd565b506000841461252a576040517f08c379a000000000000000000000000000000000000000000000000000000000815260040161252190614480565b60405180910390fd5b8091505092915050565b6060600082511415612557576040518060200160405280600081525090506126da565b6000604051806060016040528060408152602001615e99604091399050600060036002855161258691906145f2565b612590919061467f565b600461259c91906146e1565b905060006020826125ad91906145f2565b67ffffffffffffffff8111156125ec577f4e487b7100000000000000000000000000000000000000000000000000000000600052604160045260246000fd5b6040519080825280601f01601f19166020018201604052801561261e5781602001600182028036833780820191505090505b509050818152600183018586518101602084015b81831015612699576003830192508251603f8160121c1685015160f81b8252600182019150603f81600c1c1685015160f81b8252600182019150603f8160061c1685015160f81b8252600182019150603f811685015160f81b825260018201915050612632565b6003895106600181146126b357600281146126c3576126ce565b613d3d60f01b60028303526126ce565b603d60f81b60018303525b50505050508093505050505b919050565b6126ea848484611876565b6126f684848484612c0b565b612735576040517f08c379a000000000000000000000000000000000000000000000000000000000815260040161272c90614240565b60405180910390fd5b50505050565b600073ffffffffffffffffffffffffffffffffffffffff168273ffffffffffffffffffffffffffffffffffffffff1614156127ab576040517f08c379a00000000000000000000000000000000000000000000000000000000081526004016127a2906143c0565b60405180910390fd5b6127b481611673565b156127f4576040517f08c379a00000000000000000000000000000000000000000000000000000000081526004016127eb90614260565b60405180910390fd5b6001600360008473ffffffffffffffffffffffffffffffffffffffff1673ffffffffffffffffffffffffffffffffffffffff168152602001908152602001600020600082825461284491906145f2565b92505081905550816002600083815260200190815260200160002060006101000a81548173ffffffffffffffffffffffffffffffffffffffff021916908373ffffffffffffffffffffffffffffffffffffffff160217905550808273ffffffffffffffffffffffffffffffffffffffff16600073ffffffffffffffffffffffffffffffffffffffff167fddf252ad1be2c89b69c2b068fc378daa952ba7f163c4a11628f55a4df523b3ef60405160405180910390a45050565b6060600084905060008484612912919061473b565b67ffffffffffffffff811115612951577f4e487b7100000000000000000000000000000000000000000000000000000000600052604160045260246000fd5b6040519080825280601f01601f1916602001820160405280156129835781602001600182028036833780820191505090505b50905060008590505b84811015612a5e578281815181106129cd577f4e487b7100000000000000000000000000000000000000000000000000000000600052603260045260246000fd5b602001015160f81c60f81b8287836129e5919061473b565b81518110612a1c577f4e487b7100000000000000000000000000000000000000000000000000000000600052603260045260246000fd5b60200101907effffffffffffffffffffffffffffffffffffffffffffffffffffffffffffff1916908160001a9053508080612a56906148db565b91505061298c565b5080925050509392505050565b612a73612dde565b612aa06004612a828585611ac7565b612a8c91906146b0565b605a612a989190614648565b60ff1661208d565b8160000181905250612ad56010612ac385600186612abe91906145f2565b611ac7565b612acd91906146b0565b60ff1661208d565b8160200181905250612b0a6010612af885600286612af391906145f2565b611ac7565b612b0291906146b0565b60ff1661208d565b8160400181905250612b3f6010612b2d85600386612b2891906145f2565b611ac7565b612b3791906146b0565b60ff1661208d565b816060018190525092915050565b606083856000015185600d8660108110612b90577f4e487b7100000000000000000000000000000000000000000000000000000000600052603260045260246000fd5b600402018560048110612bcc577f4e487b7100000000000000000000000000000000000000000000000000000000600052603260045260246000fd5b01886020015189604001518a60600151604051602001612bf29796959493929190614098565b6040516020818303038152906040529050949350505050565b6000612c2c8473ffffffffffffffffffffffffffffffffffffffff16612d9b565b15612d8e578373ffffffffffffffffffffffffffffffffffffffff1663150b7a02338786866040518563ffffffff1660e01b8152600401612c7094939291906141b7565b602060405180830381600087803b158015612c8a57600080fd5b505af1925050508015612cbb57506040513d601f19601f82011682018060405250810190612cb891906130a7565b60015b612d3e573d8060008114612ceb576040519150601f19603f3d011682016040523d82523d6000602084013e612cf0565b606091505b50600081511415612d36576040517f08c379a0000000000000000000000000000000000000000000000000000000008152600401612d2d90614240565b60405180910390fd5b805181602001fd5b63150b7a0260e01b7bffffffffffffffffffffffffffffffffffffffffffffffffffffffff1916817bffffffffffffffffffffffffffffffffffffffffffffffffffffffff191614915050612d93565b600190505b949350505050565b600080823b905060008111915050919050565b604051806040016040528060008152602001600073ffffffffffffffffffffffffffffffffffffffff1681525090565b6040518060800160405280606081526020016060815260200160608152602001606081525090565b6000612e19612e1484614569565b614544565b905082815260208101848484011115612e3157600080fd5b612e3c84828561480c565b509392505050565b600081359050612e5381615e3c565b92915050565b600081359050612e6881615e53565b92915050565b600081359050612e7d81615e6a565b92915050565b600081519050612e9281615e6a565b92915050565b600082601f830112612ea957600080fd5b8135612eb9848260208601612e06565b91505092915050565b600081359050612ed181615e81565b92915050565b600060208284031215612ee957600080fd5b6000612ef784828501612e44565b91505092915050565b60008060408385031215612f1357600080fd5b6000612f2185828601612e44565b9250506020612f3285828601612e44565b9150509250929050565b600080600060608486031215612f5157600080fd5b6000612f5f86828701612e44565b9350506020612f7086828701612e44565b9250506040612f8186828701612ec2565b9150509250925092565b60008060008060808587031215612fa157600080fd5b6000612faf87828801612e44565b9450506020612fc087828801612e44565b9350506040612fd187828801612ec2565b925050606085013567ffffffffffffffff811115612fee57600080fd5b612ffa87828801612e98565b91505092959194509250565b6000806040838503121561301957600080fd5b600061302785828601612e44565b925050602061303885828601612e59565b9150509250929050565b6000806040838503121561305557600080fd5b600061306385828601612e44565b925050602061307485828601612ec2565b9150509250929050565b60006020828403121561309057600080fd5b600061309e84828501612e6e565b91505092915050565b6000602082840312156130b957600080fd5b60006130c784828501612e83565b91505092915050565b6000602082840312156130e257600080fd5b60006130f084828501612ec2565b91505092915050565b61310281614781565b82525050565b6131118161476f565b82525050565b6131286131238261476f565b614924565b82525050565b61313781614793565b82525050565b61314e6131498261479f565b614936565b82525050565b600061315f826145af565b61316981856145c5565b935061317981856020860161481b565b61318281614a49565b840191505092915050565b6000613198826145ba565b6131a281856145d6565b93506131b281856020860161481b565b6131bb81614a49565b840191505092915050565b60006131d1826145ba565b6131db81856145e7565b93506131eb81856020860161481b565b80840191505092915050565b6000815461320481614878565b61320e81866145e7565b94506001821660008114613229576001811461323a5761326d565b60ff1983168652818601935061326d565b6132438561459a565b60005b8381101561326557815481890152600182019150602081019050613246565b838801955050505b50505092915050565b60006132836013836145e7565b915061328e82614a67565b601382019050919050565b60006132a66081836145e7565b91506132b182614a90565b608182019050919050565b60006132c96032836145e7565b91506132d482614b51565b603282019050919050565b60006132ec6032836145e7565b91506132f782614ba0565b603282019050919050565b600061330f6067836145e7565b915061331a82614bef565b606782019050919050565b60006133326009836145e7565b915061333d82614c8a565b600982019050919050565b60006133556032836145d6565b915061336082614cb3565b604082019050919050565b60006133786015836145e7565b915061338382614d02565b601582019050919050565b600061339b6013836145e7565b91506133a682614d2b565b601382019050919050565b60006133be601c836145d6565b91506133c982614d54565b602082019050919050565b60006133e16008836145e7565b91506133ec82614d7d565b600882019050919050565b60006134046012836145d6565b915061340f82614da6565b602082019050919050565b60006134276024836145d6565b915061343282614dcf565b604082019050919050565b600061344a6019836145d6565b915061345582614e1e565b602082019050919050565b600061346d602b836145e7565b915061347882614e47565b602b82019050919050565b60006134906005836145d6565b915061349b82614e96565b602082019050919050565b60006134b3602c836145e7565b91506134be82614ebf565b602c82019050919050565b60006134d66028836145e7565b91506134e182614f0e565b602882019050919050565b60006134f9602c836145d6565b915061350482614f5d565b604082019050919050565b600061351c603c836145e7565b915061352782614fac565b603c82019050919050565b600061353f6047836145e7565b915061354a82614ffb565b604782019050919050565b60006135626021836145e7565b915061356d82615070565b602182019050919050565b60006135856035836145e7565b9150613590826150bf565b603582019050919050565b60006135a8605e836145e7565b91506135b38261510e565b605e82019050919050565b60006135cb6001836145e7565b91506135d682615183565b600182019050919050565b60006135ee600d836145d6565b91506135f9826151ac565b602082019050919050565b6000613611600f836145d6565b915061361c826151d5565b602082019050919050565b6000613634605a836145e7565b915061363f826151fe565b605a82019050919050565b60006136576038836145d6565b915061366282615273565b604082019050919050565b600061367a6004836145e7565b9150613685826152c2565b600482019050919050565b600061369d602a836145d6565b91506136a8826152eb565b604082019050919050565b60006136c06047836145e7565b91506136cb8261533a565b604782019050919050565b60006136e36029836145d6565b91506136ee826153af565b604082019050919050565b60006137066037836145e7565b9150613711826153fe565b603782019050919050565b60006137296062836145e7565b91506137348261544d565b606282019050919050565b600061374c6002836145e7565b9150613757826154e8565b600282019050919050565b600061376f6007836145e7565b915061377a82615511565b600782019050919050565b60006137926026836145e7565b915061379d8261553a565b602682019050919050565b60006137b56020836145d6565b91506137c082615589565b602082019050919050565b60006137d8600d836145e7565b91506137e3826155b2565b600d82019050919050565b60006137fb602c836145d6565b9150613806826155db565b604082019050919050565b600061381e603a836145e7565b91506138298261562a565b603a82019050919050565b60006138416033836145e7565b915061384c82615679565b603382019050919050565b60006138646012836145e7565b915061386f826156c8565b601282019050919050565b60006138876030836145e7565b9150613892826156f1565b603082019050919050565b60006138aa6014836145e7565b91506138b582615740565b601482019050919050565b60006138cd6006836145e7565b91506138d882615769565b600682019050919050565b60006138f06029836145d6565b91506138fb82615792565b604082019050919050565b6000613913602f836145d6565b915061391e826157e1565b604082019050919050565b6000613936604d836145e7565b915061394182615830565b604d82019050919050565b60006139596013836145e7565b9150613964826158a5565b601382019050919050565b600061397c6029836145e7565b9150613987826158ce565b602982019050919050565b600061399f6027836145e7565b91506139aa8261591d565b602782019050919050565b60006139c26025836145e7565b91506139cd8261596c565b602582019050919050565b60006139e56003836145e7565b91506139f0826159bb565b600382019050919050565b6000613a086021836145d6565b9150613a13826159e4565b604082019050919050565b6000613a2b601d836145e7565b9150613a3682615a33565b601d82019050919050565b6000613a4e6010836145d6565b9150613a5982615a5c565b602082019050919050565b6000613a716005836145d6565b9150613a7c82615a85565b602082019050919050565b6000613a94600b836145d6565b9150613a9f82615aae565b602082019050919050565b6000613ab76062836145e7565b9150613ac282615ad7565b606282019050919050565b6000613ada6031836145d6565b9150613ae582615b72565b604082019050919050565b6000613afd600a836145e7565b9150613b0882615bc1565b600a82019050919050565b6000613b206013836145d6565b9150613b2b82615bea565b602082019050919050565b6000613b436063836145e7565b9150613b4e82615c13565b606382019050919050565b6000613b666006836145e7565b9150613b7182615cae565b600682019050919050565b6000613b896006836145e7565b9150613b9482615cd7565b600682019050919050565b6000613bac6024836145e7565b9150613bb782615d00565b602482019050919050565b6000613bcf605b836145e7565b9150613bda82615d4f565b605b82019050919050565b6000613bf2601a836145e7565b9150613bfd82615dc4565b601a82019050919050565b6000613c156032836145e7565b9150613c2082615ded565b603282019050919050565b613c34816147f5565b82525050565b613c4b613c46826147f5565b614952565b82525050565b6000613c5d828461313d565b60208201915081905092915050565b6000613c7882856131c6565b9150613c838261336b565b9150613c8f82846131c6565b91508190509392505050565b6000613ca682613276565b9150613cb2828e6131c6565b9150613cbd82613532565b9150613cc9828d6131c6565b9150613cd4826135be565b9150613ce0828c6131c6565b9150613ceb826135be565b9150613cf7828b6131c6565b9150613d02826139d8565b9150613d0e828a6131c6565b9150613d1a82896131c6565b9150613d2682886131c6565b9150613d318261338e565b9150613d3d82876131c6565b9150613d48826136b3565b9150613d5482866131c6565b9150613d5f826135be565b9150613d6b82856131c6565b9150613d76826135be565b9150613d8282846131c6565b9150613d8d826139d8565b91508190509c9b505050505050505050505050565b6000613dad82613302565b9150613db982896131c6565b9150613dc582886131c6565b9150613dd082613578565b9150613ddb826134a6565b9150613de782876131c6565b9150613df2826133d4565b9150613dfd826134c9565b9150613e0982866131c6565b9150613e1482613762565b9150613e1f826132df565b9150613e2a82613929565b9150613e3582613992565b9150613e4182856131f7565b9150613e4c82613762565b9150613e57826136f9565b9150613e6282613460565b9150613e6e82846131c6565b9150613e7982613762565b9150613e8482613627565b9150613e8f82613b36565b9150613e9a8261359b565b9150613ea582613bc2565b9150613eb08261371c565b9150613ebb82613299565b9150613ec682613b7c565b9150819050979650505050505050565b6000613ee182613325565b9150613eed82866131c6565b9150613ef882613857565b9150613f0482856131c6565b9150613f0f826137cb565b9150613f1a82613be5565b9150613f2682846131c6565b9150613f318261373f565b9150819050949350505050565b6000613f4982613834565b9150613f55828b6131f7565b9150613f608261366d565b9150613f6b82613811565b9150613f77828a6131f7565b9150613f828261366d565b9150613f8d826132bc565b9150613f9982896131f7565b9150613fa4826139d8565b9150613faf82613c08565b9150613fbb82886131f7565b9150613fc68261366d565b9150613fd18261350f565b9150613fdc8261387a565b9150613fe882876131c6565b9150613ff382613762565b9150613ffe82613aaa565b915061400982613b9f565b915061401582866131f7565b91506140208261389d565b915061402b826139b5565b915061403782856131f7565b91506140428261389d565b915061404d8261396f565b915061405982846131f7565b915061406482613555565b91508190509998505050505050505050565b600061408182613a1e565b915061408d82846131c6565b915081905092915050565b60006140a382613af0565b91506140af828a6131c6565b91506140ba826138c0565b91506140c682896131c6565b91506140d182613b59565b91506140dd82886131c6565b91506140e88261394c565b91506140f482876131f7565b91506140ff82613785565b915061410b82866131c6565b9150614116826135be565b915061412282856131c6565b915061412d826135be565b915061413982846131c6565b9150614144826139d8565b915081905098975050505050505050565b60006141618285613c3a565b6020820191506141718284613117565b6014820191508190509392505050565b60006020820190506141966000830184613108565b92915050565b60006020820190506141b160008301846130f9565b92915050565b60006080820190506141cc6000830187613108565b6141d96020830186613108565b6141e66040830185613c2b565b81810360608301526141f88184613154565b905095945050505050565b6000602082019050614218600083018461312e565b92915050565b60006020820190508181036000830152614238818461318d565b905092915050565b6000602082019050818103600083015261425981613348565b9050919050565b60006020820190508181036000830152614279816133b1565b9050919050565b60006020820190508181036000830152614299816133f7565b9050919050565b600060208201905081810360008301526142b98161341a565b9050919050565b600060208201905081810360008301526142d98161343d565b9050919050565b600060208201905081810360008301526142f981613483565b9050919050565b60006020820190508181036000830152614319816134ec565b9050919050565b60006020820190508181036000830152614339816135e1565b9050919050565b6000602082019050818103600083015261435981613604565b9050919050565b600060208201905081810360008301526143798161364a565b9050919050565b6000602082019050818103600083015261439981613690565b9050919050565b600060208201905081810360008301526143b9816136d6565b9050919050565b600060208201905081810360008301526143d9816137a8565b9050919050565b600060208201905081810360008301526143f9816137ee565b9050919050565b60006020820190508181036000830152614419816138e3565b9050919050565b6000602082019050818103600083015261443981613906565b9050919050565b60006020820190508181036000830152614459816139fb565b9050919050565b6000602082019050818103600083015261447981613a41565b9050919050565b6000602082019050818103600083015261449981613a64565b9050919050565b600060208201905081810360008301526144b981613a87565b9050919050565b600060208201905081810360008301526144d981613acd565b9050919050565b600060208201905081810360008301526144f981613b13565b9050919050565b60006020820190506145156000830184613c2b565b92915050565b60006040820190506145306000830185613c2b565b61453d6020830184613108565b9392505050565b600061454e61455f565b905061455a82826148aa565b919050565b6000604051905090565b600067ffffffffffffffff82111561458457614583614a1a565b5b61458d82614a49565b9050602081019050919050565b60008190508160005260206000209050919050565b600081519050919050565b600081519050919050565b600082825260208201905092915050565b600082825260208201905092915050565b600081905092915050565b60006145fd826147f5565b9150614608836147f5565b9250827fffffffffffffffffffffffffffffffffffffffffffffffffffffffffffffffff0382111561463d5761463c61498d565b5b828201905092915050565b6000614653826147ff565b915061465e836147ff565b92508260ff038211156146745761467361498d565b5b828201905092915050565b600061468a826147f5565b9150614695836147f5565b9250826146a5576146a46149bc565b5b828204905092915050565b60006146bb826147ff565b91506146c6836147ff565b9250826146d6576146d56149bc565b5b828204905092915050565b60006146ec826147f5565b91506146f7836147f5565b9250817fffffffffffffffffffffffffffffffffffffffffffffffffffffffffffffffff04831182151516156147305761472f61498d565b5b828202905092915050565b6000614746826147f5565b9150614751836147f5565b9250828210156147645761476361498d565b5b828203905092915050565b600061477a826147d5565b9050919050565b600061478c826147d5565b9050919050565b60008115159050919050565b6000819050919050565b60007fffffffff0000000000000000000000000000000000000000000000000000000082169050919050565b600073ffffffffffffffffffffffffffffffffffffffff82169050919050565b6000819050919050565b600060ff82169050919050565b82818337600083830152505050565b60005b8381101561483957808201518184015260208101905061481e565b83811115614848576000848401525b50505050565b6000614859826147f5565b9150600082141561486d5761486c61498d565b5b600182039050919050565b6000600282049050600182168061489057607f821691505b602082108114156148a4576148a36149eb565b5b50919050565b6148b382614a49565b810181811067ffffffffffffffff821117156148d2576148d1614a1a565b5b80604052505050565b60006148e6826147f5565b91507fffffffffffffffffffffffffffffffffffffffffffffffffffffffffffffffff8214156149195761491861498d565b5b600182019050919050565b600061492f82614940565b9050919050565b6000819050919050565b600061494b82614a5a565b9050919050565b6000819050919050565b6000614967826147f5565b9150614972836147f5565b925082614982576149816149bc565b5b828206905092915050565b7f4e487b7100000000000000000000000000000000000000000000000000000000600052601160045260246000fd5b7f4e487b7100000000000000000000000000000000000000000000000000000000600052601260045260246000fd5b7f4e487b7100000000000000000000000000000000000000000000000000000000600052602260045260246000fd5b7f4e487b7100000000000000000000000000000000000000000000000000000000600052604160045260246000fd5b6000601f19601f8301169050919050565b60008160601b9050919050565b7f3c6c696e652078313d22323335222079313d2200000000000000000000000000600082015250565b7f3c7374796c653e2e737667426f6479207b666f6e742d66616d696c793a20224360008201527f6f7572696572204e657722207d202e74696e79207b666f6e742d73697a653a3660208201527f70783b207d202e736d616c6c207b666f6e742d73697a653a20313270783b7d2e60408201527f6d656469756d207b666f6e742d73697a653a20313870783b7d3c2f7374796c6560608201527f3e00000000000000000000000000000000000000000000000000000000000000608082015250565b7f3c7265637420793d223630222077696474683d2233303022206865696768743d60008201527f2231313522207374796c653d2266696c6c3a0000000000000000000000000000602082015250565b7f3c7465787420783d2231352220793d223132302220636c6173733d226d65646960008201527f756d223e524541534f4e3a3c2f746578743e0000000000000000000000000000602082015250565b7f3c73766720636c6173733d22737667426f6479222077696474683d223330302260008201527f206865696768743d22333030222076696577426f783d2230203020333030203360208201527f30302220786d6c6e733d22687474703a2f2f7777772e77332e6f72672f32303060408201527f302f737667223e00000000000000000000000000000000000000000000000000606082015250565b7f7b226e616d65223a220000000000000000000000000000000000000000000000600082015250565b7f4552433732313a207472616e7366657220746f206e6f6e20455243373231526560008201527f63656976657220696d706c656d656e7465720000000000000000000000000000602082015250565b7f20416e63686f7220436572746966696361746520230000000000000000000000600082015250565b7f3c6c696e652078313d22323735222079313d2200000000000000000000000000600082015250565b7f4552433732313a20746f6b656e20616c7265616479206d696e74656400000000600082015250565b7f313c2f746578743e000000000000000000000000000000000000000000000000600082015250565b7f4d41585f44585f524541434845445f3130300000000000000000000000000000600082015250565b7f4552433732313a207472616e7366657220746f20746865207a65726f2061646460008201527f7265737300000000000000000000000000000000000000000000000000000000602082015250565b7f4552433732313a20617070726f766520746f2063616c6c657200000000000000600082015250565b7f3c7465787420783d2231352220793d2232303522207374796c653d22666f6e7460008201527f2d73697a653a387078223e000000000000000000000000000000000000000000602082015250565b7f454e444544000000000000000000000000000000000000000000000000000000600082015250565b7f3c7465787420783d2231352220793d2238302220636c6173733d226d6564697560008201527f6d223e45444954494f4e3e200000000000000000000000000000000000000000602082015250565b7f3c7465787420783d2231352220793d223130302220636c6173733d226d65646960008201527f756d223e49443e20000000000000000000000000000000000000000000000000602082015250565b7f4552433732313a206f70657261746f7220717565727920666f72206e6f6e657860008201527f697374656e7420746f6b656e0000000000000000000000000000000000000000602082015250565b7f3c7465787420783d2231352220793d2232352220636c6173733d226d6564697560008201527f6d223e414e43484f522043455254494649434154453c2f746578743e00000000602082015250565b7f222078323d22323335222079323d2233303022207374726f6b653d227768697460008201527f6522207374726f6b652d77696474683d22313022207374726f6b652d6461736860208201527f61727261793d2200000000000000000000000000000000000000000000000000604082015250565b7f22207374726f6b652d77696474683d2235222066696c6c3d226e6f6e6522202f60008201527f3e00000000000000000000000000000000000000000000000000000000000000602082015250565b7f3c7465787420783d223231352220793d2238302220636c6173733d22736d616c60008201527f6c223e414e43484f5220434954593c2f746578743e0000000000000000000000602082015250565b7f3c7465787420783d2231352220793d223235302220636c6173733d2274696e7960008201527f223e6f662045617274682e2049662053706f6e736f7265642c20556e6465722060208201527f53656374696f6e20362e463a20546865204265617265723c2f746578743e0000604082015250565b7f2000000000000000000000000000000000000000000000000000000000000000600082015250565b7f4e4f545f434f4c4c4543544f5200000000000000000000000000000000000000600082015250565b7f4d4f524520455448204e45454445440000000000000000000000000000000000600082015250565b7f3c7465787420783d2231352220793d223233302220636c6173733d2274696e7960008201527f223e556e6465722053656374696f6e20312e43206f66207468652055706c6f6160208201527f646564204d696e647320416e642048756d616e3c2f746578743e000000000000604082015250565b7f4552433732313a20617070726f76652063616c6c6572206973206e6f74206f7760008201527f6e6572206e6f7220617070726f76656420666f7220616c6c0000000000000000602082015250565b7f22202f3e00000000000000000000000000000000000000000000000000000000600082015250565b7f4552433732313a2062616c616e636520717565727920666f7220746865207a6560008201527f726f206164647265737300000000000000000000000000000000000000000000602082015250565b7f222078323d22323735222079323d2233303022207374726f6b653d22626c616360008201527f6b22207374726f6b652d77696474683d22313022207374726f6b652d6461736860208201527f61727261793d2200000000000000000000000000000000000000000000000000604082015250565b7f4552433732313a206f776e657220717565727920666f72206e6f6e657869737460008201527f656e7420746f6b656e0000000000000000000000000000000000000000000000602082015250565b7f3c7465787420783d2231352220793d223139302220636c6173733d22736d616c60008201527f6c223e53504f4e534f5245442042593a3c2f746578743e000000000000000000602082015250565b7f3c7465787420783d2231352220793d223237302220636c6173733d2274696e7960008201527f223e556e6465722053656374696f6e20392e413a2049662044657374726f796560208201527f642c204265617265722057696c6c2042652044656c69737465642e3c2f74657860408201527f743e000000000000000000000000000000000000000000000000000000000000606082015250565b7f227d000000000000000000000000000000000000000000000000000000000000600082015250565b7f3c2f746578743e00000000000000000000000000000000000000000000000000600082015250565b7f22207374726f6b652d77696474683d22313022207374726f6b652d646173686160008201527f727261793d220000000000000000000000000000000000000000000000000000602082015250565b7f4552433732313a206d696e7420746f20746865207a65726f2061646472657373600082015250565b7f222c2022696d616765223a202200000000000000000000000000000000000000600082015250565b7f4552433732313a20617070726f76656420717565727920666f72206e6f6e657860008201527f697374656e7420746f6b656e0000000000000000000000000000000000000000602082015250565b7f3c7265637420793d22323035222077696474683d22333030222068656967687460008201527f3d223735222072783d22313022207374796c653d2266696c6c3a000000000000602082015250565b7f3c726563742077696474683d2233303022206865696768743d2233303022207260008201527f783d22313022207374796c653d2266696c6c3a00000000000000000000000000602082015250565b7f222c20226465736372697074696f6e223a220000000000000000000000000000600082015250565b7f3c7465787420783d2231372220793d2235302220636c6173733d22736d616c6c60008201527f22206f7061636974793d22302e35223e00000000000000000000000000000000602082015250565b7f22207374726f6b652d77696474683d2235222f3e000000000000000000000000600082015250565b7f222079313d220000000000000000000000000000000000000000000000000000600082015250565b7f4552433732313a207472616e73666572206f6620746f6b656e2074686174206960008201527f73206e6f74206f776e0000000000000000000000000000000000000000000000602082015250565b7f4552433732314d657461646174613a2055524920717565727920666f72206e6f60008201527f6e6578697374656e7420746f6b656e0000000000000000000000000000000000602082015250565b7f3c7265637420783d2231352220793d22313235222077696474683d223230352260008201527f206865696768743d22343022207374796c653d2266696c6c3a77686974653b6f60208201527f7061636974793a302e35222f3e00000000000000000000000000000000000000604082015250565b7f222079323d2233303022207374726f6b653d2200000000000000000000000000600082015250565b7f3c7061746820643d224d203233302035352071203235202d333020353020302260008201527f207374726f6b653d220000000000000000000000000000000000000000000000602082015250565b7f3c7465787420783d2231352220793d223134302220636c6173733d226d65646960008201527f756d223e544f2000000000000000000000000000000000000000000000000000602082015250565b7f3c7061746820643d224d20323830203535206c202d3330202d3430222073747260008201527f6f6b653d22000000000000000000000000000000000000000000000000000000602082015250565b7f222f3e0000000000000000000000000000000000000000000000000000000000600082015250565b7f4552433732313a20617070726f76616c20746f2063757272656e74206f776e6560008201527f7200000000000000000000000000000000000000000000000000000000000000602082015250565b7f646174613a6170706c69636174696f6e2f6a736f6e3b6261736536342c000000600082015250565b7f746f55696e74385f6f766572666c6f7700000000000000000000000000000000600082015250565b7f4845585f4c000000000000000000000000000000000000000000000000000000600082015250565b7f4e4f545f53544152544544000000000000000000000000000000000000000000600082015250565b7f3c636972636c652063783d22323535222063793d2233302220723d223230222060008201527f7374726f6b653d227768697465222066696c6c3d227472616e73706172656e7460208201527f22207374726f6b652d77696474683d223522206f7061636974793d22302e372260408201527f2f3e000000000000000000000000000000000000000000000000000000000000606082015250565b7f4552433732313a207472616e736665722063616c6c6572206973206e6f74206f60008201527f776e6572206e6f7220617070726f766564000000000000000000000000000000602082015250565b7f3c6c696e652078313d2200000000000000000000000000000000000000000000600082015250565b7f746f55696e74385f6f75744f66426f756e647300000000000000000000000000600082015250565b7f3c7465787420783d2231352220793d223234302220636c6173733d2274696e7960008201527f223e436f6578697374656e636520506163743a2054686520426561726572204960208201527f732052652d456e7469746c656420546f205468652046726565646f6d3c2f746560408201527f78743e0000000000000000000000000000000000000000000000000000000000606082015250565b7f222078323d220000000000000000000000000000000000000000000000000000600082015250565b7f3c2f7376673e0000000000000000000000000000000000000000000000000000600082015250565b7f3c7061746820643d224d20323330203535206c203330202d343022207374726f60008201527f6b653d2200000000000000000000000000000000000000000000000000000000602082015250565b7f3c7465787420783d2231352220793d223236302220636c6173733d2274696e7960008201527f223e48617320496d6d6564696174652041636365737320546f2054686520496e60208201527f6e65722042616e6477696474682057656c6c732e3c2f746578743e0000000000604082015250565b7f646174613a696d6167652f7376672b786d6c3b6261736536342c000000000000600082015250565b7f3c7265637420793d22313735222077696474683d22333030222068656967687460008201527f3d22343022207374796c653d2266696c6c3a0000000000000000000000000000602082015250565b615e458161476f565b8114615e5057600080fd5b50565b615e5c81614793565b8114615e6757600080fd5b50565b615e73816147a9565b8114615e7e57600080fd5b50565b615e8a816147f5565b8114615e9557600080fd5b5056fe4142434445464748494a4b4c4d4e4f505152535455565758595a6162636465666768696a6b6c6d6e6f707172737475767778797a303132333435363738392b2fa26469706673582212202e86d1b19dfc14756bdd01a0be6eba3c7b02359a8b358e61f8e3d8c3e3f3745764736f6c63430008040033","opcodes":"PUSH1 0x80 PUSH1 0x40 MSTORE PUSH20 0xAF69610EA9DDC95883F97A6A3171D52165B69B03 PUSH1 0x6 PUSH1 0x0 PUSH2 0x100 EXP DUP2 SLOAD DUP2 PUSH20 0xFFFFFFFFFFFFFFFFFFFFFFFFFFFFFFFFFFFFFFFF MUL NOT AND SWAP1 DUP4 PUSH20 0xFFFFFFFFFFFFFFFFFFFFFFFFFFFFFFFFFFFFFFFF AND MUL OR SWAP1 SSTORE POP PUSH1 0x40 MLOAD DUP1 PUSH2 0x200 ADD PUSH1 0x40 MSTORE DUP1 PUSH1 0x40 MLOAD DUP1 PUSH1 0x80 ADD PUSH1 0x40 MSTORE DUP1 PUSH1 0x40 MLOAD DUP1 PUSH1 0x40 ADD PUSH1 0x40 MSTORE DUP1 PUSH1 0x7 DUP2 MSTORE PUSH1 0x20 ADD PUSH32 0x2365636133663500000000000000000000000000000000000000000000000000 DUP2 MSTORE POP DUP2 MSTORE PUSH1 0x20 ADD PUSH1 0x40 MLOAD DUP1 PUSH1 0x40 ADD PUSH1 0x40 MSTORE DUP1 PUSH1 0x7 DUP2 MSTORE PUSH1 0x20 ADD PUSH32 0x2366646261663900000000000000000000000000000000000000000000000000 DUP2 MSTORE POP DUP2 MSTORE PUSH1 0x20 ADD PUSH1 0x40 MLOAD DUP1 PUSH1 0x40 ADD PUSH1 0x40 MSTORE DUP1 PUSH1 0x7 DUP2 MSTORE PUSH1 0x20 ADD PUSH32 0x2362306566656200000000000000000000000000000000000000000000000000 DUP2 MSTORE POP DUP2 MSTORE PUSH1 0x20 ADD PUSH1 0x40 MLOAD DUP1 PUSH1 0x40 ADD PUSH1 0x40 MSTORE DUP1 PUSH1 0x7 DUP2 MSTORE PUSH1 0x20 ADD PUSH32 0x2365646666613900000000000000000000000000000000000000000000000000 DUP2 MSTORE POP DUP2 MSTORE POP DUP2 MSTORE PUSH1 0x20 ADD PUSH1 0x40 MLOAD DUP1 PUSH1 0x80 ADD PUSH1 0x40 MSTORE DUP1 PUSH1 0x40 MLOAD DUP1 PUSH1 0x40 ADD PUSH1 0x40 MSTORE DUP1 PUSH1 0x7 DUP2 MSTORE PUSH1 0x20 ADD PUSH32 0x2337356366623800000000000000000000000000000000000000000000000000 DUP2 MSTORE POP DUP2 MSTORE PUSH1 0x20 ADD PUSH1 0x40 MLOAD DUP1 PUSH1 0x40 ADD PUSH1 0x40 MSTORE DUP1 PUSH1 0x7 DUP2 MSTORE PUSH1 0x20 ADD PUSH32 0x2362626466633800000000000000000000000000000000000000000000000000 DUP2 MSTORE POP DUP2 MSTORE PUSH1 0x20 ADD PUSH1 0x40 MLOAD DUP1 PUSH1 0x40 ADD PUSH1 0x40 MSTORE DUP1 PUSH1 0x7 DUP2 MSTORE PUSH1 0x20 ADD PUSH32 0x2366306535643800000000000000000000000000000000000000000000000000 DUP2 MSTORE POP DUP2 MSTORE PUSH1 0x20 ADD PUSH1 0x40 MLOAD DUP1 PUSH1 0x40 ADD PUSH1 0x40 MSTORE DUP1 PUSH1 0x7 DUP2 MSTORE PUSH1 0x20 ADD PUSH32 0x2366666334373800000000000000000000000000000000000000000000000000 DUP2 MSTORE POP DUP2 MSTORE POP DUP2 MSTORE PUSH1 0x20 ADD PUSH1 0x40 MLOAD DUP1 PUSH1 0x80 ADD PUSH1 0x40 MSTORE DUP1 PUSH1 0x40 MLOAD DUP1 PUSH1 0x40 ADD PUSH1 0x40 MSTORE DUP1 PUSH1 0x7 DUP2 MSTORE PUSH1 0x20 ADD PUSH32 0x2366666162373300000000000000000000000000000000000000000000000000 DUP2 MSTORE POP DUP2 MSTORE PUSH1 0x20 ADD PUSH1 0x40 MLOAD DUP1 PUSH1 0x40 ADD PUSH1 0x40 MSTORE DUP1 PUSH1 0x7 DUP2 MSTORE PUSH1 0x20 ADD PUSH32 0x2366666433383400000000000000000000000000000000000000000000000000 DUP2 MSTORE POP DUP2 MSTORE PUSH1 0x20 ADD PUSH1 0x40 MLOAD DUP1 PUSH1 0x40 ADD PUSH1 0x40 MSTORE DUP1 PUSH1 0x7 DUP2 MSTORE PUSH1 0x20 ADD PUSH32 0x2366666639623000000000000000000000000000000000000000000000000000 DUP2 MSTORE POP DUP2 MSTORE PUSH1 0x20 ADD PUSH1 0x40 MLOAD DUP1 PUSH1 0x40 ADD PUSH1 0x40 MSTORE DUP1 PUSH1 0x7 DUP2 MSTORE PUSH1 0x20 ADD PUSH32 0x2366666165633000000000000000000000000000000000000000000000000000 DUP2 MSTORE POP DUP2 MSTORE POP DUP2 MSTORE PUSH1 0x20 ADD PUSH1 0x40 MLOAD DUP1 PUSH1 0x80 ADD PUSH1 0x40 MSTORE DUP1 PUSH1 0x40 MLOAD DUP1 PUSH1 0x40 ADD PUSH1 0x40 MSTORE DUP1 PUSH1 0x7 DUP2 MSTORE PUSH1 0x20 ADD PUSH32 0x2339346234613400000000000000000000000000000000000000000000000000 DUP2 MSTORE POP DUP2 MSTORE PUSH1 0x20 ADD PUSH1 0x40 MLOAD DUP1 PUSH1 0x40 ADD PUSH1 0x40 MSTORE DUP1 PUSH1 0x7 DUP2 MSTORE PUSH1 0x20 ADD PUSH32 0x2364326635653300000000000000000000000000000000000000000000000000 DUP2 MSTORE POP DUP2 MSTORE PUSH1 0x20 ADD PUSH1 0x40 MLOAD DUP1 PUSH1 0x40 ADD PUSH1 0x40 MSTORE DUP1 PUSH1 0x7 DUP2 MSTORE PUSH1 0x20 ADD PUSH32 0x2365356335623500000000000000000000000000000000000000000000000000 DUP2 MSTORE POP DUP2 MSTORE PUSH1 0x20 ADD PUSH1 0x40 MLOAD DUP1 PUSH1 0x40 ADD PUSH1 0x40 MSTORE DUP1 PUSH1 0x7 DUP2 MSTORE PUSH1 0x20 ADD PUSH32 0x2366346439633600000000000000000000000000000000000000000000000000 DUP2 MSTORE POP DUP2 MSTORE POP DUP2 MSTORE PUSH1 0x20 ADD PUSH1 0x40 MLOAD DUP1 PUSH1 0x80 ADD PUSH1 0x40 MSTORE DUP1 PUSH1 0x40 MLOAD DUP1 PUSH1 0x40 ADD PUSH1 0x40 MSTORE DUP1 PUSH1 0x7 DUP2 MSTORE PUSH1 0x20 ADD PUSH32 0x2366346639663900000000000000000000000000000000000000000000000000 DUP2 MSTORE POP DUP2 MSTORE PUSH1 0x20 ADD PUSH1 0x40 MLOAD DUP1 PUSH1 0x40 ADD PUSH1 0x40 MSTORE DUP1 PUSH1 0x7 DUP2 MSTORE PUSH1 0x20 ADD PUSH32 0x2363636632663400000000000000000000000000000000000000000000000000 DUP2 MSTORE POP DUP2 MSTORE PUSH1 0x20 ADD PUSH1 0x40 MLOAD DUP1 PUSH1 0x40 ADD PUSH1 0x40 MSTORE DUP1 PUSH1 0x7 DUP2 MSTORE PUSH1 0x20 ADD PUSH32 0x2361346562663300000000000000000000000000000000000000000000000000 DUP2 MSTORE POP DUP2 MSTORE PUSH1 0x20 ADD PUSH1 0x40 MLOAD DUP1 PUSH1 0x40 ADD PUSH1 0x40 MSTORE DUP1 PUSH1 0x7 DUP2 MSTORE PUSH1 0x20 ADD PUSH32 0x2361616161616100000000000000000000000000000000000000000000000000 DUP2 MSTORE POP DUP2 MSTORE POP DUP2 MSTORE PUSH1 0x20 ADD PUSH1 0x40 MLOAD DUP1 PUSH1 0x80 ADD PUSH1 0x40 MSTORE DUP1 PUSH1 0x40 MLOAD DUP1 PUSH1 0x40 ADD PUSH1 0x40 MSTORE DUP1 PUSH1 0x7 DUP2 MSTORE PUSH1 0x20 ADD PUSH32 0x2363616637653300000000000000000000000000000000000000000000000000 DUP2 MSTORE POP DUP2 MSTORE PUSH1 0x20 ADD PUSH1 0x40 MLOAD DUP1 PUSH1 0x40 ADD PUSH1 0x40 MSTORE DUP1 PUSH1 0x7 DUP2 MSTORE PUSH1 0x20 ADD PUSH32 0x2365646666656300000000000000000000000000000000000000000000000000 DUP2 MSTORE POP DUP2 MSTORE PUSH1 0x20 ADD PUSH1 0x40 MLOAD DUP1 PUSH1 0x40 ADD PUSH1 0x40 MSTORE DUP1 PUSH1 0x7 DUP2 MSTORE PUSH1 0x20 ADD PUSH32 0x2366366466656200000000000000000000000000000000000000000000000000 DUP2 MSTORE POP DUP2 MSTORE PUSH1 0x20 ADD PUSH1 0x40 MLOAD DUP1 PUSH1 0x40 ADD PUSH1 0x40 MSTORE DUP1 PUSH1 0x7 DUP2 MSTORE PUSH1 0x20 ADD PUSH32 0x2365346261643400000000000000000000000000000000000000000000000000 DUP2 MSTORE POP DUP2 MSTORE POP DUP2 MSTORE PUSH1 0x20 ADD PUSH1 0x40 MLOAD DUP1 PUSH1 0x80 ADD PUSH1 0x40 MSTORE DUP1 PUSH1 0x40 MLOAD DUP1 PUSH1 0x40 ADD PUSH1 0x40 MSTORE DUP1 PUSH1 0x7 DUP2 MSTORE PUSH1 0x20 ADD PUSH32 0x2366346639663900000000000000000000000000000000000000000000000000 DUP2 MSTORE POP DUP2 MSTORE PUSH1 0x20 ADD PUSH1 0x40 MLOAD DUP1 PUSH1 0x40 ADD PUSH1 0x40 MSTORE DUP1 PUSH1 0x7 DUP2 MSTORE PUSH1 0x20 ADD PUSH32 0x2366316431643000000000000000000000000000000000000000000000000000 DUP2 MSTORE POP DUP2 MSTORE PUSH1 0x20 ADD PUSH1 0x40 MLOAD DUP1 PUSH1 0x40 ADD PUSH1 0x40 MSTORE DUP1 PUSH1 0x7 DUP2 MSTORE PUSH1 0x20 ADD PUSH32 0x2366626163636300000000000000000000000000000000000000000000000000 DUP2 MSTORE POP DUP2 MSTORE PUSH1 0x20 ADD PUSH1 0x40 MLOAD DUP1 PUSH1 0x40 ADD PUSH1 0x40 MSTORE DUP1 PUSH1 0x7 DUP2 MSTORE PUSH1 0x20 ADD PUSH32 0x2366383735616100000000000000000000000000000000000000000000000000 DUP2 MSTORE POP DUP2 MSTORE POP DUP2 MSTORE PUSH1 0x20 ADD PUSH1 0x40 MLOAD DUP1 PUSH1 0x80 ADD PUSH1 0x40 MSTORE DUP1 PUSH1 0x40 MLOAD DUP1 PUSH1 0x40 ADD PUSH1 0x40 MSTORE DUP1 PUSH1 0x7 DUP2 MSTORE PUSH1 0x20 ADD PUSH32 0x2366646666626300000000000000000000000000000000000000000000000000 DUP2 MSTORE POP DUP2 MSTORE PUSH1 0x20 ADD PUSH1 0x40 MLOAD DUP1 PUSH1 0x40 ADD PUSH1 0x40 MSTORE DUP1 PUSH1 0x7 DUP2 MSTORE PUSH1 0x20 ADD PUSH32 0x2366666565626200000000000000000000000000000000000000000000000000 DUP2 MSTORE POP DUP2 MSTORE PUSH1 0x20 ADD PUSH1 0x40 MLOAD DUP1 PUSH1 0x40 ADD PUSH1 0x40 MSTORE DUP1 PUSH1 0x7 DUP2 MSTORE PUSH1 0x20 ADD PUSH32 0x2366666463623800000000000000000000000000000000000000000000000000 DUP2 MSTORE POP DUP2 MSTORE PUSH1 0x20 ADD PUSH1 0x40 MLOAD DUP1 PUSH1 0x40 ADD PUSH1 0x40 MSTORE DUP1 PUSH1 0x7 DUP2 MSTORE PUSH1 0x20 ADD PUSH32 0x2366666331623600000000000000000000000000000000000000000000000000 DUP2 MSTORE POP DUP2 MSTORE POP DUP2 MSTORE PUSH1 0x20 ADD PUSH1 0x40 MLOAD DUP1 PUSH1 0x80 ADD PUSH1 0x40 MSTORE DUP1 PUSH1 0x40 MLOAD DUP1 PUSH1 0x40 ADD PUSH1 0x40 MSTORE DUP1 PUSH1 0x7 DUP2 MSTORE PUSH1 0x20 ADD PUSH32 0x2366306534643700000000000000000000000000000000000000000000000000 DUP2 MSTORE POP DUP2 MSTORE PUSH1 0x20 ADD PUSH1 0x40 MLOAD DUP1 PUSH1 0x40 ADD PUSH1 0x40 MSTORE DUP1 PUSH1 0x7 DUP2 MSTORE PUSH1 0x20 ADD PUSH32 0x2366356330633000000000000000000000000000000000000000000000000000 DUP2 MSTORE POP DUP2 MSTORE PUSH1 0x20 ADD PUSH1 0x40 MLOAD DUP1 PUSH1 0x40 ADD PUSH1 0x40 MSTORE DUP1 PUSH1 0x7 DUP2 MSTORE PUSH1 0x20 ADD PUSH32 0x2366663731373100000000000000000000000000000000000000000000000000 DUP2 MSTORE POP DUP2 MSTORE PUSH1 0x20 ADD PUSH1 0x40 MLOAD DUP1 PUSH1 0x40 ADD PUSH1 0x40 MSTORE DUP1 PUSH1 0x7 DUP2 MSTORE PUSH1 0x20 ADD PUSH32 0x2339666438646600000000000000000000000000000000000000000000000000 DUP2 MSTORE POP DUP2 MSTORE POP DUP2 MSTORE PUSH1 0x20 ADD PUSH1 0x40 MLOAD DUP1 PUSH1 0x80 ADD PUSH1 0x40 MSTORE DUP1 PUSH1 0x40 MLOAD DUP1 PUSH1 0x40 ADD PUSH1 0x40 MSTORE DUP1 PUSH1 0x7 DUP2 MSTORE PUSH1 0x20 ADD PUSH32 0x2365346662666600000000000000000000000000000000000000000000000000 DUP2 MSTORE POP DUP2 MSTORE PUSH1 0x20 ADD PUSH1 0x40 MLOAD DUP1 PUSH1 0x40 ADD PUSH1 0x40 MSTORE DUP1 PUSH1 0x7 DUP2 MSTORE PUSH1 0x20 ADD PUSH32 0x2362386235666600000000000000000000000000000000000000000000000000 DUP2 MSTORE POP DUP2 MSTORE PUSH1 0x20 ADD PUSH1 0x40 MLOAD DUP1 PUSH1 0x40 ADD PUSH1 0x40 MSTORE DUP1 PUSH1 0x7 DUP2 MSTORE PUSH1 0x20 ADD PUSH32 0x2337383638653600000000000000000000000000000000000000000000000000 DUP2 MSTORE POP DUP2 MSTORE PUSH1 0x20 ADD PUSH1 0x40 MLOAD DUP1 PUSH1 0x40 ADD PUSH1 0x40 MSTORE DUP1 PUSH1 0x7 DUP2 MSTORE PUSH1 0x20 ADD PUSH32 0x2365646565663700000000000000000000000000000000000000000000000000 DUP2 MSTORE POP DUP2 MSTORE POP DUP2 MSTORE PUSH1 0x20 ADD PUSH1 0x40 MLOAD DUP1 PUSH1 0x80 ADD PUSH1 0x40 MSTORE DUP1 PUSH1 0x40 MLOAD DUP1 PUSH1 0x40 ADD PUSH1 0x40 MSTORE DUP1 PUSH1 0x7 DUP2 MSTORE PUSH1 0x20 ADD PUSH32 0x2366666362393100000000000000000000000000000000000000000000000000 DUP2 MSTORE POP DUP2 MSTORE PUSH1 0x20 ADD PUSH1 0x40 MLOAD DUP1 PUSH1 0x40 ADD PUSH1 0x40 MSTORE DUP1 PUSH1 0x7 DUP2 MSTORE PUSH1 0x20 ADD PUSH32 0x2366666566613100000000000000000000000000000000000000000000000000 DUP2 MSTORE POP DUP2 MSTORE PUSH1 0x20 ADD PUSH1 0x40 MLOAD DUP1 PUSH1 0x40 ADD PUSH1 0x40 MSTORE DUP1 PUSH1 0x7 DUP2 MSTORE PUSH1 0x20 ADD PUSH32 0x2339346562636400000000000000000000000000000000000000000000000000 DUP2 MSTORE POP DUP2 MSTORE PUSH1 0x20 ADD PUSH1 0x40 MLOAD DUP1 PUSH1 0x40 ADD PUSH1 0x40 MSTORE DUP1 PUSH1 0x7 DUP2 MSTORE PUSH1 0x20 ADD PUSH32 0x2336646463636600000000000000000000000000000000000000000000000000 DUP2 MSTORE POP DUP2 MSTORE POP DUP2 MSTORE PUSH1 0x20 ADD PUSH1 0x40 MLOAD DUP1 PUSH1 0x80 ADD PUSH1 0x40 MSTORE DUP1 PUSH1 0x40 MLOAD DUP1 PUSH1 0x40 ADD PUSH1 0x40 MSTORE DUP1 PUSH1 0x7 DUP2 MSTORE PUSH1 0x20 ADD PUSH32 0x2362656463666100000000000000000000000000000000000000000000000000 DUP2 MSTORE POP DUP2 MSTORE PUSH1 0x20 ADD PUSH1 0x40 MLOAD DUP1 PUSH1 0x40 ADD PUSH1 0x40 MSTORE DUP1 PUSH1 0x7 DUP2 MSTORE PUSH1 0x20 ADD PUSH32 0x2339386163663800000000000000000000000000000000000000000000000000 DUP2 MSTORE POP DUP2 MSTORE PUSH1 0x20 ADD PUSH1 0x40 MLOAD DUP1 PUSH1 0x40 ADD PUSH1 0x40 MSTORE DUP1 PUSH1 0x7 DUP2 MSTORE PUSH1 0x20 ADD PUSH32 0x2362303838663900000000000000000000000000000000000000000000000000 DUP2 MSTORE POP DUP2 MSTORE PUSH1 0x20 ADD PUSH1 0x40 MLOAD DUP1 PUSH1 0x40 ADD PUSH1 0x40 MSTORE DUP1 PUSH1 0x7 DUP2 MSTORE PUSH1 0x20 ADD PUSH32 0x2364613966663900000000000000000000000000000000000000000000000000 DUP2 MSTORE POP DUP2 MSTORE POP DUP2 MSTORE PUSH1 0x20 ADD PUSH1 0x40 MLOAD DUP1 PUSH1 0x80 ADD PUSH1 0x40 MSTORE DUP1 PUSH1 0x40 MLOAD DUP1 PUSH1 0x40 ADD PUSH1 0x40 MSTORE DUP1 PUSH1 0x7 DUP2 MSTORE PUSH1 0x20 ADD PUSH32 0x2362636536656200000000000000000000000000000000000000000000000000 DUP2 MSTORE POP DUP2 MSTORE PUSH1 0x20 ADD PUSH1 0x40 MLOAD DUP1 PUSH1 0x40 ADD PUSH1 0x40 MSTORE DUP1 PUSH1 0x7 DUP2 MSTORE PUSH1 0x20 ADD PUSH32 0x2366646366646600000000000000000000000000000000000000000000000000 DUP2 MSTORE POP DUP2 MSTORE PUSH1 0x20 ADD PUSH1 0x40 MLOAD DUP1 PUSH1 0x40 ADD PUSH1 0x40 MSTORE DUP1 PUSH1 0x7 DUP2 MSTORE PUSH1 0x20 ADD PUSH32 0x2366626265646600000000000000000000000000000000000000000000000000 DUP2 MSTORE POP DUP2 MSTORE PUSH1 0x20 ADD PUSH1 0x40 MLOAD DUP1 PUSH1 0x40 ADD PUSH1 0x40 MSTORE DUP1 PUSH1 0x7 DUP2 MSTORE PUSH1 0x20 ADD PUSH32 0x2366636133636300000000000000000000000000000000000000000000000000 DUP2 MSTORE POP DUP2 MSTORE POP DUP2 MSTORE PUSH1 0x20 ADD PUSH1 0x40 MLOAD DUP1 PUSH1 0x80 ADD PUSH1 0x40 MSTORE DUP1 PUSH1 0x40 MLOAD DUP1 PUSH1 0x40 ADD PUSH1 0x40 MSTORE DUP1 PUSH1 0x7 DUP2 MSTORE PUSH1 0x20 ADD PUSH32 0x2366663735613000000000000000000000000000000000000000000000000000 DUP2 MSTORE POP DUP2 MSTORE PUSH1 0x20 ADD PUSH1 0x40 MLOAD DUP1 PUSH1 0x40 ADD PUSH1 0x40 MSTORE DUP1 PUSH1 0x7 DUP2 MSTORE PUSH1 0x20 ADD PUSH32 0x2366636533386100000000000000000000000000000000000000000000000000 DUP2 MSTORE POP DUP2 MSTORE PUSH1 0x20 ADD PUSH1 0x40 MLOAD DUP1 PUSH1 0x40 ADD PUSH1 0x40 MSTORE DUP1 PUSH1 0x7 DUP2 MSTORE PUSH1 0x20 ADD PUSH32 0x2365616666643000000000000000000000000000000000000000000000000000 DUP2 MSTORE POP DUP2 MSTORE PUSH1 0x20 ADD PUSH1 0x40 MLOAD DUP1 PUSH1 0x40 ADD PUSH1 0x40 MSTORE DUP1 PUSH1 0x7 DUP2 MSTORE PUSH1 0x20 ADD PUSH32 0x2339356531643300000000000000000000000000000000000000000000000000 DUP2 MSTORE POP DUP2 MSTORE POP DUP2 MSTORE PUSH1 0x20 ADD PUSH1 0x40 MLOAD DUP1 PUSH1 0x80 ADD PUSH1 0x40 MSTORE DUP1 PUSH1 0x40 MLOAD DUP1 PUSH1 0x40 ADD PUSH1 0x40 MSTORE DUP1 PUSH1 0x7 DUP2 MSTORE PUSH1 0x20 ADD PUSH32 0x2366626530633400000000000000000000000000000000000000000000000000 DUP2 MSTORE POP DUP2 MSTORE PUSH1 0x20 ADD PUSH1 0x40 MLOAD DUP1 PUSH1 0x40 ADD PUSH1 0x40 MSTORE DUP1 PUSH1 0x7 DUP2 MSTORE PUSH1 0x20 ADD PUSH32 0x2338616236643600000000000000000000000000000000000000000000000000 DUP2 MSTORE POP DUP2 MSTORE PUSH1 0x20 ADD PUSH1 0x40 MLOAD DUP1 PUSH1 0x40 ADD PUSH1 0x40 MSTORE DUP1 PUSH1 0x7 DUP2 MSTORE PUSH1 0x20 ADD PUSH32 0x2332393738623500000000000000000000000000000000000000000000000000 DUP2 MSTORE POP DUP2 MSTORE PUSH1 0x20 ADD PUSH1 0x40 MLOAD DUP1 PUSH1 0x40 ADD PUSH1 0x40 MSTORE DUP1 PUSH1 0x7 DUP2 MSTORE PUSH1 0x20 ADD PUSH32 0x2330303631613800000000000000000000000000000000000000000000000000 DUP2 MSTORE POP DUP2 MSTORE POP DUP2 MSTORE PUSH1 0x20 ADD PUSH1 0x40 MLOAD DUP1 PUSH1 0x80 ADD PUSH1 0x40 MSTORE DUP1 PUSH1 0x40 MLOAD DUP1 PUSH1 0x40 ADD PUSH1 0x40 MSTORE DUP1 PUSH1 0x7 DUP2 MSTORE PUSH1 0x20 ADD PUSH32 0x2364646464646400000000000000000000000000000000000000000000000000 DUP2 MSTORE POP DUP2 MSTORE PUSH1 0x20 ADD PUSH1 0x40 MLOAD DUP1 PUSH1 0x40 ADD PUSH1 0x40 MSTORE DUP1 PUSH1 0x7 DUP2 MSTORE PUSH1 0x20 ADD PUSH32 0x2366396633663300000000000000000000000000000000000000000000000000 DUP2 MSTORE POP DUP2 MSTORE PUSH1 0x20 ADD PUSH1 0x40 MLOAD DUP1 PUSH1 0x40 ADD PUSH1 0x40 MSTORE DUP1 PUSH1 0x7 DUP2 MSTORE PUSH1 0x20 ADD PUSH32 0x2366376439643900000000000000000000000000000000000000000000000000 DUP2 MSTORE POP DUP2 MSTORE PUSH1 0x20 ADD PUSH1 0x40 MLOAD DUP1 PUSH1 0x40 ADD PUSH1 0x40 MSTORE DUP1 PUSH1 0x7 DUP2 MSTORE PUSH1 0x20 ADD PUSH32 0x2366323532383700000000000000000000000000000000000000000000000000 DUP2 MSTORE POP DUP2 MSTORE POP DUP2 MSTORE POP PUSH1 0xD SWAP1 PUSH1 0x10 PUSH3 0x1015 SWAP3 SWAP2 SWAP1 PUSH3 0x1FB6 JUMP JUMPDEST POP PUSH1 0x40 MLOAD DUP1 PUSH2 0x800 ADD PUSH1 0x40 MSTORE DUP1 PUSH1 0x40 MLOAD DUP1 PUSH1 0x40 ADD PUSH1 0x40 MSTORE DUP1 PUSH1 0x5 DUP2 MSTORE PUSH1 0x20 ADD PUSH32 0x4255494C44000000000000000000000000000000000000000000000000000000 DUP2 MSTORE POP DUP2 MSTORE PUSH1 0x20 ADD PUSH1 0x40 MLOAD DUP1 PUSH1 0x40 ADD PUSH1 0x40 MSTORE DUP1 PUSH1 0x5 DUP2 MSTORE PUSH1 0x20 ADD PUSH32 0x545241494E000000000000000000000000000000000000000000000000000000 DUP2 MSTORE POP DUP2 MSTORE PUSH1 0x20 ADD PUSH1 0x40 MLOAD DUP1 PUSH1 0x40 ADD PUSH1 0x40 MSTORE DUP1 PUSH1 0x3 DUP2 MSTORE PUSH1 0x20 ADD PUSH32 0x5345450000000000000000000000000000000000000000000000000000000000 DUP2 MSTORE POP DUP2 MSTORE PUSH1 0x20 ADD PUSH1 0x40 MLOAD DUP1 PUSH1 0x40 ADD PUSH1 0x40 MSTORE DUP1 PUSH1 0x5 DUP2 MSTORE PUSH1 0x20 ADD PUSH32 0x445245414D000000000000000000000000000000000000000000000000000000 DUP2 MSTORE POP DUP2 MSTORE PUSH1 0x20 ADD PUSH1 0x40 MLOAD DUP1 PUSH1 0x40 ADD PUSH1 0x40 MSTORE DUP1 PUSH1 0x4 DUP2 MSTORE PUSH1 0x20 ADD PUSH32 0x4C49564500000000000000000000000000000000000000000000000000000000 DUP2 MSTORE POP DUP2 MSTORE PUSH1 0x20 ADD PUSH1 0x40 MLOAD DUP1 PUSH1 0x40 ADD PUSH1 0x40 MSTORE DUP1 PUSH1 0x5 DUP2 MSTORE PUSH1 0x20 ADD PUSH32 0x44414E4345000000000000000000000000000000000000000000000000000000 DUP2 MSTORE POP DUP2 MSTORE PUSH1 0x20 ADD PUSH1 0x40 MLOAD DUP1 PUSH1 0x40 ADD PUSH1 0x40 MSTORE DUP1 PUSH1 0x4 DUP2 MSTORE PUSH1 0x20 ADD PUSH32 0x484F504500000000000000000000000000000000000000000000000000000000 DUP2 MSTORE POP DUP2 MSTORE PUSH1 0x20 ADD PUSH1 0x40 MLOAD DUP1 PUSH1 0x40 ADD PUSH1 0x40 MSTORE DUP1 PUSH1 0x9 DUP2 MSTORE PUSH1 0x20 ADD PUSH32 0x4152434849544543540000000000000000000000000000000000000000000000 DUP2 MSTORE POP DUP2 MSTORE PUSH1 0x20 ADD PUSH1 0x40 MLOAD DUP1 PUSH1 0x40 ADD PUSH1 0x40 MSTORE DUP1 PUSH1 0x7 DUP2 MSTORE PUSH1 0x20 ADD PUSH32 0x4558504C4F524500000000000000000000000000000000000000000000000000 DUP2 MSTORE POP DUP2 MSTORE PUSH1 0x20 ADD PUSH1 0x40 MLOAD DUP1 PUSH1 0x40 ADD PUSH1 0x40 MSTORE DUP1 PUSH1 0x3 DUP2 MSTORE PUSH1 0x20 ADD PUSH32 0x4541540000000000000000000000000000000000000000000000000000000000 DUP2 MSTORE POP DUP2 MSTORE PUSH1 0x20 ADD PUSH1 0x40 MLOAD DUP1 PUSH1 0x40 ADD PUSH1 0x40 MSTORE DUP1 PUSH1 0x5 DUP2 MSTORE PUSH1 0x20 ADD PUSH32 0x5441535445000000000000000000000000000000000000000000000000000000 DUP2 MSTORE POP DUP2 MSTORE PUSH1 0x20 ADD PUSH1 0x40 MLOAD DUP1 PUSH1 0x40 ADD PUSH1 0x40 MSTORE DUP1 PUSH1 0x5 DUP2 MSTORE PUSH1 0x20 ADD PUSH32 0x534D454C4C000000000000000000000000000000000000000000000000000000 DUP2 MSTORE POP DUP2 MSTORE PUSH1 0x20 ADD PUSH1 0x40 MLOAD DUP1 PUSH1 0x40 ADD PUSH1 0x40 MSTORE DUP1 PUSH1 0x3 DUP2 MSTORE PUSH1 0x20 ADD PUSH32 0x52554E0000000000000000000000000000000000000000000000000000000000 DUP2 MSTORE POP DUP2 MSTORE PUSH1 0x20 ADD PUSH1 0x40 MLOAD DUP1 PUSH1 0x40 ADD PUSH1 0x40 MSTORE DUP1 PUSH1 0x2 DUP2 MSTORE PUSH1 0x20 ADD PUSH32 0x4245000000000000000000000000000000000000000000000000000000000000 DUP2 MSTORE POP DUP2 MSTORE PUSH1 0x20 ADD PUSH1 0x40 MLOAD DUP1 PUSH1 0x40 ADD PUSH1 0x40 MSTORE DUP1 PUSH1 0x7 DUP2 MSTORE PUSH1 0x20 ADD PUSH32 0x4D45414E44455200000000000000000000000000000000000000000000000000 DUP2 MSTORE POP DUP2 MSTORE PUSH1 0x20 ADD PUSH1 0x40 MLOAD DUP1 PUSH1 0x40 ADD PUSH1 0x40 MSTORE DUP1 PUSH1 0x4 DUP2 MSTORE PUSH1 0x20 ADD PUSH32 0x57414C4B00000000000000000000000000000000000000000000000000000000 DUP2 MSTORE POP DUP2 MSTORE PUSH1 0x20 ADD PUSH1 0x40 MLOAD DUP1 PUSH1 0x40 ADD PUSH1 0x40 MSTORE DUP1 PUSH1 0x5 DUP2 MSTORE PUSH1 0x20 ADD PUSH32 0x4C45415645000000000000000000000000000000000000000000000000000000 DUP2 MSTORE POP DUP2 MSTORE PUSH1 0x20 ADD PUSH1 0x40 MLOAD DUP1 PUSH1 0x40 ADD PUSH1 0x40 MSTORE DUP1 PUSH1 0x4 DUP2 MSTORE PUSH1 0x20 ADD PUSH32 0x4C4F564500000000000000000000000000000000000000000000000000000000 DUP2 MSTORE POP DUP2 MSTORE PUSH1 0x20 ADD PUSH1 0x40 MLOAD DUP1 PUSH1 0x40 ADD PUSH1 0x40 MSTORE DUP1 PUSH1 0x9 DUP2 MSTORE PUSH1 0x20 ADD PUSH32 0x52454D494E495343450000000000000000000000000000000000000000000000 DUP2 MSTORE POP DUP2 MSTORE PUSH1 0x20 ADD PUSH1 0x40 MLOAD DUP1 PUSH1 0x40 ADD PUSH1 0x40 MSTORE DUP1 PUSH1 0x4 DUP2 MSTORE PUSH1 0x20 ADD PUSH32 0x4749564500000000000000000000000000000000000000000000000000000000 DUP2 MSTORE POP DUP2 MSTORE PUSH1 0x20 ADD PUSH1 0x40 MLOAD DUP1 PUSH1 0x40 ADD PUSH1 0x40 MSTORE DUP1 PUSH1 0x6 DUP2 MSTORE PUSH1 0x20 ADD PUSH32 0x415343454E440000000000000000000000000000000000000000000000000000 DUP2 MSTORE POP DUP2 MSTORE PUSH1 0x20 ADD PUSH1 0x40 MLOAD DUP1 PUSH1 0x40 ADD PUSH1 0x40 MSTORE DUP1 PUSH1 0x4 DUP2 MSTORE PUSH1 0x20 ADD PUSH32 0x4D45455400000000000000000000000000000000000000000000000000000000 DUP2 MSTORE POP DUP2 MSTORE PUSH1 0x20 ADD PUSH1 0x40 MLOAD DUP1 PUSH1 0x40 ADD PUSH1 0x40 MSTORE DUP1 PUSH1 0x5 DUP2 MSTORE PUSH1 0x20 ADD PUSH32 0x4C4541524E000000000000000000000000000000000000000000000000000000 DUP2 MSTORE POP DUP2 MSTORE PUSH1 0x20 ADD PUSH1 0x40 MLOAD DUP1 PUSH1 0x40 ADD PUSH1 0x40 MSTORE DUP1 PUSH1 0x9 DUP2 MSTORE PUSH1 0x20 ADD PUSH32 0x454E434F4D504153530000000000000000000000000000000000000000000000 DUP2 MSTORE POP DUP2 MSTORE PUSH1 0x20 ADD PUSH1 0x40 MLOAD DUP1 PUSH1 0x40 ADD PUSH1 0x40 MSTORE DUP1 PUSH1 0x8 DUP2 MSTORE PUSH1 0x20 ADD PUSH32 0x4D45444954415445000000000000000000000000000000000000000000000000 DUP2 MSTORE POP DUP2 MSTORE PUSH1 0x20 ADD PUSH1 0x40 MLOAD DUP1 PUSH1 0x40 ADD PUSH1 0x40 MSTORE DUP1 PUSH1 0x4 DUP2 MSTORE PUSH1 0x20 ADD PUSH32 0x46494E4400000000000000000000000000000000000000000000000000000000 DUP2 MSTORE POP DUP2 MSTORE PUSH1 0x20 ADD PUSH1 0x40 MLOAD DUP1 PUSH1 0x40 ADD PUSH1 0x40 MSTORE DUP1 PUSH1 0x4 DUP2 MSTORE PUSH1 0x20 ADD PUSH32 0x5345454B00000000000000000000000000000000000000000000000000000000 DUP2 MSTORE POP DUP2 MSTORE PUSH1 0x20 ADD PUSH1 0x40 MLOAD DUP1 PUSH1 0x40 ADD PUSH1 0x40 MSTORE DUP1 PUSH1 0x5 DUP2 MSTORE PUSH1 0x20 ADD PUSH32 0x4C41554748000000000000000000000000000000000000000000000000000000 DUP2 MSTORE POP DUP2 MSTORE PUSH1 0x20 ADD PUSH1 0x40 MLOAD DUP1 PUSH1 0x40 ADD PUSH1 0x40 MSTORE DUP1 PUSH1 0x6 DUP2 MSTORE PUSH1 0x20 ADD PUSH32 0x4C495354454E0000000000000000000000000000000000000000000000000000 DUP2 MSTORE POP DUP2 MSTORE PUSH1 0x20 ADD PUSH1 0x40 MLOAD DUP1 PUSH1 0x40 ADD PUSH1 0x40 MSTORE DUP1 PUSH1 0x4 DUP2 MSTORE PUSH1 0x20 ADD PUSH32 0x4645454C00000000000000000000000000000000000000000000000000000000 DUP2 MSTORE POP DUP2 MSTORE PUSH1 0x20 ADD PUSH1 0x40 MLOAD DUP1 PUSH1 0x40 ADD PUSH1 0x40 MSTORE DUP1 PUSH1 0x5 DUP2 MSTORE PUSH1 0x20 ADD PUSH32 0x544F554348000000000000000000000000000000000000000000000000000000 DUP2 MSTORE POP DUP2 MSTORE PUSH1 0x20 ADD PUSH1 0x40 MLOAD DUP1 PUSH1 0x40 ADD PUSH1 0x40 MSTORE DUP1 PUSH1 0x7 DUP2 MSTORE PUSH1 0x20 ADD PUSH32 0x464F524749564500000000000000000000000000000000000000000000000000 DUP2 MSTORE POP DUP2 MSTORE PUSH1 0x20 ADD PUSH1 0x40 MLOAD DUP1 PUSH1 0x40 ADD PUSH1 0x40 MSTORE DUP1 PUSH1 0x5 DUP2 MSTORE PUSH1 0x20 ADD PUSH32 0x41544F4E45000000000000000000000000000000000000000000000000000000 DUP2 MSTORE POP DUP2 MSTORE PUSH1 0x20 ADD PUSH1 0x40 MLOAD DUP1 PUSH1 0x40 ADD PUSH1 0x40 MSTORE DUP1 PUSH1 0x6 DUP2 MSTORE PUSH1 0x20 ADD PUSH32 0x4143434550540000000000000000000000000000000000000000000000000000 DUP2 MSTORE POP DUP2 MSTORE PUSH1 0x20 ADD PUSH1 0x40 MLOAD DUP1 PUSH1 0x40 ADD PUSH1 0x40 MSTORE DUP1 PUSH1 0x4 DUP2 MSTORE PUSH1 0x20 ADD PUSH32 0x504C415900000000000000000000000000000000000000000000000000000000 DUP2 MSTORE POP DUP2 MSTORE PUSH1 0x20 ADD PUSH1 0x40 MLOAD DUP1 PUSH1 0x40 ADD PUSH1 0x40 MSTORE DUP1 PUSH1 0x4 DUP2 MSTORE PUSH1 0x20 ADD PUSH32 0x53494E4700000000000000000000000000000000000000000000000000000000 DUP2 MSTORE POP DUP2 MSTORE PUSH1 0x20 ADD PUSH1 0x40 MLOAD DUP1 PUSH1 0x40 ADD PUSH1 0x40 MSTORE DUP1 PUSH1 0x5 DUP2 MSTORE PUSH1 0x20 ADD PUSH32 0x4452495645000000000000000000000000000000000000000000000000000000 DUP2 MSTORE POP DUP2 MSTORE PUSH1 0x20 ADD PUSH1 0x40 MLOAD DUP1 PUSH1 0x40 ADD PUSH1 0x40 MSTORE DUP1 PUSH1 0x5 DUP2 MSTORE PUSH1 0x20 ADD PUSH32 0x434C494D42000000000000000000000000000000000000000000000000000000 DUP2 MSTORE POP DUP2 MSTORE PUSH1 0x20 ADD PUSH1 0x40 MLOAD DUP1 PUSH1 0x40 ADD PUSH1 0x40 MSTORE DUP1 PUSH1 0x5 DUP2 MSTORE PUSH1 0x20 ADD PUSH32 0x5041494E54000000000000000000000000000000000000000000000000000000 DUP2 MSTORE POP DUP2 MSTORE PUSH1 0x20 ADD PUSH1 0x40 MLOAD DUP1 PUSH1 0x40 ADD PUSH1 0x40 MSTORE DUP1 PUSH1 0x4 DUP2 MSTORE PUSH1 0x20 ADD PUSH32 0x434F444500000000000000000000000000000000000000000000000000000000 DUP2 MSTORE POP DUP2 MSTORE PUSH1 0x20 ADD PUSH1 0x40 MLOAD DUP1 PUSH1 0x40 ADD PUSH1 0x40 MSTORE DUP1 PUSH1 0x6 DUP2 MSTORE PUSH1 0x20 ADD PUSH32 0x504F4E4445520000000000000000000000000000000000000000000000000000 DUP2 MSTORE POP DUP2 MSTORE PUSH1 0x20 ADD PUSH1 0x40 MLOAD DUP1 PUSH1 0x40 ADD PUSH1 0x40 MSTORE DUP1 PUSH1 0x5 DUP2 MSTORE PUSH1 0x20 ADD PUSH32 0x534C454550000000000000000000000000000000000000000000000000000000 DUP2 MSTORE POP DUP2 MSTORE PUSH1 0x20 ADD PUSH1 0x40 MLOAD DUP1 PUSH1 0x40 ADD PUSH1 0x40 MSTORE DUP1 PUSH1 0x3 DUP2 MSTORE PUSH1 0x20 ADD PUSH32 0x464C590000000000000000000000000000000000000000000000000000000000 DUP2 MSTORE POP DUP2 MSTORE PUSH1 0x20 ADD PUSH1 0x40 MLOAD DUP1 PUSH1 0x40 ADD PUSH1 0x40 MSTORE DUP1 PUSH1 0x6 DUP2 MSTORE PUSH1 0x20 ADD PUSH32 0x4352454154450000000000000000000000000000000000000000000000000000 DUP2 MSTORE POP DUP2 MSTORE PUSH1 0x20 ADD PUSH1 0x40 MLOAD DUP1 PUSH1 0x40 ADD PUSH1 0x40 MSTORE DUP1 PUSH1 0x5 DUP2 MSTORE PUSH1 0x20 ADD PUSH32 0x5752495445000000000000000000000000000000000000000000000000000000 DUP2 MSTORE POP DUP2 MSTORE PUSH1 0x20 ADD PUSH1 0x40 MLOAD DUP1 PUSH1 0x40 ADD PUSH1 0x40 MSTORE DUP1 PUSH1 0x6 DUP2 MSTORE PUSH1 0x20 ADD PUSH32 0x4449524543540000000000000000000000000000000000000000000000000000 DUP2 MSTORE POP DUP2 MSTORE PUSH1 0x20 ADD PUSH1 0x40 MLOAD DUP1 PUSH1 0x40 ADD PUSH1 0x40 MSTORE DUP1 PUSH1 0x6 DUP2 MSTORE PUSH1 0x20 ADD PUSH32 0x4553434150450000000000000000000000000000000000000000000000000000 DUP2 MSTORE POP DUP2 MSTORE PUSH1 0x20 ADD PUSH1 0x40 MLOAD DUP1 PUSH1 0x40 ADD PUSH1 0x40 MSTORE DUP1 PUSH1 0x4 DUP2 MSTORE PUSH1 0x20 ADD PUSH32 0x46414C4C00000000000000000000000000000000000000000000000000000000 DUP2 MSTORE POP DUP2 MSTORE PUSH1 0x20 ADD PUSH1 0x40 MLOAD DUP1 PUSH1 0x40 ADD PUSH1 0x40 MSTORE DUP1 PUSH1 0x8 DUP2 MSTORE PUSH1 0x20 ADD PUSH32 0x464C4F5552495348000000000000000000000000000000000000000000000000 DUP2 MSTORE POP DUP2 MSTORE PUSH1 0x20 ADD PUSH1 0x40 MLOAD DUP1 PUSH1 0x40 ADD PUSH1 0x40 MSTORE DUP1 PUSH1 0x3 DUP2 MSTORE PUSH1 0x20 ADD PUSH32 0x4A414D0000000000000000000000000000000000000000000000000000000000 DUP2 MSTORE POP DUP2 MSTORE PUSH1 0x20 ADD PUSH1 0x40 MLOAD DUP1 PUSH1 0x40 ADD PUSH1 0x40 MSTORE DUP1 PUSH1 0x9 DUP2 MSTORE PUSH1 0x20 ADD PUSH32 0x494D50524F564953450000000000000000000000000000000000000000000000 DUP2 MSTORE POP DUP2 MSTORE PUSH1 0x20 ADD PUSH1 0x40 MLOAD DUP1 PUSH1 0x40 ADD PUSH1 0x40 MSTORE DUP1 PUSH1 0x4 DUP2 MSTORE PUSH1 0x20 ADD PUSH32 0x4A554D5000000000000000000000000000000000000000000000000000000000 DUP2 MSTORE POP DUP2 MSTORE PUSH1 0x20 ADD PUSH1 0x40 MLOAD DUP1 PUSH1 0x40 ADD PUSH1 0x40 MSTORE DUP1 PUSH1 0x5 DUP2 MSTORE PUSH1 0x20 ADD PUSH32 0x5452454154000000000000000000000000000000000000000000000000000000 DUP2 MSTORE POP DUP2 MSTORE PUSH1 0x20 ADD PUSH1 0x40 MLOAD DUP1 PUSH1 0x40 ADD PUSH1 0x40 MSTORE DUP1 PUSH1 0x4 DUP2 MSTORE PUSH1 0x20 ADD PUSH32 0x4749465400000000000000000000000000000000000000000000000000000000 DUP2 MSTORE POP DUP2 MSTORE PUSH1 0x20 ADD PUSH1 0x40 MLOAD DUP1 PUSH1 0x40 ADD PUSH1 0x40 MSTORE DUP1 PUSH1 0x4 DUP2 MSTORE PUSH1 0x20 ADD PUSH32 0x4558495400000000000000000000000000000000000000000000000000000000 DUP2 MSTORE POP DUP2 MSTORE PUSH1 0x20 ADD PUSH1 0x40 MLOAD DUP1 PUSH1 0x40 ADD PUSH1 0x40 MSTORE DUP1 PUSH1 0x3 DUP2 MSTORE PUSH1 0x20 ADD PUSH32 0x4D49580000000000000000000000000000000000000000000000000000000000 DUP2 MSTORE POP DUP2 MSTORE PUSH1 0x20 ADD PUSH1 0x40 MLOAD DUP1 PUSH1 0x40 ADD PUSH1 0x40 MSTORE DUP1 PUSH1 0x4 DUP2 MSTORE PUSH1 0x20 ADD PUSH32 0x5341494C00000000000000000000000000000000000000000000000000000000 DUP2 MSTORE POP DUP2 MSTORE PUSH1 0x20 ADD PUSH1 0x40 MLOAD DUP1 PUSH1 0x40 ADD PUSH1 0x40 MSTORE DUP1 PUSH1 0x4 DUP2 MSTORE PUSH1 0x20 ADD PUSH32 0x4D414B4500000000000000000000000000000000000000000000000000000000 DUP2 MSTORE POP DUP2 MSTORE PUSH1 0x20 ADD PUSH1 0x40 MLOAD DUP1 PUSH1 0x40 ADD PUSH1 0x40 MSTORE DUP1 PUSH1 0x5 DUP2 MSTORE PUSH1 0x20 ADD PUSH32 0x534F4C5645000000000000000000000000000000000000000000000000000000 DUP2 MSTORE POP DUP2 MSTORE PUSH1 0x20 ADD PUSH1 0x40 MLOAD DUP1 PUSH1 0x40 ADD PUSH1 0x40 MSTORE DUP1 PUSH1 0x6 DUP2 MSTORE PUSH1 0x20 ADD PUSH32 0x5345415243480000000000000000000000000000000000000000000000000000 DUP2 MSTORE POP DUP2 MSTORE PUSH1 0x20 ADD PUSH1 0x40 MLOAD DUP1 PUSH1 0x40 ADD PUSH1 0x40 MSTORE DUP1 PUSH1 0x5 DUP2 MSTORE PUSH1 0x20 ADD PUSH32 0x5448494E4B000000000000000000000000000000000000000000000000000000 DUP2 MSTORE POP DUP2 MSTORE PUSH1 0x20 ADD PUSH1 0x40 MLOAD DUP1 PUSH1 0x40 ADD PUSH1 0x40 MSTORE DUP1 PUSH1 0x8 DUP2 MSTORE PUSH1 0x20 ADD PUSH32 0x5245534541524348000000000000000000000000000000000000000000000000 DUP2 MSTORE POP DUP2 MSTORE PUSH1 0x20 ADD PUSH1 0x40 MLOAD DUP1 PUSH1 0x40 ADD PUSH1 0x40 MSTORE DUP1 PUSH1 0x7 DUP2 MSTORE PUSH1 0x20 ADD PUSH32 0x414456414E434500000000000000000000000000000000000000000000000000 DUP2 MSTORE POP DUP2 MSTORE PUSH1 0x20 ADD PUSH1 0x40 MLOAD DUP1 PUSH1 0x40 ADD PUSH1 0x40 MSTORE DUP1 PUSH1 0x6 DUP2 MSTORE PUSH1 0x20 ADD PUSH32 0x524541534F4E0000000000000000000000000000000000000000000000000000 DUP2 MSTORE POP DUP2 MSTORE POP PUSH1 0x4D SWAP1 PUSH1 0x40 PUSH3 0x1EF2 SWAP3 SWAP2 SWAP1 PUSH3 0x200E JUMP JUMPDEST POP CALLVALUE DUP1 ISZERO PUSH3 0x1F00 JUMPI PUSH1 0x0 DUP1 REVERT JUMPDEST POP PUSH1 0x40 MLOAD PUSH3 0x84A9 CODESIZE SUB DUP1 PUSH3 0x84A9 DUP4 CODECOPY DUP2 DUP2 ADD PUSH1 0x40 MSTORE DUP2 ADD SWAP1 PUSH3 0x1F26 SWAP2 SWAP1 PUSH3 0x22F5 JUMP JUMPDEST DUP5 DUP5 DUP2 PUSH1 0x0 SWAP1 DUP1 MLOAD SWAP1 PUSH1 0x20 ADD SWAP1 PUSH3 0x1F40 SWAP3 SWAP2 SWAP1 PUSH3 0x2068 JUMP JUMPDEST POP DUP1 PUSH1 0x1 SWAP1 DUP1 MLOAD SWAP1 PUSH1 0x20 ADD SWAP1 PUSH3 0x1F59 SWAP3 SWAP2 SWAP1 PUSH3 0x2068 JUMP JUMPDEST POP POP POP DUP3 PUSH1 0x7 PUSH1 0x0 PUSH2 0x100 EXP DUP2 SLOAD DUP2 PUSH20 0xFFFFFFFFFFFFFFFFFFFFFFFFFFFFFFFFFFFFFFFF MUL NOT AND SWAP1 DUP4 PUSH20 0xFFFFFFFFFFFFFFFFFFFFFFFFFFFFFFFFFFFFFFFF AND MUL OR SWAP1 SSTORE POP DUP2 PUSH1 0xA DUP2 SWAP1 SSTORE POP DUP1 PUSH1 0xB DUP2 SWAP1 SSTORE POP POP POP POP POP POP PUSH3 0x258B JUMP JUMPDEST DUP3 PUSH1 0x10 PUSH1 0x4 MUL DUP2 ADD SWAP3 DUP3 ISZERO PUSH3 0x1FFB JUMPI SWAP2 PUSH1 0x20 MUL DUP3 ADD JUMPDEST DUP3 DUP2 GT ISZERO PUSH3 0x1FFA JUMPI DUP3 MLOAD DUP3 SWAP1 PUSH1 0x4 PUSH3 0x1FE9 SWAP3 SWAP2 SWAP1 PUSH3 0x20F9 JUMP JUMPDEST POP SWAP2 PUSH1 0x20 ADD SWAP2 SWAP1 PUSH1 0x4 ADD SWAP1 PUSH3 0x1FCD JUMP JUMPDEST JUMPDEST POP SWAP1 POP PUSH3 0x200A SWAP2 SWAP1 PUSH3 0x2153 JUMP JUMPDEST POP SWAP1 JUMP JUMPDEST DUP3 PUSH1 0x40 DUP2 ADD SWAP3 DUP3 ISZERO PUSH3 0x2055 JUMPI SWAP2 PUSH1 0x20 MUL DUP3 ADD JUMPDEST DUP3 DUP2 GT ISZERO PUSH3 0x2054 JUMPI DUP3 MLOAD DUP3 SWAP1 DUP1 MLOAD SWAP1 PUSH1 0x20 ADD SWAP1 PUSH3 0x2043 SWAP3 SWAP2 SWAP1 PUSH3 0x2068 JUMP JUMPDEST POP SWAP2 PUSH1 0x20 ADD SWAP2 SWAP1 PUSH1 0x1 ADD SWAP1 PUSH3 0x2022 JUMP JUMPDEST JUMPDEST POP SWAP1 POP PUSH3 0x2064 SWAP2 SWAP1 PUSH3 0x217B JUMP JUMPDEST POP SWAP1 JUMP JUMPDEST DUP3 DUP1 SLOAD PUSH3 0x2076 SWAP1 PUSH3 0x247C JUMP JUMPDEST SWAP1 PUSH1 0x0 MSTORE PUSH1 0x20 PUSH1 0x0 KECCAK256 SWAP1 PUSH1 0x1F ADD PUSH1 0x20 SWAP1 DIV DUP2 ADD SWAP3 DUP3 PUSH3 0x209A JUMPI PUSH1 0x0 DUP6 SSTORE PUSH3 0x20E6 JUMP JUMPDEST DUP3 PUSH1 0x1F LT PUSH3 0x20B5 JUMPI DUP1 MLOAD PUSH1 0xFF NOT AND DUP4 DUP1 ADD OR DUP6 SSTORE PUSH3 0x20E6 JUMP JUMPDEST DUP3 DUP1 ADD PUSH1 0x1 ADD DUP6 SSTORE DUP3 ISZERO PUSH3 0x20E6 JUMPI SWAP2 DUP3 ADD JUMPDEST DUP3 DUP2 GT ISZERO PUSH3 0x20E5 JUMPI DUP3 MLOAD DUP3 SSTORE SWAP2 PUSH1 0x20 ADD SWAP2 SWAP1 PUSH1 0x1 ADD SWAP1 PUSH3 0x20C8 JUMP JUMPDEST JUMPDEST POP SWAP1 POP PUSH3 0x20F5 SWAP2 SWAP1 PUSH3 0x21A3 JUMP JUMPDEST POP SWAP1 JUMP JUMPDEST DUP3 PUSH1 0x4 DUP2 ADD SWAP3 DUP3 ISZERO PUSH3 0x2140 JUMPI SWAP2 PUSH1 0x20 MUL DUP3 ADD JUMPDEST DUP3 DUP2 GT ISZERO PUSH3 0x213F JUMPI DUP3 MLOAD DUP3 SWAP1 DUP1 MLOAD SWAP1 PUSH1 0x20 ADD SWAP1 PUSH3 0x212E SWAP3 SWAP2 SWAP1 PUSH3 0x2068 JUMP JUMPDEST POP SWAP2 PUSH1 0x20 ADD SWAP2 SWAP1 PUSH1 0x1 ADD SWAP1 PUSH3 0x210D JUMP JUMPDEST JUMPDEST POP SWAP1 POP PUSH3 0x214F SWAP2 SWAP1 PUSH3 0x217B JUMP JUMPDEST POP SWAP1 JUMP JUMPDEST JUMPDEST DUP1 DUP3 GT ISZERO PUSH3 0x2177 JUMPI PUSH1 0x0 DUP2 DUP2 PUSH3 0x216D SWAP2 SWAP1 PUSH3 0x21C2 JUMP JUMPDEST POP PUSH1 0x4 ADD PUSH3 0x2154 JUMP JUMPDEST POP SWAP1 JUMP JUMPDEST JUMPDEST DUP1 DUP3 GT ISZERO PUSH3 0x219F JUMPI PUSH1 0x0 DUP2 DUP2 PUSH3 0x2195 SWAP2 SWAP1 PUSH3 0x220F JUMP JUMPDEST POP PUSH1 0x1 ADD PUSH3 0x217C JUMP JUMPDEST POP SWAP1 JUMP JUMPDEST JUMPDEST DUP1 DUP3 GT ISZERO PUSH3 0x21BE JUMPI PUSH1 0x0 DUP2 PUSH1 0x0 SWAP1 SSTORE POP PUSH1 0x1 ADD PUSH3 0x21A4 JUMP JUMPDEST POP SWAP1 JUMP JUMPDEST POP PUSH1 0x0 DUP2 DUP2 PUSH3 0x21D3 SWAP2 SWAP1 PUSH3 0x220F JUMP JUMPDEST POP PUSH1 0x1 ADD PUSH1 0x0 DUP2 DUP2 PUSH3 0x21E7 SWAP2 SWAP1 PUSH3 0x220F JUMP JUMPDEST POP PUSH1 0x1 ADD PUSH1 0x0 DUP2 DUP2 PUSH3 0x21FB SWAP2 SWAP1 PUSH3 0x220F JUMP JUMPDEST POP PUSH1 0x1 ADD PUSH1 0x0 PUSH3 0x220D SWAP2 SWAP1 PUSH3 0x220F JUMP JUMPDEST JUMP JUMPDEST POP DUP1 SLOAD PUSH3 0x221D SWAP1 PUSH3 0x247C JUMP JUMPDEST PUSH1 0x0 DUP3 SSTORE DUP1 PUSH1 0x1F LT PUSH3 0x2231 JUMPI POP PUSH3 0x2252 JUMP JUMPDEST PUSH1 0x1F ADD PUSH1 0x20 SWAP1 DIV SWAP1 PUSH1 0x0 MSTORE PUSH1 0x20 PUSH1 0x0 KECCAK256 SWAP1 DUP2 ADD SWAP1 PUSH3 0x2251 SWAP2 SWAP1 PUSH3 0x21A3 JUMP JUMPDEST JUMPDEST POP JUMP JUMPDEST PUSH1 0x0 PUSH3 0x226C PUSH3 0x2266 DUP5 PUSH3 0x23D2 JUMP JUMPDEST PUSH3 0x23A9 JUMP JUMPDEST SWAP1 POP DUP3 DUP2 MSTORE PUSH1 0x20 DUP2 ADD DUP5 DUP5 DUP5 ADD GT ISZERO PUSH3 0x2285 JUMPI PUSH1 0x0 DUP1 REVERT JUMPDEST PUSH3 0x2292 DUP5 DUP3 DUP6 PUSH3 0x2446 JUMP JUMPDEST POP SWAP4 SWAP3 POP POP POP JUMP JUMPDEST PUSH1 0x0 DUP2 MLOAD SWAP1 POP PUSH3 0x22AB DUP2 PUSH3 0x2557 JUMP JUMPDEST SWAP3 SWAP2 POP POP JUMP JUMPDEST PUSH1 0x0 DUP3 PUSH1 0x1F DUP4 ADD SLT PUSH3 0x22C3 JUMPI PUSH1 0x0 DUP1 REVERT JUMPDEST DUP2 MLOAD PUSH3 0x22D5 DUP5 DUP3 PUSH1 0x20 DUP7 ADD PUSH3 0x2255 JUMP JUMPDEST SWAP2 POP POP SWAP3 SWAP2 POP POP JUMP JUMPDEST PUSH1 0x0 DUP2 MLOAD SWAP1 POP PUSH3 0x22EF DUP2 PUSH3 0x2571 JUMP JUMPDEST SWAP3 SWAP2 POP POP JUMP JUMPDEST PUSH1 0x0 DUP1 PUSH1 0x0 DUP1 PUSH1 0x0 PUSH1 0xA0 DUP7 DUP9 SUB SLT ISZERO PUSH3 0x230E JUMPI PUSH1 0x0 DUP1 REVERT JUMPDEST PUSH1 0x0 DUP7 ADD MLOAD PUSH8 0xFFFFFFFFFFFFFFFF DUP2 GT ISZERO PUSH3 0x2329 JUMPI PUSH1 0x0 DUP1 REVERT JUMPDEST PUSH3 0x2337 DUP9 DUP3 DUP10 ADD PUSH3 0x22B1 JUMP JUMPDEST SWAP6 POP POP PUSH1 0x20 DUP7 ADD MLOAD PUSH8 0xFFFFFFFFFFFFFFFF DUP2 GT ISZERO PUSH3 0x2355 JUMPI PUSH1 0x0 DUP1 REVERT JUMPDEST PUSH3 0x2363 DUP9 DUP3 DUP10 ADD PUSH3 0x22B1 JUMP JUMPDEST SWAP5 POP POP PUSH1 0x40 PUSH3 0x2376 DUP9 DUP3 DUP10 ADD PUSH3 0x229A JUMP JUMPDEST SWAP4 POP POP PUSH1 0x60 PUSH3 0x2389 DUP9 DUP3 DUP10 ADD PUSH3 0x22DE JUMP JUMPDEST SWAP3 POP POP PUSH1 0x80 PUSH3 0x239C DUP9 DUP3 DUP10 ADD PUSH3 0x22DE JUMP JUMPDEST SWAP2 POP POP SWAP3 SWAP6 POP SWAP3 SWAP6 SWAP1 SWAP4 POP JUMP JUMPDEST PUSH1 0x0 PUSH3 0x23B5 PUSH3 0x23C8 JUMP JUMPDEST SWAP1 POP PUSH3 0x23C3 DUP3 DUP3 PUSH3 0x24B2 JUMP JUMPDEST SWAP2 SWAP1 POP JUMP JUMPDEST PUSH1 0x0 PUSH1 0x40 MLOAD SWAP1 POP SWAP1 JUMP JUMPDEST PUSH1 0x0 PUSH8 0xFFFFFFFFFFFFFFFF DUP3 GT ISZERO PUSH3 0x23F0 JUMPI PUSH3 0x23EF PUSH3 0x2517 JUMP JUMPDEST JUMPDEST PUSH3 0x23FB DUP3 PUSH3 0x2546 JUMP JUMPDEST SWAP1 POP PUSH1 0x20 DUP2 ADD SWAP1 POP SWAP2 SWAP1 POP JUMP JUMPDEST PUSH1 0x0 PUSH3 0x2415 DUP3 PUSH3 0x241C JUMP JUMPDEST SWAP1 POP SWAP2 SWAP1 POP JUMP JUMPDEST PUSH1 0x0 PUSH20 0xFFFFFFFFFFFFFFFFFFFFFFFFFFFFFFFFFFFFFFFF DUP3 AND SWAP1 POP SWAP2 SWAP1 POP JUMP JUMPDEST PUSH1 0x0 DUP2 SWAP1 POP SWAP2 SWAP1 POP JUMP JUMPDEST PUSH1 0x0 JUMPDEST DUP4 DUP2 LT ISZERO PUSH3 0x2466 JUMPI DUP1 DUP3 ADD MLOAD DUP2 DUP5 ADD MSTORE PUSH1 0x20 DUP2 ADD SWAP1 POP PUSH3 0x2449 JUMP JUMPDEST DUP4 DUP2 GT ISZERO PUSH3 0x2476 JUMPI PUSH1 0x0 DUP5 DUP5 ADD MSTORE JUMPDEST POP POP POP POP JUMP JUMPDEST PUSH1 0x0 PUSH1 0x2 DUP3 DIV SWAP1 POP PUSH1 0x1 DUP3 AND DUP1 PUSH3 0x2495 JUMPI PUSH1 0x7F DUP3 AND SWAP2 POP JUMPDEST PUSH1 0x20 DUP3 LT DUP2 EQ ISZERO PUSH3 0x24AC JUMPI PUSH3 0x24AB PUSH3 0x24E8 JUMP JUMPDEST JUMPDEST POP SWAP2 SWAP1 POP JUMP JUMPDEST PUSH3 0x24BD DUP3 PUSH3 0x2546 JUMP JUMPDEST DUP2 ADD DUP2 DUP2 LT PUSH8 0xFFFFFFFFFFFFFFFF DUP3 GT OR ISZERO PUSH3 0x24DF JUMPI PUSH3 0x24DE PUSH3 0x2517 JUMP JUMPDEST JUMPDEST DUP1 PUSH1 0x40 MSTORE POP POP POP JUMP JUMPDEST PUSH32 0x4E487B7100000000000000000000000000000000000000000000000000000000 PUSH1 0x0 MSTORE PUSH1 0x22 PUSH1 0x4 MSTORE PUSH1 0x24 PUSH1 0x0 REVERT JUMPDEST PUSH32 0x4E487B7100000000000000000000000000000000000000000000000000000000 PUSH1 0x0 MSTORE PUSH1 0x41 PUSH1 0x4 MSTORE PUSH1 0x24 PUSH1 0x0 REVERT JUMPDEST PUSH1 0x0 PUSH1 0x1F NOT PUSH1 0x1F DUP4 ADD AND SWAP1 POP SWAP2 SWAP1 POP JUMP JUMPDEST PUSH3 0x2562 DUP2 PUSH3 0x2408 JUMP JUMPDEST DUP2 EQ PUSH3 0x256E JUMPI PUSH1 0x0 DUP1 REVERT JUMPDEST POP JUMP JUMPDEST PUSH3 0x257C DUP2 PUSH3 0x243C JUMP JUMPDEST DUP2 EQ PUSH3 0x2588 JUMPI PUSH1 0x0 DUP1 REVERT JUMPDEST POP JUMP JUMPDEST PUSH2 0x5F0E DUP1 PUSH3 0x259B PUSH1 0x0 CODECOPY PUSH1 0x0 RETURN INVALID PUSH1 0x80 PUSH1 0x40 MSTORE PUSH1 0x4 CALLDATASIZE LT PUSH2 0x14B JUMPI PUSH1 0x0 CALLDATALOAD PUSH1 0xE0 SHR DUP1 PUSH4 0x8DA5CB5B GT PUSH2 0xB6 JUMPI DUP1 PUSH4 0xB88D4FDE GT PUSH2 0x6F JUMPI DUP1 PUSH4 0xB88D4FDE EQ PUSH2 0x4CD JUMPI DUP1 PUSH4 0xC24A0F8B EQ PUSH2 0x4F6 JUMPI DUP1 PUSH4 0xC87B56DD EQ PUSH2 0x521 JUMPI DUP1 PUSH4 0xDD014437 EQ PUSH2 0x55E JUMPI DUP1 PUSH4 0xE086E5EC EQ PUSH2 0x57C JUMPI DUP1 PUSH4 0xE985E9C5 EQ PUSH2 0x593 JUMPI PUSH2 0x14B JUMP JUMPDEST DUP1 PUSH4 0x8DA5CB5B EQ PUSH2 0x3BB JUMPI DUP1 PUSH4 0x913E77AD EQ PUSH2 0x3E6 JUMPI DUP1 PUSH4 0x95D89B41 EQ PUSH2 0x411 JUMPI DUP1 PUSH4 0xA22CB465 EQ PUSH2 0x43C JUMPI DUP1 PUSH4 0xA48B3B8F EQ PUSH2 0x465 JUMPI DUP1 PUSH4 0xACD0BDDB EQ PUSH2 0x4A2 JUMPI PUSH2 0x14B JUMP JUMPDEST DUP1 PUSH4 0x42842E0E GT PUSH2 0x108 JUMPI DUP1 PUSH4 0x42842E0E EQ PUSH2 0x272 JUMPI DUP1 PUSH4 0x4B44D812 EQ PUSH2 0x29B JUMPI DUP1 PUSH4 0x57CECD3A EQ PUSH2 0x2D8 JUMPI DUP1 PUSH4 0x6352211E EQ PUSH2 0x303 JUMPI DUP1 PUSH4 0x663B3E22 EQ PUSH2 0x340 JUMPI DUP1 PUSH4 0x70A08231 EQ PUSH2 0x37E JUMPI PUSH2 0x14B JUMP JUMPDEST DUP1 PUSH4 0x1FFC9A7 EQ PUSH2 0x150 JUMPI DUP1 PUSH4 0x6FDDE03 EQ PUSH2 0x18D JUMPI DUP1 PUSH4 0x81812FC EQ PUSH2 0x1B8 JUMPI DUP1 PUSH4 0x95EA7B3 EQ PUSH2 0x1F5 JUMPI DUP1 PUSH4 0xB97BC86 EQ PUSH2 0x21E JUMPI DUP1 PUSH4 0x23B872DD EQ PUSH2 0x249 JUMPI JUMPDEST PUSH1 0x0 DUP1 REVERT JUMPDEST CALLVALUE DUP1 ISZERO PUSH2 0x15C JUMPI PUSH1 0x0 DUP1 REVERT JUMPDEST POP PUSH2 0x177 PUSH1 0x4 DUP1 CALLDATASIZE SUB DUP2 ADD SWAP1 PUSH2 0x172 SWAP2 SWAP1 PUSH2 0x307E JUMP JUMPDEST PUSH2 0x5D0 JUMP JUMPDEST PUSH1 0x40 MLOAD PUSH2 0x184 SWAP2 SWAP1 PUSH2 0x4203 JUMP JUMPDEST PUSH1 0x40 MLOAD DUP1 SWAP2 SUB SWAP1 RETURN JUMPDEST CALLVALUE DUP1 ISZERO PUSH2 0x199 JUMPI PUSH1 0x0 DUP1 REVERT JUMPDEST POP PUSH2 0x1A2 PUSH2 0x6B2 JUMP JUMPDEST PUSH1 0x40 MLOAD PUSH2 0x1AF SWAP2 SWAP1 PUSH2 0x421E JUMP JUMPDEST PUSH1 0x40 MLOAD DUP1 SWAP2 SUB SWAP1 RETURN JUMPDEST CALLVALUE DUP1 ISZERO PUSH2 0x1C4 JUMPI PUSH1 0x0 DUP1 REVERT JUMPDEST POP PUSH2 0x1DF PUSH1 0x4 DUP1 CALLDATASIZE SUB DUP2 ADD SWAP1 PUSH2 0x1DA SWAP2 SWAP1 PUSH2 0x30D0 JUMP JUMPDEST PUSH2 0x744 JUMP JUMPDEST PUSH1 0x40 MLOAD PUSH2 0x1EC SWAP2 SWAP1 PUSH2 0x4181 JUMP JUMPDEST PUSH1 0x40 MLOAD DUP1 SWAP2 SUB SWAP1 RETURN JUMPDEST CALLVALUE DUP1 ISZERO PUSH2 0x201 JUMPI PUSH1 0x0 DUP1 REVERT JUMPDEST POP PUSH2 0x21C PUSH1 0x4 DUP1 CALLDATASIZE SUB DUP2 ADD SWAP1 PUSH2 0x217 SWAP2 SWAP1 PUSH2 0x3042 JUMP JUMPDEST PUSH2 0x7C9 JUMP JUMPDEST STOP JUMPDEST CALLVALUE DUP1 ISZERO PUSH2 0x22A JUMPI PUSH1 0x0 DUP1 REVERT JUMPDEST POP PUSH2 0x233 PUSH2 0x8D3 JUMP JUMPDEST PUSH1 0x40 MLOAD PUSH2 0x240 SWAP2 SWAP1 PUSH2 0x4500 JUMP JUMPDEST PUSH1 0x40 MLOAD DUP1 SWAP2 SUB SWAP1 RETURN JUMPDEST CALLVALUE DUP1 ISZERO PUSH2 0x255 JUMPI PUSH1 0x0 DUP1 REVERT JUMPDEST POP PUSH2 0x270 PUSH1 0x4 DUP1 CALLDATASIZE SUB DUP2 ADD SWAP1 PUSH2 0x26B SWAP2 SWAP1 PUSH2 0x2F3C JUMP JUMPDEST PUSH2 0x8D9 JUMP JUMPDEST STOP JUMPDEST CALLVALUE DUP1 ISZERO PUSH2 0x27E JUMPI PUSH1 0x0 DUP1 REVERT JUMPDEST POP PUSH2 0x299 PUSH1 0x4 DUP1 CALLDATASIZE SUB DUP2 ADD SWAP1 PUSH2 0x294 SWAP2 SWAP1 PUSH2 0x2F3C JUMP JUMPDEST PUSH2 0x932 JUMP JUMPDEST STOP JUMPDEST CALLVALUE DUP1 ISZERO PUSH2 0x2A7 JUMPI PUSH1 0x0 DUP1 REVERT JUMPDEST POP PUSH2 0x2C2 PUSH1 0x4 DUP1 CALLDATASIZE SUB DUP2 ADD SWAP1 PUSH2 0x2BD SWAP2 SWAP1 PUSH2 0x30D0 JUMP JUMPDEST PUSH2 0x952 JUMP JUMPDEST PUSH1 0x40 MLOAD PUSH2 0x2CF SWAP2 SWAP1 PUSH2 0x421E JUMP JUMPDEST PUSH1 0x40 MLOAD DUP1 SWAP2 SUB SWAP1 RETURN JUMPDEST CALLVALUE DUP1 ISZERO PUSH2 0x2E4 JUMPI PUSH1 0x0 DUP1 REVERT JUMPDEST POP PUSH2 0x2ED PUSH2 0xB95 JUMP JUMPDEST PUSH1 0x40 MLOAD PUSH2 0x2FA SWAP2 SWAP1 PUSH2 0x4500 JUMP JUMPDEST PUSH1 0x40 MLOAD DUP1 SWAP2 SUB SWAP1 RETURN JUMPDEST CALLVALUE DUP1 ISZERO PUSH2 0x30F JUMPI PUSH1 0x0 DUP1 REVERT JUMPDEST POP PUSH2 0x32A PUSH1 0x4 DUP1 CALLDATASIZE SUB DUP2 ADD SWAP1 PUSH2 0x325 SWAP2 SWAP1 PUSH2 0x30D0 JUMP JUMPDEST PUSH2 0xB9B JUMP JUMPDEST PUSH1 0x40 MLOAD PUSH2 0x337 SWAP2 SWAP1 PUSH2 0x4181 JUMP JUMPDEST PUSH1 0x40 MLOAD DUP1 SWAP2 SUB SWAP1 RETURN JUMPDEST CALLVALUE DUP1 ISZERO PUSH2 0x34C JUMPI PUSH1 0x0 DUP1 REVERT JUMPDEST POP PUSH2 0x367 PUSH1 0x4 DUP1 CALLDATASIZE SUB DUP2 ADD SWAP1 PUSH2 0x362 SWAP2 SWAP1 PUSH2 0x30D0 JUMP JUMPDEST PUSH2 0xC4D JUMP JUMPDEST PUSH1 0x40 MLOAD PUSH2 0x375 SWAP3 SWAP2 SWAP1 PUSH2 0x451B JUMP JUMPDEST PUSH1 0x40 MLOAD DUP1 SWAP2 SUB SWAP1 RETURN JUMPDEST CALLVALUE DUP1 ISZERO PUSH2 0x38A JUMPI PUSH1 0x0 DUP1 REVERT JUMPDEST POP PUSH2 0x3A5 PUSH1 0x4 DUP1 CALLDATASIZE SUB DUP2 ADD SWAP1 PUSH2 0x3A0 SWAP2 SWAP1 PUSH2 0x2ED7 JUMP JUMPDEST PUSH2 0xC91 JUMP JUMPDEST PUSH1 0x40 MLOAD PUSH2 0x3B2 SWAP2 SWAP1 PUSH2 0x4500 JUMP JUMPDEST PUSH1 0x40 MLOAD DUP1 SWAP2 SUB SWAP1 RETURN JUMPDEST CALLVALUE DUP1 ISZERO PUSH2 0x3C7 JUMPI PUSH1 0x0 DUP1 REVERT JUMPDEST POP PUSH2 0x3D0 PUSH2 0xD49 JUMP JUMPDEST PUSH1 0x40 MLOAD PUSH2 0x3DD SWAP2 SWAP1 PUSH2 0x4181 JUMP JUMPDEST PUSH1 0x40 MLOAD DUP1 SWAP2 SUB SWAP1 RETURN JUMPDEST CALLVALUE DUP1 ISZERO PUSH2 0x3F2 JUMPI PUSH1 0x0 DUP1 REVERT JUMPDEST POP PUSH2 0x3FB PUSH2 0xD6F JUMP JUMPDEST PUSH1 0x40 MLOAD PUSH2 0x408 SWAP2 SWAP1 PUSH2 0x419C JUMP JUMPDEST PUSH1 0x40 MLOAD DUP1 SWAP2 SUB SWAP1 RETURN JUMPDEST CALLVALUE DUP1 ISZERO PUSH2 0x41D JUMPI PUSH1 0x0 DUP1 REVERT JUMPDEST POP PUSH2 0x426 PUSH2 0xD95 JUMP JUMPDEST PUSH1 0x40 MLOAD PUSH2 0x433 SWAP2 SWAP1 PUSH2 0x421E JUMP JUMPDEST PUSH1 0x40 MLOAD DUP1 SWAP2 SUB SWAP1 RETURN JUMPDEST CALLVALUE DUP1 ISZERO PUSH2 0x448 JUMPI PUSH1 0x0 DUP1 REVERT JUMPDEST POP PUSH2 0x463 PUSH1 0x4 DUP1 CALLDATASIZE SUB DUP2 ADD SWAP1 PUSH2 0x45E SWAP2 SWAP1 PUSH2 0x3006 JUMP JUMPDEST PUSH2 0xE27 JUMP JUMPDEST STOP JUMPDEST CALLVALUE DUP1 ISZERO PUSH2 0x471 JUMPI PUSH1 0x0 DUP1 REVERT JUMPDEST POP PUSH2 0x48C PUSH1 0x4 DUP1 CALLDATASIZE SUB DUP2 ADD SWAP1 PUSH2 0x487 SWAP2 SWAP1 PUSH2 0x30D0 JUMP JUMPDEST PUSH2 0xF93 JUMP JUMPDEST PUSH1 0x40 MLOAD PUSH2 0x499 SWAP2 SWAP1 PUSH2 0x421E JUMP JUMPDEST PUSH1 0x40 MLOAD DUP1 SWAP2 SUB SWAP1 RETURN JUMPDEST CALLVALUE DUP1 ISZERO PUSH2 0x4AE JUMPI PUSH1 0x0 DUP1 REVERT JUMPDEST POP PUSH2 0x4B7 PUSH2 0xFAD JUMP JUMPDEST PUSH1 0x40 MLOAD PUSH2 0x4C4 SWAP2 SWAP1 PUSH2 0x4500 JUMP JUMPDEST PUSH1 0x40 MLOAD DUP1 SWAP2 SUB SWAP1 RETURN JUMPDEST CALLVALUE DUP1 ISZERO PUSH2 0x4D9 JUMPI PUSH1 0x0 DUP1 REVERT JUMPDEST POP PUSH2 0x4F4 PUSH1 0x4 DUP1 CALLDATASIZE SUB DUP2 ADD SWAP1 PUSH2 0x4EF SWAP2 SWAP1 PUSH2 0x2F8B JUMP JUMPDEST PUSH2 0xFB3 JUMP JUMPDEST STOP JUMPDEST CALLVALUE DUP1 ISZERO PUSH2 0x502 JUMPI PUSH1 0x0 DUP1 REVERT JUMPDEST POP PUSH2 0x50B PUSH2 0x100E JUMP JUMPDEST PUSH1 0x40 MLOAD PUSH2 0x518 SWAP2 SWAP1 PUSH2 0x4500 JUMP JUMPDEST PUSH1 0x40 MLOAD DUP1 SWAP2 SUB SWAP1 RETURN JUMPDEST CALLVALUE DUP1 ISZERO PUSH2 0x52D JUMPI PUSH1 0x0 DUP1 REVERT JUMPDEST POP PUSH2 0x548 PUSH1 0x4 DUP1 CALLDATASIZE SUB DUP2 ADD SWAP1 PUSH2 0x543 SWAP2 SWAP1 PUSH2 0x30D0 JUMP JUMPDEST PUSH2 0x1014 JUMP JUMPDEST PUSH1 0x40 MLOAD PUSH2 0x555 SWAP2 SWAP1 PUSH2 0x421E JUMP JUMPDEST PUSH1 0x40 MLOAD DUP1 SWAP2 SUB SWAP1 RETURN JUMPDEST PUSH2 0x566 PUSH2 0x121C JUMP JUMPDEST PUSH1 0x40 MLOAD PUSH2 0x573 SWAP2 SWAP1 PUSH2 0x4500 JUMP JUMPDEST PUSH1 0x40 MLOAD DUP1 SWAP2 SUB SWAP1 RETURN JUMPDEST CALLVALUE DUP1 ISZERO PUSH2 0x588 JUMPI PUSH1 0x0 DUP1 REVERT JUMPDEST POP PUSH2 0x591 PUSH2 0x147A JUMP JUMPDEST STOP JUMPDEST CALLVALUE DUP1 ISZERO PUSH2 0x59F JUMPI PUSH1 0x0 DUP1 REVERT JUMPDEST POP PUSH2 0x5BA PUSH1 0x4 DUP1 CALLDATASIZE SUB DUP2 ADD SWAP1 PUSH2 0x5B5 SWAP2 SWAP1 PUSH2 0x2F00 JUMP JUMPDEST PUSH2 0x1575 JUMP JUMPDEST PUSH1 0x40 MLOAD PUSH2 0x5C7 SWAP2 SWAP1 PUSH2 0x4203 JUMP JUMPDEST PUSH1 0x40 MLOAD DUP1 SWAP2 SUB SWAP1 RETURN JUMPDEST PUSH1 0x0 PUSH32 0x80AC58CD00000000000000000000000000000000000000000000000000000000 PUSH28 0xFFFFFFFFFFFFFFFFFFFFFFFFFFFFFFFFFFFFFFFFFFFFFFFFFFFFFFFF NOT AND DUP3 PUSH28 0xFFFFFFFFFFFFFFFFFFFFFFFFFFFFFFFFFFFFFFFFFFFFFFFFFFFFFFFF NOT AND EQ DUP1 PUSH2 0x69B JUMPI POP PUSH32 0x5B5E139F00000000000000000000000000000000000000000000000000000000 PUSH28 0xFFFFFFFFFFFFFFFFFFFFFFFFFFFFFFFFFFFFFFFFFFFFFFFFFFFFFFFF NOT AND DUP3 PUSH28 0xFFFFFFFFFFFFFFFFFFFFFFFFFFFFFFFFFFFFFFFFFFFFFFFFFFFFFFFF NOT AND EQ JUMPDEST DUP1 PUSH2 0x6AB JUMPI POP PUSH2 0x6AA DUP3 PUSH2 0x1609 JUMP JUMPDEST JUMPDEST SWAP1 POP SWAP2 SWAP1 POP JUMP JUMPDEST PUSH1 0x60 PUSH1 0x0 DUP1 SLOAD PUSH2 0x6C1 SWAP1 PUSH2 0x4878 JUMP JUMPDEST DUP1 PUSH1 0x1F ADD PUSH1 0x20 DUP1 SWAP2 DIV MUL PUSH1 0x20 ADD PUSH1 0x40 MLOAD SWAP1 DUP2 ADD PUSH1 0x40 MSTORE DUP1 SWAP3 SWAP2 SWAP1 DUP2 DUP2 MSTORE PUSH1 0x20 ADD DUP3 DUP1 SLOAD PUSH2 0x6ED SWAP1 PUSH2 0x4878 JUMP JUMPDEST DUP1 ISZERO PUSH2 0x73A JUMPI DUP1 PUSH1 0x1F LT PUSH2 0x70F JUMPI PUSH2 0x100 DUP1 DUP4 SLOAD DIV MUL DUP4 MSTORE SWAP2 PUSH1 0x20 ADD SWAP2 PUSH2 0x73A JUMP JUMPDEST DUP3 ADD SWAP2 SWAP1 PUSH1 0x0 MSTORE PUSH1 0x20 PUSH1 0x0 KECCAK256 SWAP1 JUMPDEST DUP2 SLOAD DUP2 MSTORE SWAP1 PUSH1 0x1 ADD SWAP1 PUSH1 0x20 ADD DUP1 DUP4 GT PUSH2 0x71D JUMPI DUP3 SWAP1 SUB PUSH1 0x1F AND DUP3 ADD SWAP2 JUMPDEST POP POP POP POP POP SWAP1 POP SWAP1 JUMP JUMPDEST PUSH1 0x0 PUSH2 0x74F DUP3 PUSH2 0x1673 JUMP JUMPDEST PUSH2 0x78E JUMPI PUSH1 0x40 MLOAD PUSH32 0x8C379A000000000000000000000000000000000000000000000000000000000 DUP2 MSTORE PUSH1 0x4 ADD PUSH2 0x785 SWAP1 PUSH2 0x43E0 JUMP JUMPDEST PUSH1 0x40 MLOAD DUP1 SWAP2 SUB SWAP1 REVERT JUMPDEST PUSH1 0x4 PUSH1 0x0 DUP4 DUP2 MSTORE PUSH1 0x20 ADD SWAP1 DUP2 MSTORE PUSH1 0x20 ADD PUSH1 0x0 KECCAK256 PUSH1 0x0 SWAP1 SLOAD SWAP1 PUSH2 0x100 EXP SWAP1 DIV PUSH20 0xFFFFFFFFFFFFFFFFFFFFFFFFFFFFFFFFFFFFFFFF AND SWAP1 POP SWAP2 SWAP1 POP JUMP JUMPDEST PUSH1 0x0 PUSH2 0x7D4 DUP3 PUSH2 0xB9B JUMP JUMPDEST SWAP1 POP DUP1 PUSH20 0xFFFFFFFFFFFFFFFFFFFFFFFFFFFFFFFFFFFFFFFF AND DUP4 PUSH20 0xFFFFFFFFFFFFFFFFFFFFFFFFFFFFFFFFFFFFFFFF AND EQ ISZERO PUSH2 0x845 JUMPI PUSH1 0x40 MLOAD PUSH32 0x8C379A000000000000000000000000000000000000000000000000000000000 DUP2 MSTORE PUSH1 0x4 ADD PUSH2 0x83C SWAP1 PUSH2 0x4440 JUMP JUMPDEST PUSH1 0x40 MLOAD DUP1 SWAP2 SUB SWAP1 REVERT JUMPDEST DUP1 PUSH20 0xFFFFFFFFFFFFFFFFFFFFFFFFFFFFFFFFFFFFFFFF AND CALLER PUSH20 0xFFFFFFFFFFFFFFFFFFFFFFFFFFFFFFFFFFFFFFFF AND EQ DUP1 PUSH2 0x885 JUMPI POP PUSH2 0x884 DUP2 CALLER PUSH2 0x1575 JUMP JUMPDEST JUMPDEST PUSH2 0x8C4 JUMPI PUSH1 0x40 MLOAD PUSH32 0x8C379A000000000000000000000000000000000000000000000000000000000 DUP2 MSTORE PUSH1 0x4 ADD PUSH2 0x8BB SWAP1 PUSH2 0x4360 JUMP JUMPDEST PUSH1 0x40 MLOAD DUP1 SWAP2 SUB SWAP1 REVERT JUMPDEST PUSH2 0x8CE DUP4 DUP4 PUSH2 0x16DF JUMP JUMPDEST POP POP POP JUMP JUMPDEST PUSH1 0xA SLOAD DUP2 JUMP JUMPDEST PUSH2 0x8E3 CALLER DUP3 PUSH2 0x1798 JUMP JUMPDEST PUSH2 0x922 JUMPI PUSH1 0x40 MLOAD PUSH32 0x8C379A000000000000000000000000000000000000000000000000000000000 DUP2 MSTORE PUSH1 0x4 ADD PUSH2 0x919 SWAP1 PUSH2 0x44C0 JUMP JUMPDEST PUSH1 0x40 MLOAD DUP1 SWAP2 SUB SWAP1 REVERT JUMPDEST PUSH2 0x92D DUP4 DUP4 DUP4 PUSH2 0x1876 JUMP JUMPDEST POP POP POP JUMP JUMPDEST PUSH2 0x94D DUP4 DUP4 DUP4 PUSH1 0x40 MLOAD DUP1 PUSH1 0x20 ADD PUSH1 0x40 MSTORE DUP1 PUSH1 0x0 DUP2 MSTORE POP PUSH2 0xFB3 JUMP JUMPDEST POP POP POP JUMP JUMPDEST PUSH1 0x60 PUSH1 0x0 DUP3 PUSH1 0x0 SHL PUSH1 0x40 MLOAD PUSH1 0x20 ADD PUSH2 0x96A SWAP2 SWAP1 PUSH2 0x3C51 JUMP JUMPDEST PUSH1 0x40 MLOAD PUSH1 0x20 DUP2 DUP4 SUB SUB DUP2 MSTORE SWAP1 PUSH1 0x40 MSTORE SWAP1 POP PUSH1 0x0 PUSH1 0x10 PUSH2 0x98A DUP4 PUSH1 0x0 PUSH2 0x1AC7 JUMP JUMPDEST PUSH2 0x994 SWAP2 SWAP1 PUSH2 0x46B0 JUMP JUMPDEST PUSH1 0xFF AND SWAP1 POP PUSH1 0x0 PUSH1 0x4 PUSH2 0x9A8 DUP5 PUSH1 0x1 PUSH2 0x1AC7 JUMP JUMPDEST PUSH2 0x9B2 SWAP2 SWAP1 PUSH2 0x46B0 JUMP JUMPDEST PUSH1 0xFF AND SWAP1 POP PUSH1 0x0 PUSH2 0x9C3 DUP7 DUP5 PUSH2 0x1B7D JUMP JUMPDEST SWAP1 POP PUSH1 0x0 PUSH2 0x9D1 DUP6 DUP6 PUSH2 0x1F0A JUMP JUMPDEST SWAP1 POP PUSH1 0x0 PUSH1 0x40 MLOAD DUP1 PUSH1 0x40 ADD PUSH1 0x40 MSTORE DUP1 PUSH1 0x2 DUP2 MSTORE PUSH1 0x20 ADD PUSH32 0x4446000000000000000000000000000000000000000000000000000000000000 DUP2 MSTORE POP SWAP1 POP PUSH1 0x0 PUSH20 0xFFFFFFFFFFFFFFFFFFFFFFFFFFFFFFFFFFFFFFFF AND PUSH1 0xC PUSH1 0x0 DUP11 DUP2 MSTORE PUSH1 0x20 ADD SWAP1 DUP2 MSTORE PUSH1 0x20 ADD PUSH1 0x0 KECCAK256 PUSH1 0x1 ADD PUSH1 0x0 SWAP1 SLOAD SWAP1 PUSH2 0x100 EXP SWAP1 DIV PUSH20 0xFFFFFFFFFFFFFFFFFFFFFFFFFFFFFFFFFFFFFFFF AND PUSH20 0xFFFFFFFFFFFFFFFFFFFFFFFFFFFFFFFFFFFFFFFF AND EQ PUSH2 0xAB0 JUMPI PUSH1 0x40 MLOAD DUP1 PUSH1 0x40 ADD PUSH1 0x40 MSTORE DUP1 PUSH1 0x2 DUP2 MSTORE PUSH1 0x20 ADD PUSH32 0x4458000000000000000000000000000000000000000000000000000000000000 DUP2 MSTORE POP SWAP1 POP JUMPDEST DUP3 DUP3 DUP3 PUSH2 0xAD2 PUSH1 0xC PUSH1 0x0 DUP14 DUP2 MSTORE PUSH1 0x20 ADD SWAP1 DUP2 MSTORE PUSH1 0x20 ADD PUSH1 0x0 KECCAK256 PUSH1 0x0 ADD SLOAD PUSH2 0x208D JUMP JUMPDEST PUSH1 0x4D DUP9 PUSH1 0x40 DUP2 LT PUSH2 0xB0C JUMPI PUSH32 0x4E487B7100000000000000000000000000000000000000000000000000000000 PUSH1 0x0 MSTORE PUSH1 0x32 PUSH1 0x4 MSTORE PUSH1 0x24 PUSH1 0x0 REVERT JUMPDEST ADD PUSH2 0xB64 PUSH1 0xC PUSH1 0x0 DUP16 DUP2 MSTORE PUSH1 0x20 ADD SWAP1 DUP2 MSTORE PUSH1 0x20 ADD PUSH1 0x0 KECCAK256 PUSH1 0x1 ADD PUSH1 0x0 SWAP1 SLOAD SWAP1 PUSH2 0x100 EXP SWAP1 DIV PUSH20 0xFFFFFFFFFFFFFFFFFFFFFFFFFFFFFFFFFFFFFFFF AND PUSH20 0xFFFFFFFFFFFFFFFFFFFFFFFFFFFFFFFFFFFFFFFF AND PUSH1 0x14 PUSH2 0x223A JUMP JUMPDEST PUSH1 0x40 MLOAD PUSH1 0x20 ADD PUSH2 0xB79 SWAP7 SWAP6 SWAP5 SWAP4 SWAP3 SWAP2 SWAP1 PUSH2 0x3DA2 JUMP JUMPDEST PUSH1 0x40 MLOAD PUSH1 0x20 DUP2 DUP4 SUB SUB DUP2 MSTORE SWAP1 PUSH1 0x40 MSTORE SWAP7 POP POP POP POP POP POP POP SWAP2 SWAP1 POP JUMP JUMPDEST PUSH1 0x9 SLOAD DUP2 JUMP JUMPDEST PUSH1 0x0 DUP1 PUSH1 0x2 PUSH1 0x0 DUP5 DUP2 MSTORE PUSH1 0x20 ADD SWAP1 DUP2 MSTORE PUSH1 0x20 ADD PUSH1 0x0 KECCAK256 PUSH1 0x0 SWAP1 SLOAD SWAP1 PUSH2 0x100 EXP SWAP1 DIV PUSH20 0xFFFFFFFFFFFFFFFFFFFFFFFFFFFFFFFFFFFFFFFF AND SWAP1 POP PUSH1 0x0 PUSH20 0xFFFFFFFFFFFFFFFFFFFFFFFFFFFFFFFFFFFFFFFF AND DUP2 PUSH20 0xFFFFFFFFFFFFFFFFFFFFFFFFFFFFFFFFFFFFFFFF AND EQ ISZERO PUSH2 0xC44 JUMPI PUSH1 0x40 MLOAD PUSH32 0x8C379A000000000000000000000000000000000000000000000000000000000 DUP2 MSTORE PUSH1 0x4 ADD PUSH2 0xC3B SWAP1 PUSH2 0x43A0 JUMP JUMPDEST PUSH1 0x40 MLOAD DUP1 SWAP2 SUB SWAP1 REVERT JUMPDEST DUP1 SWAP2 POP POP SWAP2 SWAP1 POP JUMP JUMPDEST PUSH1 0xC PUSH1 0x20 MSTORE DUP1 PUSH1 0x0 MSTORE PUSH1 0x40 PUSH1 0x0 KECCAK256 PUSH1 0x0 SWAP2 POP SWAP1 POP DUP1 PUSH1 0x0 ADD SLOAD SWAP1 DUP1 PUSH1 0x1 ADD PUSH1 0x0 SWAP1 SLOAD SWAP1 PUSH2 0x100 EXP SWAP1 DIV PUSH20 0xFFFFFFFFFFFFFFFFFFFFFFFFFFFFFFFFFFFFFFFF AND SWAP1 POP DUP3 JUMP JUMPDEST PUSH1 0x0 DUP1 PUSH20 0xFFFFFFFFFFFFFFFFFFFFFFFFFFFFFFFFFFFFFFFF AND DUP3 PUSH20 0xFFFFFFFFFFFFFFFFFFFFFFFFFFFFFFFFFFFFFFFF AND EQ ISZERO PUSH2 0xD02 JUMPI PUSH1 0x40 MLOAD PUSH32 0x8C379A000000000000000000000000000000000000000000000000000000000 DUP2 MSTORE PUSH1 0x4 ADD PUSH2 0xCF9 SWAP1 PUSH2 0x4380 JUMP JUMPDEST PUSH1 0x40 MLOAD DUP1 SWAP2 SUB SWAP1 REVERT JUMPDEST PUSH1 0x3 PUSH1 0x0 DUP4 PUSH20 0xFFFFFFFFFFFFFFFFFFFFFFFFFFFFFFFFFFFFFFFF AND PUSH20 0xFFFFFFFFFFFFFFFFFFFFFFFFFFFFFFFFFFFFFFFF AND DUP2 MSTORE PUSH1 0x20 ADD SWAP1 DUP2 MSTORE PUSH1 0x20 ADD PUSH1 0x0 KECCAK256 SLOAD SWAP1 POP SWAP2 SWAP1 POP JUMP JUMPDEST PUSH1 0x6 PUSH1 0x0 SWAP1 SLOAD SWAP1 PUSH2 0x100 EXP SWAP1 DIV PUSH20 0xFFFFFFFFFFFFFFFFFFFFFFFFFFFFFFFFFFFFFFFF AND DUP2 JUMP JUMPDEST PUSH1 0x7 PUSH1 0x0 SWAP1 SLOAD SWAP1 PUSH2 0x100 EXP SWAP1 DIV PUSH20 0xFFFFFFFFFFFFFFFFFFFFFFFFFFFFFFFFFFFFFFFF AND DUP2 JUMP JUMPDEST PUSH1 0x60 PUSH1 0x1 DUP1 SLOAD PUSH2 0xDA4 SWAP1 PUSH2 0x4878 JUMP JUMPDEST DUP1 PUSH1 0x1F ADD PUSH1 0x20 DUP1 SWAP2 DIV MUL PUSH1 0x20 ADD PUSH1 0x40 MLOAD SWAP1 DUP2 ADD PUSH1 0x40 MSTORE DUP1 SWAP3 SWAP2 SWAP1 DUP2 DUP2 MSTORE PUSH1 0x20 ADD DUP3 DUP1 SLOAD PUSH2 0xDD0 SWAP1 PUSH2 0x4878 JUMP JUMPDEST DUP1 ISZERO PUSH2 0xE1D JUMPI DUP1 PUSH1 0x1F LT PUSH2 0xDF2 JUMPI PUSH2 0x100 DUP1 DUP4 SLOAD DIV MUL DUP4 MSTORE SWAP2 PUSH1 0x20 ADD SWAP2 PUSH2 0xE1D JUMP JUMPDEST DUP3 ADD SWAP2 SWAP1 PUSH1 0x0 MSTORE PUSH1 0x20 PUSH1 0x0 KECCAK256 SWAP1 JUMPDEST DUP2 SLOAD DUP2 MSTORE SWAP1 PUSH1 0x1 ADD SWAP1 PUSH1 0x20 ADD DUP1 DUP4 GT PUSH2 0xE00 JUMPI DUP3 SWAP1 SUB PUSH1 0x1F AND DUP3 ADD SWAP2 JUMPDEST POP POP POP POP POP SWAP1 POP SWAP1 JUMP JUMPDEST CALLER PUSH20 0xFFFFFFFFFFFFFFFFFFFFFFFFFFFFFFFFFFFFFFFF AND DUP3 PUSH20 0xFFFFFFFFFFFFFFFFFFFFFFFFFFFFFFFFFFFFFFFF AND EQ ISZERO PUSH2 0xE96 JUMPI PUSH1 0x40 MLOAD PUSH32 0x8C379A000000000000000000000000000000000000000000000000000000000 DUP2 MSTORE PUSH1 0x4 ADD PUSH2 0xE8D SWAP1 PUSH2 0x42C0 JUMP JUMPDEST PUSH1 0x40 MLOAD DUP1 SWAP2 SUB SWAP1 REVERT JUMPDEST DUP1 PUSH1 0x5 PUSH1 0x0 CALLER PUSH20 0xFFFFFFFFFFFFFFFFFFFFFFFFFFFFFFFFFFFFFFFF AND PUSH20 0xFFFFFFFFFFFFFFFFFFFFFFFFFFFFFFFFFFFFFFFF AND DUP2 MSTORE PUSH1 0x20 ADD SWAP1 DUP2 MSTORE PUSH1 0x20 ADD PUSH1 0x0 KECCAK256 PUSH1 0x0 DUP5 PUSH20 0xFFFFFFFFFFFFFFFFFFFFFFFFFFFFFFFFFFFFFFFF AND PUSH20 0xFFFFFFFFFFFFFFFFFFFFFFFFFFFFFFFFFFFFFFFF AND DUP2 MSTORE PUSH1 0x20 ADD SWAP1 DUP2 MSTORE PUSH1 0x20 ADD PUSH1 0x0 KECCAK256 PUSH1 0x0 PUSH2 0x100 EXP DUP2 SLOAD DUP2 PUSH1 0xFF MUL NOT AND SWAP1 DUP4 ISZERO ISZERO MUL OR SWAP1 SSTORE POP DUP2 PUSH20 0xFFFFFFFFFFFFFFFFFFFFFFFFFFFFFFFFFFFFFFFF AND CALLER PUSH20 0xFFFFFFFFFFFFFFFFFFFFFFFFFFFFFFFFFFFFFFFF AND PUSH32 0x17307EAB39AB6107E8899845AD3D59BD9653F200F220920489CA2B5937696C31 DUP4 PUSH1 0x40 MLOAD PUSH2 0xF87 SWAP2 SWAP1 PUSH2 0x4203 JUMP JUMPDEST PUSH1 0x40 MLOAD DUP1 SWAP2 SUB SWAP1 LOG3 POP POP JUMP JUMPDEST PUSH1 0x60 PUSH2 0xFA6 PUSH2 0xFA1 DUP4 PUSH2 0x952 JUMP JUMPDEST PUSH2 0x2534 JUMP JUMPDEST SWAP1 POP SWAP2 SWAP1 POP JUMP JUMPDEST PUSH1 0x8 SLOAD DUP2 JUMP JUMPDEST PUSH2 0xFBD CALLER DUP4 PUSH2 0x1798 JUMP JUMPDEST PUSH2 0xFFC JUMPI PUSH1 0x40 MLOAD PUSH32 0x8C379A000000000000000000000000000000000000000000000000000000000 DUP2 MSTORE PUSH1 0x4 ADD PUSH2 0xFF3 SWAP1 PUSH2 0x44C0 JUMP JUMPDEST PUSH1 0x40 MLOAD DUP1 SWAP2 SUB SWAP1 REVERT JUMPDEST PUSH2 0x1008 DUP5 DUP5 DUP5 DUP5 PUSH2 0x26DF JUMP JUMPDEST POP POP POP POP JUMP JUMPDEST PUSH1 0xB SLOAD DUP2 JUMP JUMPDEST PUSH1 0x60 PUSH2 0x101F DUP3 PUSH2 0x1673 JUMP JUMPDEST PUSH2 0x105E JUMPI PUSH1 0x40 MLOAD PUSH32 0x8C379A000000000000000000000000000000000000000000000000000000000 DUP2 MSTORE PUSH1 0x4 ADD PUSH2 0x1055 SWAP1 PUSH2 0x4420 JUMP JUMPDEST PUSH1 0x40 MLOAD DUP1 SWAP2 SUB SWAP1 REVERT JUMPDEST PUSH1 0x0 PUSH1 0x40 MLOAD DUP1 PUSH1 0x40 ADD PUSH1 0x40 MSTORE DUP1 PUSH1 0x7 DUP2 MSTORE PUSH1 0x20 ADD PUSH32 0x44656661756C7400000000000000000000000000000000000000000000000000 DUP2 MSTORE POP SWAP1 POP PUSH1 0x0 PUSH20 0xFFFFFFFFFFFFFFFFFFFFFFFFFFFFFFFFFFFFFFFF AND PUSH1 0xC PUSH1 0x0 DUP6 DUP2 MSTORE PUSH1 0x20 ADD SWAP1 DUP2 MSTORE PUSH1 0x20 ADD PUSH1 0x0 KECCAK256 PUSH1 0x1 ADD PUSH1 0x0 SWAP1 SLOAD SWAP1 PUSH2 0x100 EXP SWAP1 DIV PUSH20 0xFFFFFFFFFFFFFFFFFFFFFFFFFFFFFFFFFFFFFFFF AND PUSH20 0xFFFFFFFFFFFFFFFFFFFFFFFFFFFFFFFFFFFFFFFF AND EQ PUSH2 0x113B JUMPI PUSH1 0x40 MLOAD DUP1 PUSH1 0x40 ADD PUSH1 0x40 MSTORE DUP1 PUSH1 0x6 DUP2 MSTORE PUSH1 0x20 ADD PUSH32 0x44656C7578650000000000000000000000000000000000000000000000000000 DUP2 MSTORE POP SWAP1 POP JUMPDEST PUSH1 0x0 DUP2 PUSH2 0x115D PUSH1 0xC PUSH1 0x0 DUP8 DUP2 MSTORE PUSH1 0x20 ADD SWAP1 DUP2 MSTORE PUSH1 0x20 ADD PUSH1 0x0 KECCAK256 PUSH1 0x0 ADD SLOAD PUSH2 0x208D JUMP JUMPDEST PUSH1 0x40 MLOAD PUSH1 0x20 ADD PUSH2 0x116E SWAP3 SWAP2 SWAP1 PUSH2 0x3C6C JUMP JUMPDEST PUSH1 0x40 MLOAD PUSH1 0x20 DUP2 DUP4 SUB SUB DUP2 MSTORE SWAP1 PUSH1 0x40 MSTORE SWAP1 POP PUSH1 0x0 PUSH1 0x40 MLOAD DUP1 PUSH1 0x40 ADD PUSH1 0x40 MSTORE DUP1 PUSH1 0x17 DUP2 MSTORE PUSH1 0x20 ADD PUSH32 0x416E63686F722043697479204365727469666963617465000000000000000000 DUP2 MSTORE POP SWAP1 POP PUSH1 0x0 PUSH2 0x11C4 DUP7 PUSH2 0xF93 JUMP JUMPDEST SWAP1 POP PUSH2 0x11F2 DUP4 DUP4 DUP4 PUSH1 0x40 MLOAD PUSH1 0x20 ADD PUSH2 0x11DE SWAP4 SWAP3 SWAP2 SWAP1 PUSH2 0x3ED6 JUMP JUMPDEST PUSH1 0x40 MLOAD PUSH1 0x20 DUP2 DUP4 SUB SUB DUP2 MSTORE SWAP1 PUSH1 0x40 MSTORE PUSH2 0x2534 JUMP JUMPDEST PUSH1 0x40 MLOAD PUSH1 0x20 ADD PUSH2 0x1202 SWAP2 SWAP1 PUSH2 0x4076 JUMP JUMPDEST PUSH1 0x40 MLOAD PUSH1 0x20 DUP2 DUP4 SUB SUB DUP2 MSTORE SWAP1 PUSH1 0x40 MSTORE SWAP5 POP POP POP POP POP SWAP2 SWAP1 POP JUMP JUMPDEST PUSH1 0x0 PUSH1 0xA SLOAD TIMESTAMP GT PUSH2 0x1262 JUMPI PUSH1 0x40 MLOAD PUSH32 0x8C379A000000000000000000000000000000000000000000000000000000000 DUP2 MSTORE PUSH1 0x4 ADD PUSH2 0x1259 SWAP1 PUSH2 0x44A0 JUMP JUMPDEST PUSH1 0x40 MLOAD DUP1 SWAP2 SUB SWAP1 REVERT JUMPDEST PUSH1 0xB SLOAD TIMESTAMP LT PUSH2 0x12A6 JUMPI PUSH1 0x40 MLOAD PUSH32 0x8C379A000000000000000000000000000000000000000000000000000000000 DUP2 MSTORE PUSH1 0x4 ADD PUSH2 0x129D SWAP1 PUSH2 0x42E0 JUMP JUMPDEST PUSH1 0x40 MLOAD DUP1 SWAP2 SUB SWAP1 REVERT JUMPDEST PUSH7 0x2386F26FC10000 CALLVALUE LT ISZERO PUSH2 0x12F0 JUMPI PUSH1 0x40 MLOAD PUSH32 0x8C379A000000000000000000000000000000000000000000000000000000000 DUP2 MSTORE PUSH1 0x4 ADD PUSH2 0x12E7 SWAP1 PUSH2 0x4340 JUMP JUMPDEST PUSH1 0x40 MLOAD DUP1 SWAP2 SUB SWAP1 REVERT JUMPDEST PUSH2 0x12F8 PUSH2 0x2DAE JUMP JUMPDEST PUSH7 0xB1A2BC2EC50000 CALLVALUE LT PUSH2 0x13AF JUMPI PUSH1 0x1 PUSH1 0x9 PUSH1 0x0 DUP3 DUP3 SLOAD PUSH2 0x1319 SWAP2 SWAP1 PUSH2 0x45F2 JUMP JUMPDEST SWAP3 POP POP DUP2 SWAP1 SSTORE POP PUSH1 0x64 PUSH1 0x9 SLOAD GT ISZERO PUSH2 0x1366 JUMPI PUSH1 0x40 MLOAD PUSH32 0x8C379A000000000000000000000000000000000000000000000000000000000 DUP2 MSTORE PUSH1 0x4 ADD PUSH2 0x135D SWAP1 PUSH2 0x4280 JUMP JUMPDEST PUSH1 0x40 MLOAD DUP1 SWAP2 SUB SWAP1 REVERT JUMPDEST PUSH1 0x9 SLOAD DUP2 PUSH1 0x0 ADD DUP2 DUP2 MSTORE POP POP CALLER DUP2 PUSH1 0x20 ADD SWAP1 PUSH20 0xFFFFFFFFFFFFFFFFFFFFFFFFFFFFFFFFFFFFFFFF AND SWAP1 DUP2 PUSH20 0xFFFFFFFFFFFFFFFFFFFFFFFFFFFFFFFFFFFFFFFF AND DUP2 MSTORE POP POP PUSH2 0x13D6 JUMP JUMPDEST PUSH1 0x1 PUSH1 0x8 PUSH1 0x0 DUP3 DUP3 SLOAD PUSH2 0x13C2 SWAP2 SWAP1 PUSH2 0x45F2 JUMP JUMPDEST SWAP3 POP POP DUP2 SWAP1 SSTORE POP PUSH1 0x8 SLOAD DUP2 PUSH1 0x0 ADD DUP2 DUP2 MSTORE POP POP JUMPDEST TIMESTAMP CALLER PUSH1 0x40 MLOAD PUSH1 0x20 ADD PUSH2 0x13E9 SWAP3 SWAP2 SWAP1 PUSH2 0x4155 JUMP JUMPDEST PUSH1 0x40 MLOAD PUSH1 0x20 DUP2 DUP4 SUB SUB DUP2 MSTORE SWAP1 PUSH1 0x40 MSTORE DUP1 MLOAD SWAP1 PUSH1 0x20 ADD KECCAK256 PUSH1 0x0 SHR SWAP2 POP DUP1 PUSH1 0xC PUSH1 0x0 DUP5 DUP2 MSTORE PUSH1 0x20 ADD SWAP1 DUP2 MSTORE PUSH1 0x20 ADD PUSH1 0x0 KECCAK256 PUSH1 0x0 DUP3 ADD MLOAD DUP2 PUSH1 0x0 ADD SSTORE PUSH1 0x20 DUP3 ADD MLOAD DUP2 PUSH1 0x1 ADD PUSH1 0x0 PUSH2 0x100 EXP DUP2 SLOAD DUP2 PUSH20 0xFFFFFFFFFFFFFFFFFFFFFFFFFFFFFFFFFFFFFFFF MUL NOT AND SWAP1 DUP4 PUSH20 0xFFFFFFFFFFFFFFFFFFFFFFFFFFFFFFFFFFFFFFFF AND MUL OR SWAP1 SSTORE POP SWAP1 POP POP PUSH2 0x1476 CALLER DUP4 PUSH2 0x273B JUMP JUMPDEST POP SWAP1 JUMP JUMPDEST PUSH1 0x7 PUSH1 0x0 SWAP1 SLOAD SWAP1 PUSH2 0x100 EXP SWAP1 DIV PUSH20 0xFFFFFFFFFFFFFFFFFFFFFFFFFFFFFFFFFFFFFFFF AND PUSH20 0xFFFFFFFFFFFFFFFFFFFFFFFFFFFFFFFFFFFFFFFF AND CALLER PUSH20 0xFFFFFFFFFFFFFFFFFFFFFFFFFFFFFFFFFFFFFFFF AND EQ PUSH2 0x150A JUMPI PUSH1 0x40 MLOAD PUSH32 0x8C379A000000000000000000000000000000000000000000000000000000000 DUP2 MSTORE PUSH1 0x4 ADD PUSH2 0x1501 SWAP1 PUSH2 0x4320 JUMP JUMPDEST PUSH1 0x40 MLOAD DUP1 SWAP2 SUB SWAP1 REVERT JUMPDEST PUSH1 0x7 PUSH1 0x0 SWAP1 SLOAD SWAP1 PUSH2 0x100 EXP SWAP1 DIV PUSH20 0xFFFFFFFFFFFFFFFFFFFFFFFFFFFFFFFFFFFFFFFF AND PUSH20 0xFFFFFFFFFFFFFFFFFFFFFFFFFFFFFFFFFFFFFFFF AND PUSH2 0x8FC SELFBALANCE SWAP1 DUP2 ISZERO MUL SWAP1 PUSH1 0x40 MLOAD PUSH1 0x0 PUSH1 0x40 MLOAD DUP1 DUP4 SUB DUP2 DUP6 DUP9 DUP9 CALL SWAP4 POP POP POP POP ISZERO DUP1 ISZERO PUSH2 0x1572 JUMPI RETURNDATASIZE PUSH1 0x0 DUP1 RETURNDATACOPY RETURNDATASIZE PUSH1 0x0 REVERT JUMPDEST POP JUMP JUMPDEST PUSH1 0x0 PUSH1 0x5 PUSH1 0x0 DUP5 PUSH20 0xFFFFFFFFFFFFFFFFFFFFFFFFFFFFFFFFFFFFFFFF AND PUSH20 0xFFFFFFFFFFFFFFFFFFFFFFFFFFFFFFFFFFFFFFFF AND DUP2 MSTORE PUSH1 0x20 ADD SWAP1 DUP2 MSTORE PUSH1 0x20 ADD PUSH1 0x0 KECCAK256 PUSH1 0x0 DUP4 PUSH20 0xFFFFFFFFFFFFFFFFFFFFFFFFFFFFFFFFFFFFFFFF AND PUSH20 0xFFFFFFFFFFFFFFFFFFFFFFFFFFFFFFFFFFFFFFFF AND DUP2 MSTORE PUSH1 0x20 ADD SWAP1 DUP2 MSTORE PUSH1 0x20 ADD PUSH1 0x0 KECCAK256 PUSH1 0x0 SWAP1 SLOAD SWAP1 PUSH2 0x100 EXP SWAP1 DIV PUSH1 0xFF AND SWAP1 POP SWAP3 SWAP2 POP POP JUMP JUMPDEST PUSH1 0x0 PUSH32 0x1FFC9A700000000000000000000000000000000000000000000000000000000 PUSH28 0xFFFFFFFFFFFFFFFFFFFFFFFFFFFFFFFFFFFFFFFFFFFFFFFFFFFFFFFF NOT AND DUP3 PUSH28 0xFFFFFFFFFFFFFFFFFFFFFFFFFFFFFFFFFFFFFFFFFFFFFFFFFFFFFFFF NOT AND EQ SWAP1 POP SWAP2 SWAP1 POP JUMP JUMPDEST PUSH1 0x0 DUP1 PUSH20 0xFFFFFFFFFFFFFFFFFFFFFFFFFFFFFFFFFFFFFFFF AND PUSH1 0x2 PUSH1 0x0 DUP5 DUP2 MSTORE PUSH1 0x20 ADD SWAP1 DUP2 MSTORE PUSH1 0x20 ADD PUSH1 0x0 KECCAK256 PUSH1 0x0 SWAP1 SLOAD SWAP1 PUSH2 0x100 EXP SWAP1 DIV PUSH20 0xFFFFFFFFFFFFFFFFFFFFFFFFFFFFFFFFFFFFFFFF AND PUSH20 0xFFFFFFFFFFFFFFFFFFFFFFFFFFFFFFFFFFFFFFFF AND EQ ISZERO SWAP1 POP SWAP2 SWAP1 POP JUMP JUMPDEST DUP2 PUSH1 0x4 PUSH1 0x0 DUP4 DUP2 MSTORE PUSH1 0x20 ADD SWAP1 DUP2 MSTORE PUSH1 0x20 ADD PUSH1 0x0 KECCAK256 PUSH1 0x0 PUSH2 0x100 EXP DUP2 SLOAD DUP2 PUSH20 0xFFFFFFFFFFFFFFFFFFFFFFFFFFFFFFFFFFFFFFFF MUL NOT AND SWAP1 DUP4 PUSH20 0xFFFFFFFFFFFFFFFFFFFFFFFFFFFFFFFFFFFFFFFF AND MUL OR SWAP1 SSTORE POP DUP1 DUP3 PUSH20 0xFFFFFFFFFFFFFFFFFFFFFFFFFFFFFFFFFFFFFFFF AND PUSH2 0x1752 DUP4 PUSH2 0xB9B JUMP JUMPDEST PUSH20 0xFFFFFFFFFFFFFFFFFFFFFFFFFFFFFFFFFFFFFFFF AND PUSH32 0x8C5BE1E5EBEC7D5BD14F71427D1E84F3DD0314C0F7B2291E5B200AC8C7C3B925 PUSH1 0x40 MLOAD PUSH1 0x40 MLOAD DUP1 SWAP2 SUB SWAP1 LOG4 POP POP JUMP JUMPDEST PUSH1 0x0 PUSH2 0x17A3 DUP3 PUSH2 0x1673 JUMP JUMPDEST PUSH2 0x17E2 JUMPI PUSH1 0x40 MLOAD PUSH32 0x8C379A000000000000000000000000000000000000000000000000000000000 DUP2 MSTORE PUSH1 0x4 ADD PUSH2 0x17D9 SWAP1 PUSH2 0x4300 JUMP JUMPDEST PUSH1 0x40 MLOAD DUP1 SWAP2 SUB SWAP1 REVERT JUMPDEST PUSH1 0x0 PUSH2 0x17ED DUP4 PUSH2 0xB9B JUMP JUMPDEST SWAP1 POP DUP1 PUSH20 0xFFFFFFFFFFFFFFFFFFFFFFFFFFFFFFFFFFFFFFFF AND DUP5 PUSH20 0xFFFFFFFFFFFFFFFFFFFFFFFFFFFFFFFFFFFFFFFF AND EQ DUP1 PUSH2 0x185C JUMPI POP DUP4 PUSH20 0xFFFFFFFFFFFFFFFFFFFFFFFFFFFFFFFFFFFFFFFF AND PUSH2 0x1844 DUP5 PUSH2 0x744 JUMP JUMPDEST PUSH20 0xFFFFFFFFFFFFFFFFFFFFFFFFFFFFFFFFFFFFFFFF AND EQ JUMPDEST DUP1 PUSH2 0x186D JUMPI POP PUSH2 0x186C DUP2 DUP6 PUSH2 0x1575 JUMP JUMPDEST JUMPDEST SWAP2 POP POP SWAP3 SWAP2 POP POP JUMP JUMPDEST DUP3 PUSH20 0xFFFFFFFFFFFFFFFFFFFFFFFFFFFFFFFFFFFFFFFF AND PUSH2 0x1896 DUP3 PUSH2 0xB9B JUMP JUMPDEST PUSH20 0xFFFFFFFFFFFFFFFFFFFFFFFFFFFFFFFFFFFFFFFF AND EQ PUSH2 0x18EC JUMPI PUSH1 0x40 MLOAD PUSH32 0x8C379A000000000000000000000000000000000000000000000000000000000 DUP2 MSTORE PUSH1 0x4 ADD PUSH2 0x18E3 SWAP1 PUSH2 0x4400 JUMP JUMPDEST PUSH1 0x40 MLOAD DUP1 SWAP2 SUB SWAP1 REVERT JUMPDEST PUSH1 0x0 PUSH20 0xFFFFFFFFFFFFFFFFFFFFFFFFFFFFFFFFFFFFFFFF AND DUP3 PUSH20 0xFFFFFFFFFFFFFFFFFFFFFFFFFFFFFFFFFFFFFFFF AND EQ ISZERO PUSH2 0x195C JUMPI PUSH1 0x40 MLOAD PUSH32 0x8C379A000000000000000000000000000000000000000000000000000000000 DUP2 MSTORE PUSH1 0x4 ADD PUSH2 0x1953 SWAP1 PUSH2 0x42A0 JUMP JUMPDEST PUSH1 0x40 MLOAD DUP1 SWAP2 SUB SWAP1 REVERT JUMPDEST PUSH2 0x1967 PUSH1 0x0 DUP3 PUSH2 0x16DF JUMP JUMPDEST PUSH1 0x1 PUSH1 0x3 PUSH1 0x0 DUP6 PUSH20 0xFFFFFFFFFFFFFFFFFFFFFFFFFFFFFFFFFFFFFFFF AND PUSH20 0xFFFFFFFFFFFFFFFFFFFFFFFFFFFFFFFFFFFFFFFF AND DUP2 MSTORE PUSH1 0x20 ADD SWAP1 DUP2 MSTORE PUSH1 0x20 ADD PUSH1 0x0 KECCAK256 PUSH1 0x0 DUP3 DUP3 SLOAD PUSH2 0x19B7 SWAP2 SWAP1 PUSH2 0x473B JUMP JUMPDEST SWAP3 POP POP DUP2 SWAP1 SSTORE POP PUSH1 0x1 PUSH1 0x3 PUSH1 0x0 DUP5 PUSH20 0xFFFFFFFFFFFFFFFFFFFFFFFFFFFFFFFFFFFFFFFF AND PUSH20 0xFFFFFFFFFFFFFFFFFFFFFFFFFFFFFFFFFFFFFFFF AND DUP2 MSTORE PUSH1 0x20 ADD SWAP1 DUP2 MSTORE PUSH1 0x20 ADD PUSH1 0x0 KECCAK256 PUSH1 0x0 DUP3 DUP3 SLOAD PUSH2 0x1A0E SWAP2 SWAP1 PUSH2 0x45F2 JUMP JUMPDEST SWAP3 POP POP DUP2 SWAP1 SSTORE POP DUP2 PUSH1 0x2 PUSH1 0x0 DUP4 DUP2 MSTORE PUSH1 0x20 ADD SWAP1 DUP2 MSTORE PUSH1 0x20 ADD PUSH1 0x0 KECCAK256 PUSH1 0x0 PUSH2 0x100 EXP DUP2 SLOAD DUP2 PUSH20 0xFFFFFFFFFFFFFFFFFFFFFFFFFFFFFFFFFFFFFFFF MUL NOT AND SWAP1 DUP4 PUSH20 0xFFFFFFFFFFFFFFFFFFFFFFFFFFFFFFFFFFFFFFFF AND MUL OR SWAP1 SSTORE POP DUP1 DUP3 PUSH20 0xFFFFFFFFFFFFFFFFFFFFFFFFFFFFFFFFFFFFFFFF AND DUP5 PUSH20 0xFFFFFFFFFFFFFFFFFFFFFFFFFFFFFFFFFFFFFFFF AND PUSH32 0xDDF252AD1BE2C89B69C2B068FC378DAA952BA7F163C4A11628F55A4DF523B3EF PUSH1 0x40 MLOAD PUSH1 0x40 MLOAD DUP1 SWAP2 SUB SWAP1 LOG4 POP POP POP JUMP JUMPDEST PUSH1 0x0 DUP2 PUSH1 0x1 DUP4 PUSH2 0x1AD7 SWAP2 SWAP1 PUSH2 0x45F2 JUMP JUMPDEST LT ISZERO PUSH2 0x1B18 JUMPI PUSH1 0x40 MLOAD PUSH32 0x8C379A000000000000000000000000000000000000000000000000000000000 DUP2 MSTORE PUSH1 0x4 ADD PUSH2 0x1B0F SWAP1 PUSH2 0x4460 JUMP JUMPDEST PUSH1 0x40 MLOAD DUP1 SWAP2 SUB SWAP1 REVERT JUMPDEST PUSH1 0x1 DUP3 PUSH2 0x1B25 SWAP2 SWAP1 PUSH2 0x45F2 JUMP JUMPDEST DUP4 MLOAD LT ISZERO PUSH2 0x1B68 JUMPI PUSH1 0x40 MLOAD PUSH32 0x8C379A000000000000000000000000000000000000000000000000000000000 DUP2 MSTORE PUSH1 0x4 ADD PUSH2 0x1B5F SWAP1 PUSH2 0x44E0 JUMP JUMPDEST PUSH1 0x40 MLOAD DUP1 SWAP2 SUB SWAP1 REVERT JUMPDEST PUSH1 0x0 DUP3 PUSH1 0x1 DUP6 ADD ADD MLOAD SWAP1 POP DUP1 SWAP2 POP POP SWAP3 SWAP2 POP POP JUMP JUMPDEST PUSH1 0x60 PUSH1 0xD DUP3 PUSH1 0x10 DUP2 LT PUSH2 0x1BB9 JUMPI PUSH32 0x4E487B7100000000000000000000000000000000000000000000000000000000 PUSH1 0x0 MSTORE PUSH1 0x32 PUSH1 0x4 MSTORE PUSH1 0x24 PUSH1 0x0 REVERT JUMPDEST PUSH1 0x4 MUL ADD PUSH1 0x0 PUSH1 0x4 DUP2 LT PUSH2 0x1BF6 JUMPI PUSH32 0x4E487B7100000000000000000000000000000000000000000000000000000000 PUSH1 0x0 MSTORE PUSH1 0x32 PUSH1 0x4 MSTORE PUSH1 0x24 PUSH1 0x0 REVERT JUMPDEST ADD PUSH1 0xD DUP4 PUSH1 0x10 DUP2 LT PUSH2 0x1C31 JUMPI PUSH32 0x4E487B7100000000000000000000000000000000000000000000000000000000 PUSH1 0x0 MSTORE PUSH1 0x32 PUSH1 0x4 MSTORE PUSH1 0x24 PUSH1 0x0 REVERT JUMPDEST PUSH1 0x4 MUL ADD PUSH1 0x3 PUSH1 0x4 DUP2 LT PUSH2 0x1C6E JUMPI PUSH32 0x4E487B7100000000000000000000000000000000000000000000000000000000 PUSH1 0x0 MSTORE PUSH1 0x32 PUSH1 0x4 MSTORE PUSH1 0x24 PUSH1 0x0 REVERT JUMPDEST ADD PUSH1 0xD DUP5 PUSH1 0x10 DUP2 LT PUSH2 0x1CA9 JUMPI PUSH32 0x4E487B7100000000000000000000000000000000000000000000000000000000 PUSH1 0x0 MSTORE PUSH1 0x32 PUSH1 0x4 MSTORE PUSH1 0x24 PUSH1 0x0 REVERT JUMPDEST PUSH1 0x4 MUL ADD PUSH1 0x1 PUSH1 0x4 DUP2 LT PUSH2 0x1CE6 JUMPI PUSH32 0x4E487B7100000000000000000000000000000000000000000000000000000000 PUSH1 0x0 MSTORE PUSH1 0x32 PUSH1 0x4 MSTORE PUSH1 0x24 PUSH1 0x0 REVERT JUMPDEST ADD PUSH1 0xD DUP6 PUSH1 0x10 DUP2 LT PUSH2 0x1D21 JUMPI PUSH32 0x4E487B7100000000000000000000000000000000000000000000000000000000 PUSH1 0x0 MSTORE PUSH1 0x32 PUSH1 0x4 MSTORE PUSH1 0x24 PUSH1 0x0 REVERT JUMPDEST PUSH1 0x4 MUL ADD PUSH1 0x2 PUSH1 0x4 DUP2 LT PUSH2 0x1D5E JUMPI PUSH32 0x4E487B7100000000000000000000000000000000000000000000000000000000 PUSH1 0x0 MSTORE PUSH1 0x32 PUSH1 0x4 MSTORE PUSH1 0x24 PUSH1 0x0 REVERT JUMPDEST ADD PUSH2 0x1D74 PUSH2 0x1D6B DUP9 PUSH2 0x208D JUMP JUMPDEST PUSH1 0x0 PUSH1 0x18 PUSH2 0x28FD JUMP JUMPDEST PUSH1 0xD DUP8 PUSH1 0x10 DUP2 LT PUSH2 0x1DAE JUMPI PUSH32 0x4E487B7100000000000000000000000000000000000000000000000000000000 PUSH1 0x0 MSTORE PUSH1 0x32 PUSH1 0x4 MSTORE PUSH1 0x24 PUSH1 0x0 REVERT JUMPDEST PUSH1 0x4 MUL ADD PUSH1 0x3 PUSH1 0x4 DUP2 LT PUSH2 0x1DEB JUMPI PUSH32 0x4E487B7100000000000000000000000000000000000000000000000000000000 PUSH1 0x0 MSTORE PUSH1 0x32 PUSH1 0x4 MSTORE PUSH1 0x24 PUSH1 0x0 REVERT JUMPDEST ADD PUSH1 0xD DUP9 PUSH1 0x10 DUP2 LT PUSH2 0x1E26 JUMPI PUSH32 0x4E487B7100000000000000000000000000000000000000000000000000000000 PUSH1 0x0 MSTORE PUSH1 0x32 PUSH1 0x4 MSTORE PUSH1 0x24 PUSH1 0x0 REVERT JUMPDEST PUSH1 0x4 MUL ADD PUSH1 0x3 PUSH1 0x4 DUP2 LT PUSH2 0x1E63 JUMPI PUSH32 0x4E487B7100000000000000000000000000000000000000000000000000000000 PUSH1 0x0 MSTORE PUSH1 0x32 PUSH1 0x4 MSTORE PUSH1 0x24 PUSH1 0x0 REVERT JUMPDEST ADD PUSH1 0xD DUP10 PUSH1 0x10 DUP2 LT PUSH2 0x1E9E JUMPI PUSH32 0x4E487B7100000000000000000000000000000000000000000000000000000000 PUSH1 0x0 MSTORE PUSH1 0x32 PUSH1 0x4 MSTORE PUSH1 0x24 PUSH1 0x0 REVERT JUMPDEST PUSH1 0x4 MUL ADD PUSH1 0x3 PUSH1 0x4 DUP2 LT PUSH2 0x1EDB JUMPI PUSH32 0x4E487B7100000000000000000000000000000000000000000000000000000000 PUSH1 0x0 MSTORE PUSH1 0x32 PUSH1 0x4 MSTORE PUSH1 0x24 PUSH1 0x0 REVERT JUMPDEST ADD PUSH1 0x40 MLOAD PUSH1 0x20 ADD PUSH2 0x1EF3 SWAP9 SWAP8 SWAP7 SWAP6 SWAP5 SWAP4 SWAP3 SWAP2 SWAP1 PUSH2 0x3F3E JUMP JUMPDEST PUSH1 0x40 MLOAD PUSH1 0x20 DUP2 DUP4 SUB SUB DUP2 MSTORE SWAP1 PUSH1 0x40 MSTORE SWAP1 POP SWAP3 SWAP2 POP POP JUMP JUMPDEST PUSH1 0x60 PUSH1 0x0 PUSH2 0x1F19 DUP5 PUSH1 0x2 PUSH2 0x2A6B JUMP JUMPDEST SWAP1 POP PUSH1 0x0 PUSH2 0x1F28 DUP6 PUSH1 0x6 PUSH2 0x2A6B JUMP JUMPDEST SWAP1 POP PUSH1 0x0 PUSH2 0x1F37 DUP7 PUSH1 0xA PUSH2 0x2A6B JUMP JUMPDEST SWAP1 POP PUSH1 0x0 PUSH2 0x1F46 DUP8 PUSH1 0xE PUSH2 0x2A6B JUMP JUMPDEST SWAP1 POP PUSH1 0x0 PUSH2 0x1F55 DUP9 PUSH1 0x12 PUSH2 0x2A6B JUMP JUMPDEST SWAP1 POP PUSH1 0x0 PUSH2 0x1F9B DUP6 PUSH1 0x40 MLOAD DUP1 PUSH1 0x40 ADD PUSH1 0x40 MSTORE DUP1 PUSH1 0x3 DUP2 MSTORE PUSH1 0x20 ADD PUSH32 0x3234350000000000000000000000000000000000000000000000000000000000 DUP2 MSTORE POP DUP11 PUSH1 0x2 PUSH2 0x2B4D JUMP JUMPDEST SWAP1 POP PUSH1 0x0 PUSH2 0x1FE1 DUP6 PUSH1 0x40 MLOAD DUP1 PUSH1 0x40 ADD PUSH1 0x40 MSTORE DUP1 PUSH1 0x3 DUP2 MSTORE PUSH1 0x20 ADD PUSH32 0x3235350000000000000000000000000000000000000000000000000000000000 DUP2 MSTORE POP DUP12 PUSH1 0x0 PUSH2 0x2B4D JUMP JUMPDEST SWAP1 POP PUSH1 0x0 PUSH2 0x2027 DUP6 PUSH1 0x40 MLOAD DUP1 PUSH1 0x40 ADD PUSH1 0x40 MSTORE DUP1 PUSH1 0x3 DUP2 MSTORE PUSH1 0x20 ADD PUSH32 0x3236350000000000000000000000000000000000000000000000000000000000 DUP2 MSTORE POP DUP13 PUSH1 0x3 PUSH2 0x2B4D JUMP JUMPDEST SWAP1 POP DUP8 PUSH1 0x0 ADD MLOAD DUP9 PUSH1 0x20 ADD MLOAD DUP10 PUSH1 0x40 ADD MLOAD DUP11 PUSH1 0x60 ADD MLOAD DUP7 DUP7 DUP7 DUP11 PUSH1 0x0 ADD MLOAD DUP12 PUSH1 0x20 ADD MLOAD DUP13 PUSH1 0x40 ADD MLOAD DUP14 PUSH1 0x60 ADD MLOAD PUSH1 0x40 MLOAD PUSH1 0x20 ADD PUSH2 0x206E SWAP12 SWAP11 SWAP10 SWAP9 SWAP8 SWAP7 SWAP6 SWAP5 SWAP4 SWAP3 SWAP2 SWAP1 PUSH2 0x3C9B JUMP JUMPDEST PUSH1 0x40 MLOAD PUSH1 0x20 DUP2 DUP4 SUB SUB DUP2 MSTORE SWAP1 PUSH1 0x40 MSTORE SWAP9 POP POP POP POP POP POP POP POP POP SWAP3 SWAP2 POP POP JUMP JUMPDEST PUSH1 0x60 PUSH1 0x0 DUP3 EQ ISZERO PUSH2 0x20D5 JUMPI PUSH1 0x40 MLOAD DUP1 PUSH1 0x40 ADD PUSH1 0x40 MSTORE DUP1 PUSH1 0x1 DUP2 MSTORE PUSH1 0x20 ADD PUSH32 0x3000000000000000000000000000000000000000000000000000000000000000 DUP2 MSTORE POP SWAP1 POP PUSH2 0x2235 JUMP JUMPDEST PUSH1 0x0 DUP3 SWAP1 POP PUSH1 0x0 JUMPDEST PUSH1 0x0 DUP3 EQ PUSH2 0x2107 JUMPI DUP1 DUP1 PUSH2 0x20F0 SWAP1 PUSH2 0x48DB JUMP JUMPDEST SWAP2 POP POP PUSH1 0xA DUP3 PUSH2 0x2100 SWAP2 SWAP1 PUSH2 0x467F JUMP JUMPDEST SWAP2 POP PUSH2 0x20DD JUMP JUMPDEST PUSH1 0x0 DUP2 PUSH8 0xFFFFFFFFFFFFFFFF DUP2 GT ISZERO PUSH2 0x2149 JUMPI PUSH32 0x4E487B7100000000000000000000000000000000000000000000000000000000 PUSH1 0x0 MSTORE PUSH1 0x41 PUSH1 0x4 MSTORE PUSH1 0x24 PUSH1 0x0 REVERT JUMPDEST PUSH1 0x40 MLOAD SWAP1 DUP1 DUP3 MSTORE DUP1 PUSH1 0x1F ADD PUSH1 0x1F NOT AND PUSH1 0x20 ADD DUP3 ADD PUSH1 0x40 MSTORE DUP1 ISZERO PUSH2 0x217B JUMPI DUP2 PUSH1 0x20 ADD PUSH1 0x1 DUP3 MUL DUP1 CALLDATASIZE DUP4 CALLDATACOPY DUP1 DUP3 ADD SWAP2 POP POP SWAP1 POP JUMPDEST POP SWAP1 POP JUMPDEST PUSH1 0x0 DUP6 EQ PUSH2 0x222E JUMPI PUSH1 0x1 DUP3 PUSH2 0x2194 SWAP2 SWAP1 PUSH2 0x473B JUMP JUMPDEST SWAP2 POP PUSH1 0xA DUP6 PUSH2 0x21A3 SWAP2 SWAP1 PUSH2 0x495C JUMP JUMPDEST PUSH1 0x30 PUSH2 0x21AF SWAP2 SWAP1 PUSH2 0x45F2 JUMP JUMPDEST PUSH1 0xF8 SHL DUP2 DUP4 DUP2 MLOAD DUP2 LT PUSH2 0x21EB JUMPI PUSH32 0x4E487B7100000000000000000000000000000000000000000000000000000000 PUSH1 0x0 MSTORE PUSH1 0x32 PUSH1 0x4 MSTORE PUSH1 0x24 PUSH1 0x0 REVERT JUMPDEST PUSH1 0x20 ADD ADD SWAP1 PUSH31 0xFFFFFFFFFFFFFFFFFFFFFFFFFFFFFFFFFFFFFFFFFFFFFFFFFFFFFFFFFFFFFF NOT AND SWAP1 DUP2 PUSH1 0x0 BYTE SWAP1 MSTORE8 POP PUSH1 0xA DUP6 PUSH2 0x2227 SWAP2 SWAP1 PUSH2 0x467F JUMP JUMPDEST SWAP5 POP PUSH2 0x217F JUMP JUMPDEST DUP1 SWAP4 POP POP POP POP JUMPDEST SWAP2 SWAP1 POP JUMP JUMPDEST PUSH1 0x60 PUSH1 0x0 PUSH1 0x2 DUP4 PUSH1 0x2 PUSH2 0x224D SWAP2 SWAP1 PUSH2 0x46E1 JUMP JUMPDEST PUSH2 0x2257 SWAP2 SWAP1 PUSH2 0x45F2 JUMP JUMPDEST PUSH8 0xFFFFFFFFFFFFFFFF DUP2 GT ISZERO PUSH2 0x2296 JUMPI PUSH32 0x4E487B7100000000000000000000000000000000000000000000000000000000 PUSH1 0x0 MSTORE PUSH1 0x41 PUSH1 0x4 MSTORE PUSH1 0x24 PUSH1 0x0 REVERT JUMPDEST PUSH1 0x40 MLOAD SWAP1 DUP1 DUP3 MSTORE DUP1 PUSH1 0x1F ADD PUSH1 0x1F NOT AND PUSH1 0x20 ADD DUP3 ADD PUSH1 0x40 MSTORE DUP1 ISZERO PUSH2 0x22C8 JUMPI DUP2 PUSH1 0x20 ADD PUSH1 0x1 DUP3 MUL DUP1 CALLDATASIZE DUP4 CALLDATACOPY DUP1 DUP3 ADD SWAP2 POP POP SWAP1 POP JUMPDEST POP SWAP1 POP PUSH32 0x3000000000000000000000000000000000000000000000000000000000000000 DUP2 PUSH1 0x0 DUP2 MLOAD DUP2 LT PUSH2 0x2326 JUMPI PUSH32 0x4E487B7100000000000000000000000000000000000000000000000000000000 PUSH1 0x0 MSTORE PUSH1 0x32 PUSH1 0x4 MSTORE PUSH1 0x24 PUSH1 0x0 REVERT JUMPDEST PUSH1 0x20 ADD ADD SWAP1 PUSH31 0xFFFFFFFFFFFFFFFFFFFFFFFFFFFFFFFFFFFFFFFFFFFFFFFFFFFFFFFFFFFFFF NOT AND SWAP1 DUP2 PUSH1 0x0 BYTE SWAP1 MSTORE8 POP PUSH32 0x7800000000000000000000000000000000000000000000000000000000000000 DUP2 PUSH1 0x1 DUP2 MLOAD DUP2 LT PUSH2 0x23B0 JUMPI PUSH32 0x4E487B7100000000000000000000000000000000000000000000000000000000 PUSH1 0x0 MSTORE PUSH1 0x32 PUSH1 0x4 MSTORE PUSH1 0x24 PUSH1 0x0 REVERT JUMPDEST PUSH1 0x20 ADD ADD SWAP1 PUSH31 0xFFFFFFFFFFFFFFFFFFFFFFFFFFFFFFFFFFFFFFFFFFFFFFFFFFFFFFFFFFFFFF NOT AND SWAP1 DUP2 PUSH1 0x0 BYTE SWAP1 MSTORE8 POP PUSH1 0x0 PUSH1 0x1 DUP5 PUSH1 0x2 PUSH2 0x23F0 SWAP2 SWAP1 PUSH2 0x46E1 JUMP JUMPDEST PUSH2 0x23FA SWAP2 SWAP1 PUSH2 0x45F2 JUMP JUMPDEST SWAP1 POP JUMPDEST PUSH1 0x1 DUP2 GT ISZERO PUSH2 0x24E6 JUMPI PUSH32 0x3031323334353637383961626364656600000000000000000000000000000000 PUSH1 0xF DUP7 AND PUSH1 0x10 DUP2 LT PUSH2 0x2462 JUMPI PUSH32 0x4E487B7100000000000000000000000000000000000000000000000000000000 PUSH1 0x0 MSTORE PUSH1 0x32 PUSH1 0x4 MSTORE PUSH1 0x24 PUSH1 0x0 REVERT JUMPDEST BYTE PUSH1 0xF8 SHL DUP3 DUP3 DUP2 MLOAD DUP2 LT PUSH2 0x249F JUMPI PUSH32 0x4E487B7100000000000000000000000000000000000000000000000000000000 PUSH1 0x0 MSTORE PUSH1 0x32 PUSH1 0x4 MSTORE PUSH1 0x24 PUSH1 0x0 REVERT JUMPDEST PUSH1 0x20 ADD ADD SWAP1 PUSH31 0xFFFFFFFFFFFFFFFFFFFFFFFFFFFFFFFFFFFFFFFFFFFFFFFFFFFFFFFFFFFFFF NOT AND SWAP1 DUP2 PUSH1 0x0 BYTE SWAP1 MSTORE8 POP PUSH1 0x4 DUP6 SWAP1 SHR SWAP5 POP DUP1 PUSH2 0x24DF SWAP1 PUSH2 0x484E JUMP JUMPDEST SWAP1 POP PUSH2 0x23FD JUMP JUMPDEST POP PUSH1 0x0 DUP5 EQ PUSH2 0x252A JUMPI PUSH1 0x40 MLOAD PUSH32 0x8C379A000000000000000000000000000000000000000000000000000000000 DUP2 MSTORE PUSH1 0x4 ADD PUSH2 0x2521 SWAP1 PUSH2 0x4480 JUMP JUMPDEST PUSH1 0x40 MLOAD DUP1 SWAP2 SUB SWAP1 REVERT JUMPDEST DUP1 SWAP2 POP POP SWAP3 SWAP2 POP POP JUMP JUMPDEST PUSH1 0x60 PUSH1 0x0 DUP3 MLOAD EQ ISZERO PUSH2 0x2557 JUMPI PUSH1 0x40 MLOAD DUP1 PUSH1 0x20 ADD PUSH1 0x40 MSTORE DUP1 PUSH1 0x0 DUP2 MSTORE POP SWAP1 POP PUSH2 0x26DA JUMP JUMPDEST PUSH1 0x0 PUSH1 0x40 MLOAD DUP1 PUSH1 0x60 ADD PUSH1 0x40 MSTORE DUP1 PUSH1 0x40 DUP2 MSTORE PUSH1 0x20 ADD PUSH2 0x5E99 PUSH1 0x40 SWAP2 CODECOPY SWAP1 POP PUSH1 0x0 PUSH1 0x3 PUSH1 0x2 DUP6 MLOAD PUSH2 0x2586 SWAP2 SWAP1 PUSH2 0x45F2 JUMP JUMPDEST PUSH2 0x2590 SWAP2 SWAP1 PUSH2 0x467F JUMP JUMPDEST PUSH1 0x4 PUSH2 0x259C SWAP2 SWAP1 PUSH2 0x46E1 JUMP JUMPDEST SWAP1 POP PUSH1 0x0 PUSH1 0x20 DUP3 PUSH2 0x25AD SWAP2 SWAP1 PUSH2 0x45F2 JUMP JUMPDEST PUSH8 0xFFFFFFFFFFFFFFFF DUP2 GT ISZERO PUSH2 0x25EC JUMPI PUSH32 0x4E487B7100000000000000000000000000000000000000000000000000000000 PUSH1 0x0 MSTORE PUSH1 0x41 PUSH1 0x4 MSTORE PUSH1 0x24 PUSH1 0x0 REVERT JUMPDEST PUSH1 0x40 MLOAD SWAP1 DUP1 DUP3 MSTORE DUP1 PUSH1 0x1F ADD PUSH1 0x1F NOT AND PUSH1 0x20 ADD DUP3 ADD PUSH1 0x40 MSTORE DUP1 ISZERO PUSH2 0x261E JUMPI DUP2 PUSH1 0x20 ADD PUSH1 0x1 DUP3 MUL DUP1 CALLDATASIZE DUP4 CALLDATACOPY DUP1 DUP3 ADD SWAP2 POP POP SWAP1 POP JUMPDEST POP SWAP1 POP DUP2 DUP2 MSTORE PUSH1 0x1 DUP4 ADD DUP6 DUP7 MLOAD DUP2 ADD PUSH1 0x20 DUP5 ADD JUMPDEST DUP2 DUP4 LT ISZERO PUSH2 0x2699 JUMPI PUSH1 0x3 DUP4 ADD SWAP3 POP DUP3 MLOAD PUSH1 0x3F DUP2 PUSH1 0x12 SHR AND DUP6 ADD MLOAD PUSH1 0xF8 SHL DUP3 MSTORE PUSH1 0x1 DUP3 ADD SWAP2 POP PUSH1 0x3F DUP2 PUSH1 0xC SHR AND DUP6 ADD MLOAD PUSH1 0xF8 SHL DUP3 MSTORE PUSH1 0x1 DUP3 ADD SWAP2 POP PUSH1 0x3F DUP2 PUSH1 0x6 SHR AND DUP6 ADD MLOAD PUSH1 0xF8 SHL DUP3 MSTORE PUSH1 0x1 DUP3 ADD SWAP2 POP PUSH1 0x3F DUP2 AND DUP6 ADD MLOAD PUSH1 0xF8 SHL DUP3 MSTORE PUSH1 0x1 DUP3 ADD SWAP2 POP POP PUSH2 0x2632 JUMP JUMPDEST PUSH1 0x3 DUP10 MLOAD MOD PUSH1 0x1 DUP2 EQ PUSH2 0x26B3 JUMPI PUSH1 0x2 DUP2 EQ PUSH2 0x26C3 JUMPI PUSH2 0x26CE JUMP JUMPDEST PUSH2 0x3D3D PUSH1 0xF0 SHL PUSH1 0x2 DUP4 SUB MSTORE PUSH2 0x26CE JUMP JUMPDEST PUSH1 0x3D PUSH1 0xF8 SHL PUSH1 0x1 DUP4 SUB MSTORE JUMPDEST POP POP POP POP POP DUP1 SWAP4 POP POP POP POP JUMPDEST SWAP2 SWAP1 POP JUMP JUMPDEST PUSH2 0x26EA DUP5 DUP5 DUP5 PUSH2 0x1876 JUMP JUMPDEST PUSH2 0x26F6 DUP5 DUP5 DUP5 DUP5 PUSH2 0x2C0B JUMP JUMPDEST PUSH2 0x2735 JUMPI PUSH1 0x40 MLOAD PUSH32 0x8C379A000000000000000000000000000000000000000000000000000000000 DUP2 MSTORE PUSH1 0x4 ADD PUSH2 0x272C SWAP1 PUSH2 0x4240 JUMP JUMPDEST PUSH1 0x40 MLOAD DUP1 SWAP2 SUB SWAP1 REVERT JUMPDEST POP POP POP POP JUMP JUMPDEST PUSH1 0x0 PUSH20 0xFFFFFFFFFFFFFFFFFFFFFFFFFFFFFFFFFFFFFFFF AND DUP3 PUSH20 0xFFFFFFFFFFFFFFFFFFFFFFFFFFFFFFFFFFFFFFFF AND EQ ISZERO PUSH2 0x27AB JUMPI PUSH1 0x40 MLOAD PUSH32 0x8C379A000000000000000000000000000000000000000000000000000000000 DUP2 MSTORE PUSH1 0x4 ADD PUSH2 0x27A2 SWAP1 PUSH2 0x43C0 JUMP JUMPDEST PUSH1 0x40 MLOAD DUP1 SWAP2 SUB SWAP1 REVERT JUMPDEST PUSH2 0x27B4 DUP2 PUSH2 0x1673 JUMP JUMPDEST ISZERO PUSH2 0x27F4 JUMPI PUSH1 0x40 MLOAD PUSH32 0x8C379A000000000000000000000000000000000000000000000000000000000 DUP2 MSTORE PUSH1 0x4 ADD PUSH2 0x27EB SWAP1 PUSH2 0x4260 JUMP JUMPDEST PUSH1 0x40 MLOAD DUP1 SWAP2 SUB SWAP1 REVERT JUMPDEST PUSH1 0x1 PUSH1 0x3 PUSH1 0x0 DUP5 PUSH20 0xFFFFFFFFFFFFFFFFFFFFFFFFFFFFFFFFFFFFFFFF AND PUSH20 0xFFFFFFFFFFFFFFFFFFFFFFFFFFFFFFFFFFFFFFFF AND DUP2 MSTORE PUSH1 0x20 ADD SWAP1 DUP2 MSTORE PUSH1 0x20 ADD PUSH1 0x0 KECCAK256 PUSH1 0x0 DUP3 DUP3 SLOAD PUSH2 0x2844 SWAP2 SWAP1 PUSH2 0x45F2 JUMP JUMPDEST SWAP3 POP POP DUP2 SWAP1 SSTORE POP DUP2 PUSH1 0x2 PUSH1 0x0 DUP4 DUP2 MSTORE PUSH1 0x20 ADD SWAP1 DUP2 MSTORE PUSH1 0x20 ADD PUSH1 0x0 KECCAK256 PUSH1 0x0 PUSH2 0x100 EXP DUP2 SLOAD DUP2 PUSH20 0xFFFFFFFFFFFFFFFFFFFFFFFFFFFFFFFFFFFFFFFF MUL NOT AND SWAP1 DUP4 PUSH20 0xFFFFFFFFFFFFFFFFFFFFFFFFFFFFFFFFFFFFFFFF AND MUL OR SWAP1 SSTORE POP DUP1 DUP3 PUSH20 0xFFFFFFFFFFFFFFFFFFFFFFFFFFFFFFFFFFFFFFFF AND PUSH1 0x0 PUSH20 0xFFFFFFFFFFFFFFFFFFFFFFFFFFFFFFFFFFFFFFFF AND PUSH32 0xDDF252AD1BE2C89B69C2B068FC378DAA952BA7F163C4A11628F55A4DF523B3EF PUSH1 0x40 MLOAD PUSH1 0x40 MLOAD DUP1 SWAP2 SUB SWAP1 LOG4 POP POP JUMP JUMPDEST PUSH1 0x60 PUSH1 0x0 DUP5 SWAP1 POP PUSH1 0x0 DUP5 DUP5 PUSH2 0x2912 SWAP2 SWAP1 PUSH2 0x473B JUMP JUMPDEST PUSH8 0xFFFFFFFFFFFFFFFF DUP2 GT ISZERO PUSH2 0x2951 JUMPI PUSH32 0x4E487B7100000000000000000000000000000000000000000000000000000000 PUSH1 0x0 MSTORE PUSH1 0x41 PUSH1 0x4 MSTORE PUSH1 0x24 PUSH1 0x0 REVERT JUMPDEST PUSH1 0x40 MLOAD SWAP1 DUP1 DUP3 MSTORE DUP1 PUSH1 0x1F ADD PUSH1 0x1F NOT AND PUSH1 0x20 ADD DUP3 ADD PUSH1 0x40 MSTORE DUP1 ISZERO PUSH2 0x2983 JUMPI DUP2 PUSH1 0x20 ADD PUSH1 0x1 DUP3 MUL DUP1 CALLDATASIZE DUP4 CALLDATACOPY DUP1 DUP3 ADD SWAP2 POP POP SWAP1 POP JUMPDEST POP SWAP1 POP PUSH1 0x0 DUP6 SWAP1 POP JUMPDEST DUP5 DUP2 LT ISZERO PUSH2 0x2A5E JUMPI DUP3 DUP2 DUP2 MLOAD DUP2 LT PUSH2 0x29CD JUMPI PUSH32 0x4E487B7100000000000000000000000000000000000000000000000000000000 PUSH1 0x0 MSTORE PUSH1 0x32 PUSH1 0x4 MSTORE PUSH1 0x24 PUSH1 0x0 REVERT JUMPDEST PUSH1 0x20 ADD ADD MLOAD PUSH1 0xF8 SHR PUSH1 0xF8 SHL DUP3 DUP8 DUP4 PUSH2 0x29E5 SWAP2 SWAP1 PUSH2 0x473B JUMP JUMPDEST DUP2 MLOAD DUP2 LT PUSH2 0x2A1C JUMPI PUSH32 0x4E487B7100000000000000000000000000000000000000000000000000000000 PUSH1 0x0 MSTORE PUSH1 0x32 PUSH1 0x4 MSTORE PUSH1 0x24 PUSH1 0x0 REVERT JUMPDEST PUSH1 0x20 ADD ADD SWAP1 PUSH31 0xFFFFFFFFFFFFFFFFFFFFFFFFFFFFFFFFFFFFFFFFFFFFFFFFFFFFFFFFFFFFFF NOT AND SWAP1 DUP2 PUSH1 0x0 BYTE SWAP1 MSTORE8 POP DUP1 DUP1 PUSH2 0x2A56 SWAP1 PUSH2 0x48DB JUMP JUMPDEST SWAP2 POP POP PUSH2 0x298C JUMP JUMPDEST POP DUP1 SWAP3 POP POP POP SWAP4 SWAP3 POP POP POP JUMP JUMPDEST PUSH2 0x2A73 PUSH2 0x2DDE JUMP JUMPDEST PUSH2 0x2AA0 PUSH1 0x4 PUSH2 0x2A82 DUP6 DUP6 PUSH2 0x1AC7 JUMP JUMPDEST PUSH2 0x2A8C SWAP2 SWAP1 PUSH2 0x46B0 JUMP JUMPDEST PUSH1 0x5A PUSH2 0x2A98 SWAP2 SWAP1 PUSH2 0x4648 JUMP JUMPDEST PUSH1 0xFF AND PUSH2 0x208D JUMP JUMPDEST DUP2 PUSH1 0x0 ADD DUP2 SWAP1 MSTORE POP PUSH2 0x2AD5 PUSH1 0x10 PUSH2 0x2AC3 DUP6 PUSH1 0x1 DUP7 PUSH2 0x2ABE SWAP2 SWAP1 PUSH2 0x45F2 JUMP JUMPDEST PUSH2 0x1AC7 JUMP JUMPDEST PUSH2 0x2ACD SWAP2 SWAP1 PUSH2 0x46B0 JUMP JUMPDEST PUSH1 0xFF AND PUSH2 0x208D JUMP JUMPDEST DUP2 PUSH1 0x20 ADD DUP2 SWAP1 MSTORE POP PUSH2 0x2B0A PUSH1 0x10 PUSH2 0x2AF8 DUP6 PUSH1 0x2 DUP7 PUSH2 0x2AF3 SWAP2 SWAP1 PUSH2 0x45F2 JUMP JUMPDEST PUSH2 0x1AC7 JUMP JUMPDEST PUSH2 0x2B02 SWAP2 SWAP1 PUSH2 0x46B0 JUMP JUMPDEST PUSH1 0xFF AND PUSH2 0x208D JUMP JUMPDEST DUP2 PUSH1 0x40 ADD DUP2 SWAP1 MSTORE POP PUSH2 0x2B3F PUSH1 0x10 PUSH2 0x2B2D DUP6 PUSH1 0x3 DUP7 PUSH2 0x2B28 SWAP2 SWAP1 PUSH2 0x45F2 JUMP JUMPDEST PUSH2 0x1AC7 JUMP JUMPDEST PUSH2 0x2B37 SWAP2 SWAP1 PUSH2 0x46B0 JUMP JUMPDEST PUSH1 0xFF AND PUSH2 0x208D JUMP JUMPDEST DUP2 PUSH1 0x60 ADD DUP2 SWAP1 MSTORE POP SWAP3 SWAP2 POP POP JUMP JUMPDEST PUSH1 0x60 DUP4 DUP6 PUSH1 0x0 ADD MLOAD DUP6 PUSH1 0xD DUP7 PUSH1 0x10 DUP2 LT PUSH2 0x2B90 JUMPI PUSH32 0x4E487B7100000000000000000000000000000000000000000000000000000000 PUSH1 0x0 MSTORE PUSH1 0x32 PUSH1 0x4 MSTORE PUSH1 0x24 PUSH1 0x0 REVERT JUMPDEST PUSH1 0x4 MUL ADD DUP6 PUSH1 0x4 DUP2 LT PUSH2 0x2BCC JUMPI PUSH32 0x4E487B7100000000000000000000000000000000000000000000000000000000 PUSH1 0x0 MSTORE PUSH1 0x32 PUSH1 0x4 MSTORE PUSH1 0x24 PUSH1 0x0 REVERT JUMPDEST ADD DUP9 PUSH1 0x20 ADD MLOAD DUP10 PUSH1 0x40 ADD MLOAD DUP11 PUSH1 0x60 ADD MLOAD PUSH1 0x40 MLOAD PUSH1 0x20 ADD PUSH2 0x2BF2 SWAP8 SWAP7 SWAP6 SWAP5 SWAP4 SWAP3 SWAP2 SWAP1 PUSH2 0x4098 JUMP JUMPDEST PUSH1 0x40 MLOAD PUSH1 0x20 DUP2 DUP4 SUB SUB DUP2 MSTORE SWAP1 PUSH1 0x40 MSTORE SWAP1 POP SWAP5 SWAP4 POP POP POP POP JUMP JUMPDEST PUSH1 0x0 PUSH2 0x2C2C DUP5 PUSH20 0xFFFFFFFFFFFFFFFFFFFFFFFFFFFFFFFFFFFFFFFF AND PUSH2 0x2D9B JUMP JUMPDEST ISZERO PUSH2 0x2D8E JUMPI DUP4 PUSH20 0xFFFFFFFFFFFFFFFFFFFFFFFFFFFFFFFFFFFFFFFF AND PUSH4 0x150B7A02 CALLER DUP8 DUP7 DUP7 PUSH1 0x40 MLOAD DUP6 PUSH4 0xFFFFFFFF AND PUSH1 0xE0 SHL DUP2 MSTORE PUSH1 0x4 ADD PUSH2 0x2C70 SWAP5 SWAP4 SWAP3 SWAP2 SWAP1 PUSH2 0x41B7 JUMP JUMPDEST PUSH1 0x20 PUSH1 0x40 MLOAD DUP1 DUP4 SUB DUP2 PUSH1 0x0 DUP8 DUP1 EXTCODESIZE ISZERO DUP1 ISZERO PUSH2 0x2C8A JUMPI PUSH1 0x0 DUP1 REVERT JUMPDEST POP GAS CALL SWAP3 POP POP POP DUP1 ISZERO PUSH2 0x2CBB JUMPI POP PUSH1 0x40 MLOAD RETURNDATASIZE PUSH1 0x1F NOT PUSH1 0x1F DUP3 ADD AND DUP3 ADD DUP1 PUSH1 0x40 MSTORE POP DUP2 ADD SWAP1 PUSH2 0x2CB8 SWAP2 SWAP1 PUSH2 0x30A7 JUMP JUMPDEST PUSH1 0x1 JUMPDEST PUSH2 0x2D3E JUMPI RETURNDATASIZE DUP1 PUSH1 0x0 DUP2 EQ PUSH2 0x2CEB JUMPI PUSH1 0x40 MLOAD SWAP2 POP PUSH1 0x1F NOT PUSH1 0x3F RETURNDATASIZE ADD AND DUP3 ADD PUSH1 0x40 MSTORE RETURNDATASIZE DUP3 MSTORE RETURNDATASIZE PUSH1 0x0 PUSH1 0x20 DUP5 ADD RETURNDATACOPY PUSH2 0x2CF0 JUMP JUMPDEST PUSH1 0x60 SWAP2 POP JUMPDEST POP PUSH1 0x0 DUP2 MLOAD EQ ISZERO PUSH2 0x2D36 JUMPI PUSH1 0x40 MLOAD PUSH32 0x8C379A000000000000000000000000000000000000000000000000000000000 DUP2 MSTORE PUSH1 0x4 ADD PUSH2 0x2D2D SWAP1 PUSH2 0x4240 JUMP JUMPDEST PUSH1 0x40 MLOAD DUP1 SWAP2 SUB SWAP1 REVERT JUMPDEST DUP1 MLOAD DUP2 PUSH1 0x20 ADD REVERT JUMPDEST PUSH4 0x150B7A02 PUSH1 0xE0 SHL PUSH28 0xFFFFFFFFFFFFFFFFFFFFFFFFFFFFFFFFFFFFFFFFFFFFFFFFFFFFFFFF NOT AND DUP2 PUSH28 0xFFFFFFFFFFFFFFFFFFFFFFFFFFFFFFFFFFFFFFFFFFFFFFFFFFFFFFFF NOT AND EQ SWAP2 POP POP PUSH2 0x2D93 JUMP JUMPDEST PUSH1 0x1 SWAP1 POP JUMPDEST SWAP5 SWAP4 POP POP POP POP JUMP JUMPDEST PUSH1 0x0 DUP1 DUP3 EXTCODESIZE SWAP1 POP PUSH1 0x0 DUP2 GT SWAP2 POP POP SWAP2 SWAP1 POP JUMP JUMPDEST PUSH1 0x40 MLOAD DUP1 PUSH1 0x40 ADD PUSH1 0x40 MSTORE DUP1 PUSH1 0x0 DUP2 MSTORE PUSH1 0x20 ADD PUSH1 0x0 PUSH20 0xFFFFFFFFFFFFFFFFFFFFFFFFFFFFFFFFFFFFFFFF AND DUP2 MSTORE POP SWAP1 JUMP JUMPDEST PUSH1 0x40 MLOAD DUP1 PUSH1 0x80 ADD PUSH1 0x40 MSTORE DUP1 PUSH1 0x60 DUP2 MSTORE PUSH1 0x20 ADD PUSH1 0x60 DUP2 MSTORE PUSH1 0x20 ADD PUSH1 0x60 DUP2 MSTORE PUSH1 0x20 ADD PUSH1 0x60 DUP2 MSTORE POP SWAP1 JUMP JUMPDEST PUSH1 0x0 PUSH2 0x2E19 PUSH2 0x2E14 DUP5 PUSH2 0x4569 JUMP JUMPDEST PUSH2 0x4544 JUMP JUMPDEST SWAP1 POP DUP3 DUP2 MSTORE PUSH1 0x20 DUP2 ADD DUP5 DUP5 DUP5 ADD GT ISZERO PUSH2 0x2E31 JUMPI PUSH1 0x0 DUP1 REVERT JUMPDEST PUSH2 0x2E3C DUP5 DUP3 DUP6 PUSH2 0x480C JUMP JUMPDEST POP SWAP4 SWAP3 POP POP POP JUMP JUMPDEST PUSH1 0x0 DUP2 CALLDATALOAD SWAP1 POP PUSH2 0x2E53 DUP2 PUSH2 0x5E3C JUMP JUMPDEST SWAP3 SWAP2 POP POP JUMP JUMPDEST PUSH1 0x0 DUP2 CALLDATALOAD SWAP1 POP PUSH2 0x2E68 DUP2 PUSH2 0x5E53 JUMP JUMPDEST SWAP3 SWAP2 POP POP JUMP JUMPDEST PUSH1 0x0 DUP2 CALLDATALOAD SWAP1 POP PUSH2 0x2E7D DUP2 PUSH2 0x5E6A JUMP JUMPDEST SWAP3 SWAP2 POP POP JUMP JUMPDEST PUSH1 0x0 DUP2 MLOAD SWAP1 POP PUSH2 0x2E92 DUP2 PUSH2 0x5E6A JUMP JUMPDEST SWAP3 SWAP2 POP POP JUMP JUMPDEST PUSH1 0x0 DUP3 PUSH1 0x1F DUP4 ADD SLT PUSH2 0x2EA9 JUMPI PUSH1 0x0 DUP1 REVERT JUMPDEST DUP2 CALLDATALOAD PUSH2 0x2EB9 DUP5 DUP3 PUSH1 0x20 DUP7 ADD PUSH2 0x2E06 JUMP JUMPDEST SWAP2 POP POP SWAP3 SWAP2 POP POP JUMP JUMPDEST PUSH1 0x0 DUP2 CALLDATALOAD SWAP1 POP PUSH2 0x2ED1 DUP2 PUSH2 0x5E81 JUMP JUMPDEST SWAP3 SWAP2 POP POP JUMP JUMPDEST PUSH1 0x0 PUSH1 0x20 DUP3 DUP5 SUB SLT ISZERO PUSH2 0x2EE9 JUMPI PUSH1 0x0 DUP1 REVERT JUMPDEST PUSH1 0x0 PUSH2 0x2EF7 DUP5 DUP3 DUP6 ADD PUSH2 0x2E44 JUMP JUMPDEST SWAP2 POP POP SWAP3 SWAP2 POP POP JUMP JUMPDEST PUSH1 0x0 DUP1 PUSH1 0x40 DUP4 DUP6 SUB SLT ISZERO PUSH2 0x2F13 JUMPI PUSH1 0x0 DUP1 REVERT JUMPDEST PUSH1 0x0 PUSH2 0x2F21 DUP6 DUP3 DUP7 ADD PUSH2 0x2E44 JUMP JUMPDEST SWAP3 POP POP PUSH1 0x20 PUSH2 0x2F32 DUP6 DUP3 DUP7 ADD PUSH2 0x2E44 JUMP JUMPDEST SWAP2 POP POP SWAP3 POP SWAP3 SWAP1 POP JUMP JUMPDEST PUSH1 0x0 DUP1 PUSH1 0x0 PUSH1 0x60 DUP5 DUP7 SUB SLT ISZERO PUSH2 0x2F51 JUMPI PUSH1 0x0 DUP1 REVERT JUMPDEST PUSH1 0x0 PUSH2 0x2F5F DUP7 DUP3 DUP8 ADD PUSH2 0x2E44 JUMP JUMPDEST SWAP4 POP POP PUSH1 0x20 PUSH2 0x2F70 DUP7 DUP3 DUP8 ADD PUSH2 0x2E44 JUMP JUMPDEST SWAP3 POP POP PUSH1 0x40 PUSH2 0x2F81 DUP7 DUP3 DUP8 ADD PUSH2 0x2EC2 JUMP JUMPDEST SWAP2 POP POP SWAP3 POP SWAP3 POP SWAP3 JUMP JUMPDEST PUSH1 0x0 DUP1 PUSH1 0x0 DUP1 PUSH1 0x80 DUP6 DUP8 SUB SLT ISZERO PUSH2 0x2FA1 JUMPI PUSH1 0x0 DUP1 REVERT JUMPDEST PUSH1 0x0 PUSH2 0x2FAF DUP8 DUP3 DUP9 ADD PUSH2 0x2E44 JUMP JUMPDEST SWAP5 POP POP PUSH1 0x20 PUSH2 0x2FC0 DUP8 DUP3 DUP9 ADD PUSH2 0x2E44 JUMP JUMPDEST SWAP4 POP POP PUSH1 0x40 PUSH2 0x2FD1 DUP8 DUP3 DUP9 ADD PUSH2 0x2EC2 JUMP JUMPDEST SWAP3 POP POP PUSH1 0x60 DUP6 ADD CALLDATALOAD PUSH8 0xFFFFFFFFFFFFFFFF DUP2 GT ISZERO PUSH2 0x2FEE JUMPI PUSH1 0x0 DUP1 REVERT JUMPDEST PUSH2 0x2FFA DUP8 DUP3 DUP9 ADD PUSH2 0x2E98 JUMP JUMPDEST SWAP2 POP POP SWAP3 SWAP6 SWAP2 SWAP5 POP SWAP3 POP JUMP JUMPDEST PUSH1 0x0 DUP1 PUSH1 0x40 DUP4 DUP6 SUB SLT ISZERO PUSH2 0x3019 JUMPI PUSH1 0x0 DUP1 REVERT JUMPDEST PUSH1 0x0 PUSH2 0x3027 DUP6 DUP3 DUP7 ADD PUSH2 0x2E44 JUMP JUMPDEST SWAP3 POP POP PUSH1 0x20 PUSH2 0x3038 DUP6 DUP3 DUP7 ADD PUSH2 0x2E59 JUMP JUMPDEST SWAP2 POP POP SWAP3 POP SWAP3 SWAP1 POP JUMP JUMPDEST PUSH1 0x0 DUP1 PUSH1 0x40 DUP4 DUP6 SUB SLT ISZERO PUSH2 0x3055 JUMPI PUSH1 0x0 DUP1 REVERT JUMPDEST PUSH1 0x0 PUSH2 0x3063 DUP6 DUP3 DUP7 ADD PUSH2 0x2E44 JUMP JUMPDEST SWAP3 POP POP PUSH1 0x20 PUSH2 0x3074 DUP6 DUP3 DUP7 ADD PUSH2 0x2EC2 JUMP JUMPDEST SWAP2 POP POP SWAP3 POP SWAP3 SWAP1 POP JUMP JUMPDEST PUSH1 0x0 PUSH1 0x20 DUP3 DUP5 SUB SLT ISZERO PUSH2 0x3090 JUMPI PUSH1 0x0 DUP1 REVERT JUMPDEST PUSH1 0x0 PUSH2 0x309E DUP5 DUP3 DUP6 ADD PUSH2 0x2E6E JUMP JUMPDEST SWAP2 POP POP SWAP3 SWAP2 POP POP JUMP JUMPDEST PUSH1 0x0 PUSH1 0x20 DUP3 DUP5 SUB SLT ISZERO PUSH2 0x30B9 JUMPI PUSH1 0x0 DUP1 REVERT JUMPDEST PUSH1 0x0 PUSH2 0x30C7 DUP5 DUP3 DUP6 ADD PUSH2 0x2E83 JUMP JUMPDEST SWAP2 POP POP SWAP3 SWAP2 POP POP JUMP JUMPDEST PUSH1 0x0 PUSH1 0x20 DUP3 DUP5 SUB SLT ISZERO PUSH2 0x30E2 JUMPI PUSH1 0x0 DUP1 REVERT JUMPDEST PUSH1 0x0 PUSH2 0x30F0 DUP5 DUP3 DUP6 ADD PUSH2 0x2EC2 JUMP JUMPDEST SWAP2 POP POP SWAP3 SWAP2 POP POP JUMP JUMPDEST PUSH2 0x3102 DUP2 PUSH2 0x4781 JUMP JUMPDEST DUP3 MSTORE POP POP JUMP JUMPDEST PUSH2 0x3111 DUP2 PUSH2 0x476F JUMP JUMPDEST DUP3 MSTORE POP POP JUMP JUMPDEST PUSH2 0x3128 PUSH2 0x3123 DUP3 PUSH2 0x476F JUMP JUMPDEST PUSH2 0x4924 JUMP JUMPDEST DUP3 MSTORE POP POP JUMP JUMPDEST PUSH2 0x3137 DUP2 PUSH2 0x4793 JUMP JUMPDEST DUP3 MSTORE POP POP JUMP JUMPDEST PUSH2 0x314E PUSH2 0x3149 DUP3 PUSH2 0x479F JUMP JUMPDEST PUSH2 0x4936 JUMP JUMPDEST DUP3 MSTORE POP POP JUMP JUMPDEST PUSH1 0x0 PUSH2 0x315F DUP3 PUSH2 0x45AF JUMP JUMPDEST PUSH2 0x3169 DUP2 DUP6 PUSH2 0x45C5 JUMP JUMPDEST SWAP4 POP PUSH2 0x3179 DUP2 DUP6 PUSH1 0x20 DUP7 ADD PUSH2 0x481B JUMP JUMPDEST PUSH2 0x3182 DUP2 PUSH2 0x4A49 JUMP JUMPDEST DUP5 ADD SWAP2 POP POP SWAP3 SWAP2 POP POP JUMP JUMPDEST PUSH1 0x0 PUSH2 0x3198 DUP3 PUSH2 0x45BA JUMP JUMPDEST PUSH2 0x31A2 DUP2 DUP6 PUSH2 0x45D6 JUMP JUMPDEST SWAP4 POP PUSH2 0x31B2 DUP2 DUP6 PUSH1 0x20 DUP7 ADD PUSH2 0x481B JUMP JUMPDEST PUSH2 0x31BB DUP2 PUSH2 0x4A49 JUMP JUMPDEST DUP5 ADD SWAP2 POP POP SWAP3 SWAP2 POP POP JUMP JUMPDEST PUSH1 0x0 PUSH2 0x31D1 DUP3 PUSH2 0x45BA JUMP JUMPDEST PUSH2 0x31DB DUP2 DUP6 PUSH2 0x45E7 JUMP JUMPDEST SWAP4 POP PUSH2 0x31EB DUP2 DUP6 PUSH1 0x20 DUP7 ADD PUSH2 0x481B JUMP JUMPDEST DUP1 DUP5 ADD SWAP2 POP POP SWAP3 SWAP2 POP POP JUMP JUMPDEST PUSH1 0x0 DUP2 SLOAD PUSH2 0x3204 DUP2 PUSH2 0x4878 JUMP JUMPDEST PUSH2 0x320E DUP2 DUP7 PUSH2 0x45E7 JUMP JUMPDEST SWAP5 POP PUSH1 0x1 DUP3 AND PUSH1 0x0 DUP2 EQ PUSH2 0x3229 JUMPI PUSH1 0x1 DUP2 EQ PUSH2 0x323A JUMPI PUSH2 0x326D JUMP JUMPDEST PUSH1 0xFF NOT DUP4 AND DUP7 MSTORE DUP2 DUP7 ADD SWAP4 POP PUSH2 0x326D JUMP JUMPDEST PUSH2 0x3243 DUP6 PUSH2 0x459A JUMP JUMPDEST PUSH1 0x0 JUMPDEST DUP4 DUP2 LT ISZERO PUSH2 0x3265 JUMPI DUP2 SLOAD DUP2 DUP10 ADD MSTORE PUSH1 0x1 DUP3 ADD SWAP2 POP PUSH1 0x20 DUP2 ADD SWAP1 POP PUSH2 0x3246 JUMP JUMPDEST DUP4 DUP9 ADD SWAP6 POP POP POP JUMPDEST POP POP POP SWAP3 SWAP2 POP POP JUMP JUMPDEST PUSH1 0x0 PUSH2 0x3283 PUSH1 0x13 DUP4 PUSH2 0x45E7 JUMP JUMPDEST SWAP2 POP PUSH2 0x328E DUP3 PUSH2 0x4A67 JUMP JUMPDEST PUSH1 0x13 DUP3 ADD SWAP1 POP SWAP2 SWAP1 POP JUMP JUMPDEST PUSH1 0x0 PUSH2 0x32A6 PUSH1 0x81 DUP4 PUSH2 0x45E7 JUMP JUMPDEST SWAP2 POP PUSH2 0x32B1 DUP3 PUSH2 0x4A90 JUMP JUMPDEST PUSH1 0x81 DUP3 ADD SWAP1 POP SWAP2 SWAP1 POP JUMP JUMPDEST PUSH1 0x0 PUSH2 0x32C9 PUSH1 0x32 DUP4 PUSH2 0x45E7 JUMP JUMPDEST SWAP2 POP PUSH2 0x32D4 DUP3 PUSH2 0x4B51 JUMP JUMPDEST PUSH1 0x32 DUP3 ADD SWAP1 POP SWAP2 SWAP1 POP JUMP JUMPDEST PUSH1 0x0 PUSH2 0x32EC PUSH1 0x32 DUP4 PUSH2 0x45E7 JUMP JUMPDEST SWAP2 POP PUSH2 0x32F7 DUP3 PUSH2 0x4BA0 JUMP JUMPDEST PUSH1 0x32 DUP3 ADD SWAP1 POP SWAP2 SWAP1 POP JUMP JUMPDEST PUSH1 0x0 PUSH2 0x330F PUSH1 0x67 DUP4 PUSH2 0x45E7 JUMP JUMPDEST SWAP2 POP PUSH2 0x331A DUP3 PUSH2 0x4BEF JUMP JUMPDEST PUSH1 0x67 DUP3 ADD SWAP1 POP SWAP2 SWAP1 POP JUMP JUMPDEST PUSH1 0x0 PUSH2 0x3332 PUSH1 0x9 DUP4 PUSH2 0x45E7 JUMP JUMPDEST SWAP2 POP PUSH2 0x333D DUP3 PUSH2 0x4C8A JUMP JUMPDEST PUSH1 0x9 DUP3 ADD SWAP1 POP SWAP2 SWAP1 POP JUMP JUMPDEST PUSH1 0x0 PUSH2 0x3355 PUSH1 0x32 DUP4 PUSH2 0x45D6 JUMP JUMPDEST SWAP2 POP PUSH2 0x3360 DUP3 PUSH2 0x4CB3 JUMP JUMPDEST PUSH1 0x40 DUP3 ADD SWAP1 POP SWAP2 SWAP1 POP JUMP JUMPDEST PUSH1 0x0 PUSH2 0x3378 PUSH1 0x15 DUP4 PUSH2 0x45E7 JUMP JUMPDEST SWAP2 POP PUSH2 0x3383 DUP3 PUSH2 0x4D02 JUMP JUMPDEST PUSH1 0x15 DUP3 ADD SWAP1 POP SWAP2 SWAP1 POP JUMP JUMPDEST PUSH1 0x0 PUSH2 0x339B PUSH1 0x13 DUP4 PUSH2 0x45E7 JUMP JUMPDEST SWAP2 POP PUSH2 0x33A6 DUP3 PUSH2 0x4D2B JUMP JUMPDEST PUSH1 0x13 DUP3 ADD SWAP1 POP SWAP2 SWAP1 POP JUMP JUMPDEST PUSH1 0x0 PUSH2 0x33BE PUSH1 0x1C DUP4 PUSH2 0x45D6 JUMP JUMPDEST SWAP2 POP PUSH2 0x33C9 DUP3 PUSH2 0x4D54 JUMP JUMPDEST PUSH1 0x20 DUP3 ADD SWAP1 POP SWAP2 SWAP1 POP JUMP JUMPDEST PUSH1 0x0 PUSH2 0x33E1 PUSH1 0x8 DUP4 PUSH2 0x45E7 JUMP JUMPDEST SWAP2 POP PUSH2 0x33EC DUP3 PUSH2 0x4D7D JUMP JUMPDEST PUSH1 0x8 DUP3 ADD SWAP1 POP SWAP2 SWAP1 POP JUMP JUMPDEST PUSH1 0x0 PUSH2 0x3404 PUSH1 0x12 DUP4 PUSH2 0x45D6 JUMP JUMPDEST SWAP2 POP PUSH2 0x340F DUP3 PUSH2 0x4DA6 JUMP JUMPDEST PUSH1 0x20 DUP3 ADD SWAP1 POP SWAP2 SWAP1 POP JUMP JUMPDEST PUSH1 0x0 PUSH2 0x3427 PUSH1 0x24 DUP4 PUSH2 0x45D6 JUMP JUMPDEST SWAP2 POP PUSH2 0x3432 DUP3 PUSH2 0x4DCF JUMP JUMPDEST PUSH1 0x40 DUP3 ADD SWAP1 POP SWAP2 SWAP1 POP JUMP JUMPDEST PUSH1 0x0 PUSH2 0x344A PUSH1 0x19 DUP4 PUSH2 0x45D6 JUMP JUMPDEST SWAP2 POP PUSH2 0x3455 DUP3 PUSH2 0x4E1E JUMP JUMPDEST PUSH1 0x20 DUP3 ADD SWAP1 POP SWAP2 SWAP1 POP JUMP JUMPDEST PUSH1 0x0 PUSH2 0x346D PUSH1 0x2B DUP4 PUSH2 0x45E7 JUMP JUMPDEST SWAP2 POP PUSH2 0x3478 DUP3 PUSH2 0x4E47 JUMP JUMPDEST PUSH1 0x2B DUP3 ADD SWAP1 POP SWAP2 SWAP1 POP JUMP JUMPDEST PUSH1 0x0 PUSH2 0x3490 PUSH1 0x5 DUP4 PUSH2 0x45D6 JUMP JUMPDEST SWAP2 POP PUSH2 0x349B DUP3 PUSH2 0x4E96 JUMP JUMPDEST PUSH1 0x20 DUP3 ADD SWAP1 POP SWAP2 SWAP1 POP JUMP JUMPDEST PUSH1 0x0 PUSH2 0x34B3 PUSH1 0x2C DUP4 PUSH2 0x45E7 JUMP JUMPDEST SWAP2 POP PUSH2 0x34BE DUP3 PUSH2 0x4EBF JUMP JUMPDEST PUSH1 0x2C DUP3 ADD SWAP1 POP SWAP2 SWAP1 POP JUMP JUMPDEST PUSH1 0x0 PUSH2 0x34D6 PUSH1 0x28 DUP4 PUSH2 0x45E7 JUMP JUMPDEST SWAP2 POP PUSH2 0x34E1 DUP3 PUSH2 0x4F0E JUMP JUMPDEST PUSH1 0x28 DUP3 ADD SWAP1 POP SWAP2 SWAP1 POP JUMP JUMPDEST PUSH1 0x0 PUSH2 0x34F9 PUSH1 0x2C DUP4 PUSH2 0x45D6 JUMP JUMPDEST SWAP2 POP PUSH2 0x3504 DUP3 PUSH2 0x4F5D JUMP JUMPDEST PUSH1 0x40 DUP3 ADD SWAP1 POP SWAP2 SWAP1 POP JUMP JUMPDEST PUSH1 0x0 PUSH2 0x351C PUSH1 0x3C DUP4 PUSH2 0x45E7 JUMP JUMPDEST SWAP2 POP PUSH2 0x3527 DUP3 PUSH2 0x4FAC JUMP JUMPDEST PUSH1 0x3C DUP3 ADD SWAP1 POP SWAP2 SWAP1 POP JUMP JUMPDEST PUSH1 0x0 PUSH2 0x353F PUSH1 0x47 DUP4 PUSH2 0x45E7 JUMP JUMPDEST SWAP2 POP PUSH2 0x354A DUP3 PUSH2 0x4FFB JUMP JUMPDEST PUSH1 0x47 DUP3 ADD SWAP1 POP SWAP2 SWAP1 POP JUMP JUMPDEST PUSH1 0x0 PUSH2 0x3562 PUSH1 0x21 DUP4 PUSH2 0x45E7 JUMP JUMPDEST SWAP2 POP PUSH2 0x356D DUP3 PUSH2 0x5070 JUMP JUMPDEST PUSH1 0x21 DUP3 ADD SWAP1 POP SWAP2 SWAP1 POP JUMP JUMPDEST PUSH1 0x0 PUSH2 0x3585 PUSH1 0x35 DUP4 PUSH2 0x45E7 JUMP JUMPDEST SWAP2 POP PUSH2 0x3590 DUP3 PUSH2 0x50BF JUMP JUMPDEST PUSH1 0x35 DUP3 ADD SWAP1 POP SWAP2 SWAP1 POP JUMP JUMPDEST PUSH1 0x0 PUSH2 0x35A8 PUSH1 0x5E DUP4 PUSH2 0x45E7 JUMP JUMPDEST SWAP2 POP PUSH2 0x35B3 DUP3 PUSH2 0x510E JUMP JUMPDEST PUSH1 0x5E DUP3 ADD SWAP1 POP SWAP2 SWAP1 POP JUMP JUMPDEST PUSH1 0x0 PUSH2 0x35CB PUSH1 0x1 DUP4 PUSH2 0x45E7 JUMP JUMPDEST SWAP2 POP PUSH2 0x35D6 DUP3 PUSH2 0x5183 JUMP JUMPDEST PUSH1 0x1 DUP3 ADD SWAP1 POP SWAP2 SWAP1 POP JUMP JUMPDEST PUSH1 0x0 PUSH2 0x35EE PUSH1 0xD DUP4 PUSH2 0x45D6 JUMP JUMPDEST SWAP2 POP PUSH2 0x35F9 DUP3 PUSH2 0x51AC JUMP JUMPDEST PUSH1 0x20 DUP3 ADD SWAP1 POP SWAP2 SWAP1 POP JUMP JUMPDEST PUSH1 0x0 PUSH2 0x3611 PUSH1 0xF DUP4 PUSH2 0x45D6 JUMP JUMPDEST SWAP2 POP PUSH2 0x361C DUP3 PUSH2 0x51D5 JUMP JUMPDEST PUSH1 0x20 DUP3 ADD SWAP1 POP SWAP2 SWAP1 POP JUMP JUMPDEST PUSH1 0x0 PUSH2 0x3634 PUSH1 0x5A DUP4 PUSH2 0x45E7 JUMP JUMPDEST SWAP2 POP PUSH2 0x363F DUP3 PUSH2 0x51FE JUMP JUMPDEST PUSH1 0x5A DUP3 ADD SWAP1 POP SWAP2 SWAP1 POP JUMP JUMPDEST PUSH1 0x0 PUSH2 0x3657 PUSH1 0x38 DUP4 PUSH2 0x45D6 JUMP JUMPDEST SWAP2 POP PUSH2 0x3662 DUP3 PUSH2 0x5273 JUMP JUMPDEST PUSH1 0x40 DUP3 ADD SWAP1 POP SWAP2 SWAP1 POP JUMP JUMPDEST PUSH1 0x0 PUSH2 0x367A PUSH1 0x4 DUP4 PUSH2 0x45E7 JUMP JUMPDEST SWAP2 POP PUSH2 0x3685 DUP3 PUSH2 0x52C2 JUMP JUMPDEST PUSH1 0x4 DUP3 ADD SWAP1 POP SWAP2 SWAP1 POP JUMP JUMPDEST PUSH1 0x0 PUSH2 0x369D PUSH1 0x2A DUP4 PUSH2 0x45D6 JUMP JUMPDEST SWAP2 POP PUSH2 0x36A8 DUP3 PUSH2 0x52EB JUMP JUMPDEST PUSH1 0x40 DUP3 ADD SWAP1 POP SWAP2 SWAP1 POP JUMP JUMPDEST PUSH1 0x0 PUSH2 0x36C0 PUSH1 0x47 DUP4 PUSH2 0x45E7 JUMP JUMPDEST SWAP2 POP PUSH2 0x36CB DUP3 PUSH2 0x533A JUMP JUMPDEST PUSH1 0x47 DUP3 ADD SWAP1 POP SWAP2 SWAP1 POP JUMP JUMPDEST PUSH1 0x0 PUSH2 0x36E3 PUSH1 0x29 DUP4 PUSH2 0x45D6 JUMP JUMPDEST SWAP2 POP PUSH2 0x36EE DUP3 PUSH2 0x53AF JUMP JUMPDEST PUSH1 0x40 DUP3 ADD SWAP1 POP SWAP2 SWAP1 POP JUMP JUMPDEST PUSH1 0x0 PUSH2 0x3706 PUSH1 0x37 DUP4 PUSH2 0x45E7 JUMP JUMPDEST SWAP2 POP PUSH2 0x3711 DUP3 PUSH2 0x53FE JUMP JUMPDEST PUSH1 0x37 DUP3 ADD SWAP1 POP SWAP2 SWAP1 POP JUMP JUMPDEST PUSH1 0x0 PUSH2 0x3729 PUSH1 0x62 DUP4 PUSH2 0x45E7 JUMP JUMPDEST SWAP2 POP PUSH2 0x3734 DUP3 PUSH2 0x544D JUMP JUMPDEST PUSH1 0x62 DUP3 ADD SWAP1 POP SWAP2 SWAP1 POP JUMP JUMPDEST PUSH1 0x0 PUSH2 0x374C PUSH1 0x2 DUP4 PUSH2 0x45E7 JUMP JUMPDEST SWAP2 POP PUSH2 0x3757 DUP3 PUSH2 0x54E8 JUMP JUMPDEST PUSH1 0x2 DUP3 ADD SWAP1 POP SWAP2 SWAP1 POP JUMP JUMPDEST PUSH1 0x0 PUSH2 0x376F PUSH1 0x7 DUP4 PUSH2 0x45E7 JUMP JUMPDEST SWAP2 POP PUSH2 0x377A DUP3 PUSH2 0x5511 JUMP JUMPDEST PUSH1 0x7 DUP3 ADD SWAP1 POP SWAP2 SWAP1 POP JUMP JUMPDEST PUSH1 0x0 PUSH2 0x3792 PUSH1 0x26 DUP4 PUSH2 0x45E7 JUMP JUMPDEST SWAP2 POP PUSH2 0x379D DUP3 PUSH2 0x553A JUMP JUMPDEST PUSH1 0x26 DUP3 ADD SWAP1 POP SWAP2 SWAP1 POP JUMP JUMPDEST PUSH1 0x0 PUSH2 0x37B5 PUSH1 0x20 DUP4 PUSH2 0x45D6 JUMP JUMPDEST SWAP2 POP PUSH2 0x37C0 DUP3 PUSH2 0x5589 JUMP JUMPDEST PUSH1 0x20 DUP3 ADD SWAP1 POP SWAP2 SWAP1 POP JUMP JUMPDEST PUSH1 0x0 PUSH2 0x37D8 PUSH1 0xD DUP4 PUSH2 0x45E7 JUMP JUMPDEST SWAP2 POP PUSH2 0x37E3 DUP3 PUSH2 0x55B2 JUMP JUMPDEST PUSH1 0xD DUP3 ADD SWAP1 POP SWAP2 SWAP1 POP JUMP JUMPDEST PUSH1 0x0 PUSH2 0x37FB PUSH1 0x2C DUP4 PUSH2 0x45D6 JUMP JUMPDEST SWAP2 POP PUSH2 0x3806 DUP3 PUSH2 0x55DB JUMP JUMPDEST PUSH1 0x40 DUP3 ADD SWAP1 POP SWAP2 SWAP1 POP JUMP JUMPDEST PUSH1 0x0 PUSH2 0x381E PUSH1 0x3A DUP4 PUSH2 0x45E7 JUMP JUMPDEST SWAP2 POP PUSH2 0x3829 DUP3 PUSH2 0x562A JUMP JUMPDEST PUSH1 0x3A DUP3 ADD SWAP1 POP SWAP2 SWAP1 POP JUMP JUMPDEST PUSH1 0x0 PUSH2 0x3841 PUSH1 0x33 DUP4 PUSH2 0x45E7 JUMP JUMPDEST SWAP2 POP PUSH2 0x384C DUP3 PUSH2 0x5679 JUMP JUMPDEST PUSH1 0x33 DUP3 ADD SWAP1 POP SWAP2 SWAP1 POP JUMP JUMPDEST PUSH1 0x0 PUSH2 0x3864 PUSH1 0x12 DUP4 PUSH2 0x45E7 JUMP JUMPDEST SWAP2 POP PUSH2 0x386F DUP3 PUSH2 0x56C8 JUMP JUMPDEST PUSH1 0x12 DUP3 ADD SWAP1 POP SWAP2 SWAP1 POP JUMP JUMPDEST PUSH1 0x0 PUSH2 0x3887 PUSH1 0x30 DUP4 PUSH2 0x45E7 JUMP JUMPDEST SWAP2 POP PUSH2 0x3892 DUP3 PUSH2 0x56F1 JUMP JUMPDEST PUSH1 0x30 DUP3 ADD SWAP1 POP SWAP2 SWAP1 POP JUMP JUMPDEST PUSH1 0x0 PUSH2 0x38AA PUSH1 0x14 DUP4 PUSH2 0x45E7 JUMP JUMPDEST SWAP2 POP PUSH2 0x38B5 DUP3 PUSH2 0x5740 JUMP JUMPDEST PUSH1 0x14 DUP3 ADD SWAP1 POP SWAP2 SWAP1 POP JUMP JUMPDEST PUSH1 0x0 PUSH2 0x38CD PUSH1 0x6 DUP4 PUSH2 0x45E7 JUMP JUMPDEST SWAP2 POP PUSH2 0x38D8 DUP3 PUSH2 0x5769 JUMP JUMPDEST PUSH1 0x6 DUP3 ADD SWAP1 POP SWAP2 SWAP1 POP JUMP JUMPDEST PUSH1 0x0 PUSH2 0x38F0 PUSH1 0x29 DUP4 PUSH2 0x45D6 JUMP JUMPDEST SWAP2 POP PUSH2 0x38FB DUP3 PUSH2 0x5792 JUMP JUMPDEST PUSH1 0x40 DUP3 ADD SWAP1 POP SWAP2 SWAP1 POP JUMP JUMPDEST PUSH1 0x0 PUSH2 0x3913 PUSH1 0x2F DUP4 PUSH2 0x45D6 JUMP JUMPDEST SWAP2 POP PUSH2 0x391E DUP3 PUSH2 0x57E1 JUMP JUMPDEST PUSH1 0x40 DUP3 ADD SWAP1 POP SWAP2 SWAP1 POP JUMP JUMPDEST PUSH1 0x0 PUSH2 0x3936 PUSH1 0x4D DUP4 PUSH2 0x45E7 JUMP JUMPDEST SWAP2 POP PUSH2 0x3941 DUP3 PUSH2 0x5830 JUMP JUMPDEST PUSH1 0x4D DUP3 ADD SWAP1 POP SWAP2 SWAP1 POP JUMP JUMPDEST PUSH1 0x0 PUSH2 0x3959 PUSH1 0x13 DUP4 PUSH2 0x45E7 JUMP JUMPDEST SWAP2 POP PUSH2 0x3964 DUP3 PUSH2 0x58A5 JUMP JUMPDEST PUSH1 0x13 DUP3 ADD SWAP1 POP SWAP2 SWAP1 POP JUMP JUMPDEST PUSH1 0x0 PUSH2 0x397C PUSH1 0x29 DUP4 PUSH2 0x45E7 JUMP JUMPDEST SWAP2 POP PUSH2 0x3987 DUP3 PUSH2 0x58CE JUMP JUMPDEST PUSH1 0x29 DUP3 ADD SWAP1 POP SWAP2 SWAP1 POP JUMP JUMPDEST PUSH1 0x0 PUSH2 0x399F PUSH1 0x27 DUP4 PUSH2 0x45E7 JUMP JUMPDEST SWAP2 POP PUSH2 0x39AA DUP3 PUSH2 0x591D JUMP JUMPDEST PUSH1 0x27 DUP3 ADD SWAP1 POP SWAP2 SWAP1 POP JUMP JUMPDEST PUSH1 0x0 PUSH2 0x39C2 PUSH1 0x25 DUP4 PUSH2 0x45E7 JUMP JUMPDEST SWAP2 POP PUSH2 0x39CD DUP3 PUSH2 0x596C JUMP JUMPDEST PUSH1 0x25 DUP3 ADD SWAP1 POP SWAP2 SWAP1 POP JUMP JUMPDEST PUSH1 0x0 PUSH2 0x39E5 PUSH1 0x3 DUP4 PUSH2 0x45E7 JUMP JUMPDEST SWAP2 POP PUSH2 0x39F0 DUP3 PUSH2 0x59BB JUMP JUMPDEST PUSH1 0x3 DUP3 ADD SWAP1 POP SWAP2 SWAP1 POP JUMP JUMPDEST PUSH1 0x0 PUSH2 0x3A08 PUSH1 0x21 DUP4 PUSH2 0x45D6 JUMP JUMPDEST SWAP2 POP PUSH2 0x3A13 DUP3 PUSH2 0x59E4 JUMP JUMPDEST PUSH1 0x40 DUP3 ADD SWAP1 POP SWAP2 SWAP1 POP JUMP JUMPDEST PUSH1 0x0 PUSH2 0x3A2B PUSH1 0x1D DUP4 PUSH2 0x45E7 JUMP JUMPDEST SWAP2 POP PUSH2 0x3A36 DUP3 PUSH2 0x5A33 JUMP JUMPDEST PUSH1 0x1D DUP3 ADD SWAP1 POP SWAP2 SWAP1 POP JUMP JUMPDEST PUSH1 0x0 PUSH2 0x3A4E PUSH1 0x10 DUP4 PUSH2 0x45D6 JUMP JUMPDEST SWAP2 POP PUSH2 0x3A59 DUP3 PUSH2 0x5A5C JUMP JUMPDEST PUSH1 0x20 DUP3 ADD SWAP1 POP SWAP2 SWAP1 POP JUMP JUMPDEST PUSH1 0x0 PUSH2 0x3A71 PUSH1 0x5 DUP4 PUSH2 0x45D6 JUMP JUMPDEST SWAP2 POP PUSH2 0x3A7C DUP3 PUSH2 0x5A85 JUMP JUMPDEST PUSH1 0x20 DUP3 ADD SWAP1 POP SWAP2 SWAP1 POP JUMP JUMPDEST PUSH1 0x0 PUSH2 0x3A94 PUSH1 0xB DUP4 PUSH2 0x45D6 JUMP JUMPDEST SWAP2 POP PUSH2 0x3A9F DUP3 PUSH2 0x5AAE JUMP JUMPDEST PUSH1 0x20 DUP3 ADD SWAP1 POP SWAP2 SWAP1 POP JUMP JUMPDEST PUSH1 0x0 PUSH2 0x3AB7 PUSH1 0x62 DUP4 PUSH2 0x45E7 JUMP JUMPDEST SWAP2 POP PUSH2 0x3AC2 DUP3 PUSH2 0x5AD7 JUMP JUMPDEST PUSH1 0x62 DUP3 ADD SWAP1 POP SWAP2 SWAP1 POP JUMP JUMPDEST PUSH1 0x0 PUSH2 0x3ADA PUSH1 0x31 DUP4 PUSH2 0x45D6 JUMP JUMPDEST SWAP2 POP PUSH2 0x3AE5 DUP3 PUSH2 0x5B72 JUMP JUMPDEST PUSH1 0x40 DUP3 ADD SWAP1 POP SWAP2 SWAP1 POP JUMP JUMPDEST PUSH1 0x0 PUSH2 0x3AFD PUSH1 0xA DUP4 PUSH2 0x45E7 JUMP JUMPDEST SWAP2 POP PUSH2 0x3B08 DUP3 PUSH2 0x5BC1 JUMP JUMPDEST PUSH1 0xA DUP3 ADD SWAP1 POP SWAP2 SWAP1 POP JUMP JUMPDEST PUSH1 0x0 PUSH2 0x3B20 PUSH1 0x13 DUP4 PUSH2 0x45D6 JUMP JUMPDEST SWAP2 POP PUSH2 0x3B2B DUP3 PUSH2 0x5BEA JUMP JUMPDEST PUSH1 0x20 DUP3 ADD SWAP1 POP SWAP2 SWAP1 POP JUMP JUMPDEST PUSH1 0x0 PUSH2 0x3B43 PUSH1 0x63 DUP4 PUSH2 0x45E7 JUMP JUMPDEST SWAP2 POP PUSH2 0x3B4E DUP3 PUSH2 0x5C13 JUMP JUMPDEST PUSH1 0x63 DUP3 ADD SWAP1 POP SWAP2 SWAP1 POP JUMP JUMPDEST PUSH1 0x0 PUSH2 0x3B66 PUSH1 0x6 DUP4 PUSH2 0x45E7 JUMP JUMPDEST SWAP2 POP PUSH2 0x3B71 DUP3 PUSH2 0x5CAE JUMP JUMPDEST PUSH1 0x6 DUP3 ADD SWAP1 POP SWAP2 SWAP1 POP JUMP JUMPDEST PUSH1 0x0 PUSH2 0x3B89 PUSH1 0x6 DUP4 PUSH2 0x45E7 JUMP JUMPDEST SWAP2 POP PUSH2 0x3B94 DUP3 PUSH2 0x5CD7 JUMP JUMPDEST PUSH1 0x6 DUP3 ADD SWAP1 POP SWAP2 SWAP1 POP JUMP JUMPDEST PUSH1 0x0 PUSH2 0x3BAC PUSH1 0x24 DUP4 PUSH2 0x45E7 JUMP JUMPDEST SWAP2 POP PUSH2 0x3BB7 DUP3 PUSH2 0x5D00 JUMP JUMPDEST PUSH1 0x24 DUP3 ADD SWAP1 POP SWAP2 SWAP1 POP JUMP JUMPDEST PUSH1 0x0 PUSH2 0x3BCF PUSH1 0x5B DUP4 PUSH2 0x45E7 JUMP JUMPDEST SWAP2 POP PUSH2 0x3BDA DUP3 PUSH2 0x5D4F JUMP JUMPDEST PUSH1 0x5B DUP3 ADD SWAP1 POP SWAP2 SWAP1 POP JUMP JUMPDEST PUSH1 0x0 PUSH2 0x3BF2 PUSH1 0x1A DUP4 PUSH2 0x45E7 JUMP JUMPDEST SWAP2 POP PUSH2 0x3BFD DUP3 PUSH2 0x5DC4 JUMP JUMPDEST PUSH1 0x1A DUP3 ADD SWAP1 POP SWAP2 SWAP1 POP JUMP JUMPDEST PUSH1 0x0 PUSH2 0x3C15 PUSH1 0x32 DUP4 PUSH2 0x45E7 JUMP JUMPDEST SWAP2 POP PUSH2 0x3C20 DUP3 PUSH2 0x5DED JUMP JUMPDEST PUSH1 0x32 DUP3 ADD SWAP1 POP SWAP2 SWAP1 POP JUMP JUMPDEST PUSH2 0x3C34 DUP2 PUSH2 0x47F5 JUMP JUMPDEST DUP3 MSTORE POP POP JUMP JUMPDEST PUSH2 0x3C4B PUSH2 0x3C46 DUP3 PUSH2 0x47F5 JUMP JUMPDEST PUSH2 0x4952 JUMP JUMPDEST DUP3 MSTORE POP POP JUMP JUMPDEST PUSH1 0x0 PUSH2 0x3C5D DUP3 DUP5 PUSH2 0x313D JUMP JUMPDEST PUSH1 0x20 DUP3 ADD SWAP2 POP DUP2 SWAP1 POP SWAP3 SWAP2 POP POP JUMP JUMPDEST PUSH1 0x0 PUSH2 0x3C78 DUP3 DUP6 PUSH2 0x31C6 JUMP JUMPDEST SWAP2 POP PUSH2 0x3C83 DUP3 PUSH2 0x336B JUMP JUMPDEST SWAP2 POP PUSH2 0x3C8F DUP3 DUP5 PUSH2 0x31C6 JUMP JUMPDEST SWAP2 POP DUP2 SWAP1 POP SWAP4 SWAP3 POP POP POP JUMP JUMPDEST PUSH1 0x0 PUSH2 0x3CA6 DUP3 PUSH2 0x3276 JUMP JUMPDEST SWAP2 POP PUSH2 0x3CB2 DUP3 DUP15 PUSH2 0x31C6 JUMP JUMPDEST SWAP2 POP PUSH2 0x3CBD DUP3 PUSH2 0x3532 JUMP JUMPDEST SWAP2 POP PUSH2 0x3CC9 DUP3 DUP14 PUSH2 0x31C6 JUMP JUMPDEST SWAP2 POP PUSH2 0x3CD4 DUP3 PUSH2 0x35BE JUMP JUMPDEST SWAP2 POP PUSH2 0x3CE0 DUP3 DUP13 PUSH2 0x31C6 JUMP JUMPDEST SWAP2 POP PUSH2 0x3CEB DUP3 PUSH2 0x35BE JUMP JUMPDEST SWAP2 POP PUSH2 0x3CF7 DUP3 DUP12 PUSH2 0x31C6 JUMP JUMPDEST SWAP2 POP PUSH2 0x3D02 DUP3 PUSH2 0x39D8 JUMP JUMPDEST SWAP2 POP PUSH2 0x3D0E DUP3 DUP11 PUSH2 0x31C6 JUMP JUMPDEST SWAP2 POP PUSH2 0x3D1A DUP3 DUP10 PUSH2 0x31C6 JUMP JUMPDEST SWAP2 POP PUSH2 0x3D26 DUP3 DUP9 PUSH2 0x31C6 JUMP JUMPDEST SWAP2 POP PUSH2 0x3D31 DUP3 PUSH2 0x338E JUMP JUMPDEST SWAP2 POP PUSH2 0x3D3D DUP3 DUP8 PUSH2 0x31C6 JUMP JUMPDEST SWAP2 POP PUSH2 0x3D48 DUP3 PUSH2 0x36B3 JUMP JUMPDEST SWAP2 POP PUSH2 0x3D54 DUP3 DUP7 PUSH2 0x31C6 JUMP JUMPDEST SWAP2 POP PUSH2 0x3D5F DUP3 PUSH2 0x35BE JUMP JUMPDEST SWAP2 POP PUSH2 0x3D6B DUP3 DUP6 PUSH2 0x31C6 JUMP JUMPDEST SWAP2 POP PUSH2 0x3D76 DUP3 PUSH2 0x35BE JUMP JUMPDEST SWAP2 POP PUSH2 0x3D82 DUP3 DUP5 PUSH2 0x31C6 JUMP JUMPDEST SWAP2 POP PUSH2 0x3D8D DUP3 PUSH2 0x39D8 JUMP JUMPDEST SWAP2 POP DUP2 SWAP1 POP SWAP13 SWAP12 POP POP POP POP POP POP POP POP POP POP POP POP JUMP JUMPDEST PUSH1 0x0 PUSH2 0x3DAD DUP3 PUSH2 0x3302 JUMP JUMPDEST SWAP2 POP PUSH2 0x3DB9 DUP3 DUP10 PUSH2 0x31C6 JUMP JUMPDEST SWAP2 POP PUSH2 0x3DC5 DUP3 DUP9 PUSH2 0x31C6 JUMP JUMPDEST SWAP2 POP PUSH2 0x3DD0 DUP3 PUSH2 0x3578 JUMP JUMPDEST SWAP2 POP PUSH2 0x3DDB DUP3 PUSH2 0x34A6 JUMP JUMPDEST SWAP2 POP PUSH2 0x3DE7 DUP3 DUP8 PUSH2 0x31C6 JUMP JUMPDEST SWAP2 POP PUSH2 0x3DF2 DUP3 PUSH2 0x33D4 JUMP JUMPDEST SWAP2 POP PUSH2 0x3DFD DUP3 PUSH2 0x34C9 JUMP JUMPDEST SWAP2 POP PUSH2 0x3E09 DUP3 DUP7 PUSH2 0x31C6 JUMP JUMPDEST SWAP2 POP PUSH2 0x3E14 DUP3 PUSH2 0x3762 JUMP JUMPDEST SWAP2 POP PUSH2 0x3E1F DUP3 PUSH2 0x32DF JUMP JUMPDEST SWAP2 POP PUSH2 0x3E2A DUP3 PUSH2 0x3929 JUMP JUMPDEST SWAP2 POP PUSH2 0x3E35 DUP3 PUSH2 0x3992 JUMP JUMPDEST SWAP2 POP PUSH2 0x3E41 DUP3 DUP6 PUSH2 0x31F7 JUMP JUMPDEST SWAP2 POP PUSH2 0x3E4C DUP3 PUSH2 0x3762 JUMP JUMPDEST SWAP2 POP PUSH2 0x3E57 DUP3 PUSH2 0x36F9 JUMP JUMPDEST SWAP2 POP PUSH2 0x3E62 DUP3 PUSH2 0x3460 JUMP JUMPDEST SWAP2 POP PUSH2 0x3E6E DUP3 DUP5 PUSH2 0x31C6 JUMP JUMPDEST SWAP2 POP PUSH2 0x3E79 DUP3 PUSH2 0x3762 JUMP JUMPDEST SWAP2 POP PUSH2 0x3E84 DUP3 PUSH2 0x3627 JUMP JUMPDEST SWAP2 POP PUSH2 0x3E8F DUP3 PUSH2 0x3B36 JUMP JUMPDEST SWAP2 POP PUSH2 0x3E9A DUP3 PUSH2 0x359B JUMP JUMPDEST SWAP2 POP PUSH2 0x3EA5 DUP3 PUSH2 0x3BC2 JUMP JUMPDEST SWAP2 POP PUSH2 0x3EB0 DUP3 PUSH2 0x371C JUMP JUMPDEST SWAP2 POP PUSH2 0x3EBB DUP3 PUSH2 0x3299 JUMP JUMPDEST SWAP2 POP PUSH2 0x3EC6 DUP3 PUSH2 0x3B7C JUMP JUMPDEST SWAP2 POP DUP2 SWAP1 POP SWAP8 SWAP7 POP POP POP POP POP POP POP JUMP JUMPDEST PUSH1 0x0 PUSH2 0x3EE1 DUP3 PUSH2 0x3325 JUMP JUMPDEST SWAP2 POP PUSH2 0x3EED DUP3 DUP7 PUSH2 0x31C6 JUMP JUMPDEST SWAP2 POP PUSH2 0x3EF8 DUP3 PUSH2 0x3857 JUMP JUMPDEST SWAP2 POP PUSH2 0x3F04 DUP3 DUP6 PUSH2 0x31C6 JUMP JUMPDEST SWAP2 POP PUSH2 0x3F0F DUP3 PUSH2 0x37CB JUMP JUMPDEST SWAP2 POP PUSH2 0x3F1A DUP3 PUSH2 0x3BE5 JUMP JUMPDEST SWAP2 POP PUSH2 0x3F26 DUP3 DUP5 PUSH2 0x31C6 JUMP JUMPDEST SWAP2 POP PUSH2 0x3F31 DUP3 PUSH2 0x373F JUMP JUMPDEST SWAP2 POP DUP2 SWAP1 POP SWAP5 SWAP4 POP POP POP POP JUMP JUMPDEST PUSH1 0x0 PUSH2 0x3F49 DUP3 PUSH2 0x3834 JUMP JUMPDEST SWAP2 POP PUSH2 0x3F55 DUP3 DUP12 PUSH2 0x31F7 JUMP JUMPDEST SWAP2 POP PUSH2 0x3F60 DUP3 PUSH2 0x366D JUMP JUMPDEST SWAP2 POP PUSH2 0x3F6B DUP3 PUSH2 0x3811 JUMP JUMPDEST SWAP2 POP PUSH2 0x3F77 DUP3 DUP11 PUSH2 0x31F7 JUMP JUMPDEST SWAP2 POP PUSH2 0x3F82 DUP3 PUSH2 0x366D JUMP JUMPDEST SWAP2 POP PUSH2 0x3F8D DUP3 PUSH2 0x32BC JUMP JUMPDEST SWAP2 POP PUSH2 0x3F99 DUP3 DUP10 PUSH2 0x31F7 JUMP JUMPDEST SWAP2 POP PUSH2 0x3FA4 DUP3 PUSH2 0x39D8 JUMP JUMPDEST SWAP2 POP PUSH2 0x3FAF DUP3 PUSH2 0x3C08 JUMP JUMPDEST SWAP2 POP PUSH2 0x3FBB DUP3 DUP9 PUSH2 0x31F7 JUMP JUMPDEST SWAP2 POP PUSH2 0x3FC6 DUP3 PUSH2 0x366D JUMP JUMPDEST SWAP2 POP PUSH2 0x3FD1 DUP3 PUSH2 0x350F JUMP JUMPDEST SWAP2 POP PUSH2 0x3FDC DUP3 PUSH2 0x387A JUMP JUMPDEST SWAP2 POP PUSH2 0x3FE8 DUP3 DUP8 PUSH2 0x31C6 JUMP JUMPDEST SWAP2 POP PUSH2 0x3FF3 DUP3 PUSH2 0x3762 JUMP JUMPDEST SWAP2 POP PUSH2 0x3FFE DUP3 PUSH2 0x3AAA JUMP JUMPDEST SWAP2 POP PUSH2 0x4009 DUP3 PUSH2 0x3B9F JUMP JUMPDEST SWAP2 POP PUSH2 0x4015 DUP3 DUP7 PUSH2 0x31F7 JUMP JUMPDEST SWAP2 POP PUSH2 0x4020 DUP3 PUSH2 0x389D JUMP JUMPDEST SWAP2 POP PUSH2 0x402B DUP3 PUSH2 0x39B5 JUMP JUMPDEST SWAP2 POP PUSH2 0x4037 DUP3 DUP6 PUSH2 0x31F7 JUMP JUMPDEST SWAP2 POP PUSH2 0x4042 DUP3 PUSH2 0x389D JUMP JUMPDEST SWAP2 POP PUSH2 0x404D DUP3 PUSH2 0x396F JUMP JUMPDEST SWAP2 POP PUSH2 0x4059 DUP3 DUP5 PUSH2 0x31F7 JUMP JUMPDEST SWAP2 POP PUSH2 0x4064 DUP3 PUSH2 0x3555 JUMP JUMPDEST SWAP2 POP DUP2 SWAP1 POP SWAP10 SWAP9 POP POP POP POP POP POP POP POP POP JUMP JUMPDEST PUSH1 0x0 PUSH2 0x4081 DUP3 PUSH2 0x3A1E JUMP JUMPDEST SWAP2 POP PUSH2 0x408D DUP3 DUP5 PUSH2 0x31C6 JUMP JUMPDEST SWAP2 POP DUP2 SWAP1 POP SWAP3 SWAP2 POP POP JUMP JUMPDEST PUSH1 0x0 PUSH2 0x40A3 DUP3 PUSH2 0x3AF0 JUMP JUMPDEST SWAP2 POP PUSH2 0x40AF DUP3 DUP11 PUSH2 0x31C6 JUMP JUMPDEST SWAP2 POP PUSH2 0x40BA DUP3 PUSH2 0x38C0 JUMP JUMPDEST SWAP2 POP PUSH2 0x40C6 DUP3 DUP10 PUSH2 0x31C6 JUMP JUMPDEST SWAP2 POP PUSH2 0x40D1 DUP3 PUSH2 0x3B59 JUMP JUMPDEST SWAP2 POP PUSH2 0x40DD DUP3 DUP9 PUSH2 0x31C6 JUMP JUMPDEST SWAP2 POP PUSH2 0x40E8 DUP3 PUSH2 0x394C JUMP JUMPDEST SWAP2 POP PUSH2 0x40F4 DUP3 DUP8 PUSH2 0x31F7 JUMP JUMPDEST SWAP2 POP PUSH2 0x40FF DUP3 PUSH2 0x3785 JUMP JUMPDEST SWAP2 POP PUSH2 0x410B DUP3 DUP7 PUSH2 0x31C6 JUMP JUMPDEST SWAP2 POP PUSH2 0x4116 DUP3 PUSH2 0x35BE JUMP JUMPDEST SWAP2 POP PUSH2 0x4122 DUP3 DUP6 PUSH2 0x31C6 JUMP JUMPDEST SWAP2 POP PUSH2 0x412D DUP3 PUSH2 0x35BE JUMP JUMPDEST SWAP2 POP PUSH2 0x4139 DUP3 DUP5 PUSH2 0x31C6 JUMP JUMPDEST SWAP2 POP PUSH2 0x4144 DUP3 PUSH2 0x39D8 JUMP JUMPDEST SWAP2 POP DUP2 SWAP1 POP SWAP9 SWAP8 POP POP POP POP POP POP POP POP JUMP JUMPDEST PUSH1 0x0 PUSH2 0x4161 DUP3 DUP6 PUSH2 0x3C3A JUMP JUMPDEST PUSH1 0x20 DUP3 ADD SWAP2 POP PUSH2 0x4171 DUP3 DUP5 PUSH2 0x3117 JUMP JUMPDEST PUSH1 0x14 DUP3 ADD SWAP2 POP DUP2 SWAP1 POP SWAP4 SWAP3 POP POP POP JUMP JUMPDEST PUSH1 0x0 PUSH1 0x20 DUP3 ADD SWAP1 POP PUSH2 0x4196 PUSH1 0x0 DUP4 ADD DUP5 PUSH2 0x3108 JUMP JUMPDEST SWAP3 SWAP2 POP POP JUMP JUMPDEST PUSH1 0x0 PUSH1 0x20 DUP3 ADD SWAP1 POP PUSH2 0x41B1 PUSH1 0x0 DUP4 ADD DUP5 PUSH2 0x30F9 JUMP JUMPDEST SWAP3 SWAP2 POP POP JUMP JUMPDEST PUSH1 0x0 PUSH1 0x80 DUP3 ADD SWAP1 POP PUSH2 0x41CC PUSH1 0x0 DUP4 ADD DUP8 PUSH2 0x3108 JUMP JUMPDEST PUSH2 0x41D9 PUSH1 0x20 DUP4 ADD DUP7 PUSH2 0x3108 JUMP JUMPDEST PUSH2 0x41E6 PUSH1 0x40 DUP4 ADD DUP6 PUSH2 0x3C2B JUMP JUMPDEST DUP2 DUP2 SUB PUSH1 0x60 DUP4 ADD MSTORE PUSH2 0x41F8 DUP2 DUP5 PUSH2 0x3154 JUMP JUMPDEST SWAP1 POP SWAP6 SWAP5 POP POP POP POP POP JUMP JUMPDEST PUSH1 0x0 PUSH1 0x20 DUP3 ADD SWAP1 POP PUSH2 0x4218 PUSH1 0x0 DUP4 ADD DUP5 PUSH2 0x312E JUMP JUMPDEST SWAP3 SWAP2 POP POP JUMP JUMPDEST PUSH1 0x0 PUSH1 0x20 DUP3 ADD SWAP1 POP DUP2 DUP2 SUB PUSH1 0x0 DUP4 ADD MSTORE PUSH2 0x4238 DUP2 DUP5 PUSH2 0x318D JUMP JUMPDEST SWAP1 POP SWAP3 SWAP2 POP POP JUMP JUMPDEST PUSH1 0x0 PUSH1 0x20 DUP3 ADD SWAP1 POP DUP2 DUP2 SUB PUSH1 0x0 DUP4 ADD MSTORE PUSH2 0x4259 DUP2 PUSH2 0x3348 JUMP JUMPDEST SWAP1 POP SWAP2 SWAP1 POP JUMP JUMPDEST PUSH1 0x0 PUSH1 0x20 DUP3 ADD SWAP1 POP DUP2 DUP2 SUB PUSH1 0x0 DUP4 ADD MSTORE PUSH2 0x4279 DUP2 PUSH2 0x33B1 JUMP JUMPDEST SWAP1 POP SWAP2 SWAP1 POP JUMP JUMPDEST PUSH1 0x0 PUSH1 0x20 DUP3 ADD SWAP1 POP DUP2 DUP2 SUB PUSH1 0x0 DUP4 ADD MSTORE PUSH2 0x4299 DUP2 PUSH2 0x33F7 JUMP JUMPDEST SWAP1 POP SWAP2 SWAP1 POP JUMP JUMPDEST PUSH1 0x0 PUSH1 0x20 DUP3 ADD SWAP1 POP DUP2 DUP2 SUB PUSH1 0x0 DUP4 ADD MSTORE PUSH2 0x42B9 DUP2 PUSH2 0x341A JUMP JUMPDEST SWAP1 POP SWAP2 SWAP1 POP JUMP JUMPDEST PUSH1 0x0 PUSH1 0x20 DUP3 ADD SWAP1 POP DUP2 DUP2 SUB PUSH1 0x0 DUP4 ADD MSTORE PUSH2 0x42D9 DUP2 PUSH2 0x343D JUMP JUMPDEST SWAP1 POP SWAP2 SWAP1 POP JUMP JUMPDEST PUSH1 0x0 PUSH1 0x20 DUP3 ADD SWAP1 POP DUP2 DUP2 SUB PUSH1 0x0 DUP4 ADD MSTORE PUSH2 0x42F9 DUP2 PUSH2 0x3483 JUMP JUMPDEST SWAP1 POP SWAP2 SWAP1 POP JUMP JUMPDEST PUSH1 0x0 PUSH1 0x20 DUP3 ADD SWAP1 POP DUP2 DUP2 SUB PUSH1 0x0 DUP4 ADD MSTORE PUSH2 0x4319 DUP2 PUSH2 0x34EC JUMP JUMPDEST SWAP1 POP SWAP2 SWAP1 POP JUMP JUMPDEST PUSH1 0x0 PUSH1 0x20 DUP3 ADD SWAP1 POP DUP2 DUP2 SUB PUSH1 0x0 DUP4 ADD MSTORE PUSH2 0x4339 DUP2 PUSH2 0x35E1 JUMP JUMPDEST SWAP1 POP SWAP2 SWAP1 POP JUMP JUMPDEST PUSH1 0x0 PUSH1 0x20 DUP3 ADD SWAP1 POP DUP2 DUP2 SUB PUSH1 0x0 DUP4 ADD MSTORE PUSH2 0x4359 DUP2 PUSH2 0x3604 JUMP JUMPDEST SWAP1 POP SWAP2 SWAP1 POP JUMP JUMPDEST PUSH1 0x0 PUSH1 0x20 DUP3 ADD SWAP1 POP DUP2 DUP2 SUB PUSH1 0x0 DUP4 ADD MSTORE PUSH2 0x4379 DUP2 PUSH2 0x364A JUMP JUMPDEST SWAP1 POP SWAP2 SWAP1 POP JUMP JUMPDEST PUSH1 0x0 PUSH1 0x20 DUP3 ADD SWAP1 POP DUP2 DUP2 SUB PUSH1 0x0 DUP4 ADD MSTORE PUSH2 0x4399 DUP2 PUSH2 0x3690 JUMP JUMPDEST SWAP1 POP SWAP2 SWAP1 POP JUMP JUMPDEST PUSH1 0x0 PUSH1 0x20 DUP3 ADD SWAP1 POP DUP2 DUP2 SUB PUSH1 0x0 DUP4 ADD MSTORE PUSH2 0x43B9 DUP2 PUSH2 0x36D6 JUMP JUMPDEST SWAP1 POP SWAP2 SWAP1 POP JUMP JUMPDEST PUSH1 0x0 PUSH1 0x20 DUP3 ADD SWAP1 POP DUP2 DUP2 SUB PUSH1 0x0 DUP4 ADD MSTORE PUSH2 0x43D9 DUP2 PUSH2 0x37A8 JUMP JUMPDEST SWAP1 POP SWAP2 SWAP1 POP JUMP JUMPDEST PUSH1 0x0 PUSH1 0x20 DUP3 ADD SWAP1 POP DUP2 DUP2 SUB PUSH1 0x0 DUP4 ADD MSTORE PUSH2 0x43F9 DUP2 PUSH2 0x37EE JUMP JUMPDEST SWAP1 POP SWAP2 SWAP1 POP JUMP JUMPDEST PUSH1 0x0 PUSH1 0x20 DUP3 ADD SWAP1 POP DUP2 DUP2 SUB PUSH1 0x0 DUP4 ADD MSTORE PUSH2 0x4419 DUP2 PUSH2 0x38E3 JUMP JUMPDEST SWAP1 POP SWAP2 SWAP1 POP JUMP JUMPDEST PUSH1 0x0 PUSH1 0x20 DUP3 ADD SWAP1 POP DUP2 DUP2 SUB PUSH1 0x0 DUP4 ADD MSTORE PUSH2 0x4439 DUP2 PUSH2 0x3906 JUMP JUMPDEST SWAP1 POP SWAP2 SWAP1 POP JUMP JUMPDEST PUSH1 0x0 PUSH1 0x20 DUP3 ADD SWAP1 POP DUP2 DUP2 SUB PUSH1 0x0 DUP4 ADD MSTORE PUSH2 0x4459 DUP2 PUSH2 0x39FB JUMP JUMPDEST SWAP1 POP SWAP2 SWAP1 POP JUMP JUMPDEST PUSH1 0x0 PUSH1 0x20 DUP3 ADD SWAP1 POP DUP2 DUP2 SUB PUSH1 0x0 DUP4 ADD MSTORE PUSH2 0x4479 DUP2 PUSH2 0x3A41 JUMP JUMPDEST SWAP1 POP SWAP2 SWAP1 POP JUMP JUMPDEST PUSH1 0x0 PUSH1 0x20 DUP3 ADD SWAP1 POP DUP2 DUP2 SUB PUSH1 0x0 DUP4 ADD MSTORE PUSH2 0x4499 DUP2 PUSH2 0x3A64 JUMP JUMPDEST SWAP1 POP SWAP2 SWAP1 POP JUMP JUMPDEST PUSH1 0x0 PUSH1 0x20 DUP3 ADD SWAP1 POP DUP2 DUP2 SUB PUSH1 0x0 DUP4 ADD MSTORE PUSH2 0x44B9 DUP2 PUSH2 0x3A87 JUMP JUMPDEST SWAP1 POP SWAP2 SWAP1 POP JUMP JUMPDEST PUSH1 0x0 PUSH1 0x20 DUP3 ADD SWAP1 POP DUP2 DUP2 SUB PUSH1 0x0 DUP4 ADD MSTORE PUSH2 0x44D9 DUP2 PUSH2 0x3ACD JUMP JUMPDEST SWAP1 POP SWAP2 SWAP1 POP JUMP JUMPDEST PUSH1 0x0 PUSH1 0x20 DUP3 ADD SWAP1 POP DUP2 DUP2 SUB PUSH1 0x0 DUP4 ADD MSTORE PUSH2 0x44F9 DUP2 PUSH2 0x3B13 JUMP JUMPDEST SWAP1 POP SWAP2 SWAP1 POP JUMP JUMPDEST PUSH1 0x0 PUSH1 0x20 DUP3 ADD SWAP1 POP PUSH2 0x4515 PUSH1 0x0 DUP4 ADD DUP5 PUSH2 0x3C2B JUMP JUMPDEST SWAP3 SWAP2 POP POP JUMP JUMPDEST PUSH1 0x0 PUSH1 0x40 DUP3 ADD SWAP1 POP PUSH2 0x4530 PUSH1 0x0 DUP4 ADD DUP6 PUSH2 0x3C2B JUMP JUMPDEST PUSH2 0x453D PUSH1 0x20 DUP4 ADD DUP5 PUSH2 0x3108 JUMP JUMPDEST SWAP4 SWAP3 POP POP POP JUMP JUMPDEST PUSH1 0x0 PUSH2 0x454E PUSH2 0x455F JUMP JUMPDEST SWAP1 POP PUSH2 0x455A DUP3 DUP3 PUSH2 0x48AA JUMP JUMPDEST SWAP2 SWAP1 POP JUMP JUMPDEST PUSH1 0x0 PUSH1 0x40 MLOAD SWAP1 POP SWAP1 JUMP JUMPDEST PUSH1 0x0 PUSH8 0xFFFFFFFFFFFFFFFF DUP3 GT ISZERO PUSH2 0x4584 JUMPI PUSH2 0x4583 PUSH2 0x4A1A JUMP JUMPDEST JUMPDEST PUSH2 0x458D DUP3 PUSH2 0x4A49 JUMP JUMPDEST SWAP1 POP PUSH1 0x20 DUP2 ADD SWAP1 POP SWAP2 SWAP1 POP JUMP JUMPDEST PUSH1 0x0 DUP2 SWAP1 POP DUP2 PUSH1 0x0 MSTORE PUSH1 0x20 PUSH1 0x0 KECCAK256 SWAP1 POP SWAP2 SWAP1 POP JUMP JUMPDEST PUSH1 0x0 DUP2 MLOAD SWAP1 POP SWAP2 SWAP1 POP JUMP JUMPDEST PUSH1 0x0 DUP2 MLOAD SWAP1 POP SWAP2 SWAP1 POP JUMP JUMPDEST PUSH1 0x0 DUP3 DUP3 MSTORE PUSH1 0x20 DUP3 ADD SWAP1 POP SWAP3 SWAP2 POP POP JUMP JUMPDEST PUSH1 0x0 DUP3 DUP3 MSTORE PUSH1 0x20 DUP3 ADD SWAP1 POP SWAP3 SWAP2 POP POP JUMP JUMPDEST PUSH1 0x0 DUP2 SWAP1 POP SWAP3 SWAP2 POP POP JUMP JUMPDEST PUSH1 0x0 PUSH2 0x45FD DUP3 PUSH2 0x47F5 JUMP JUMPDEST SWAP2 POP PUSH2 0x4608 DUP4 PUSH2 0x47F5 JUMP JUMPDEST SWAP3 POP DUP3 PUSH32 0xFFFFFFFFFFFFFFFFFFFFFFFFFFFFFFFFFFFFFFFFFFFFFFFFFFFFFFFFFFFFFFFF SUB DUP3 GT ISZERO PUSH2 0x463D JUMPI PUSH2 0x463C PUSH2 0x498D JUMP JUMPDEST JUMPDEST DUP3 DUP3 ADD SWAP1 POP SWAP3 SWAP2 POP POP JUMP JUMPDEST PUSH1 0x0 PUSH2 0x4653 DUP3 PUSH2 0x47FF JUMP JUMPDEST SWAP2 POP PUSH2 0x465E DUP4 PUSH2 0x47FF JUMP JUMPDEST SWAP3 POP DUP3 PUSH1 0xFF SUB DUP3 GT ISZERO PUSH2 0x4674 JUMPI PUSH2 0x4673 PUSH2 0x498D JUMP JUMPDEST JUMPDEST DUP3 DUP3 ADD SWAP1 POP SWAP3 SWAP2 POP POP JUMP JUMPDEST PUSH1 0x0 PUSH2 0x468A DUP3 PUSH2 0x47F5 JUMP JUMPDEST SWAP2 POP PUSH2 0x4695 DUP4 PUSH2 0x47F5 JUMP JUMPDEST SWAP3 POP DUP3 PUSH2 0x46A5 JUMPI PUSH2 0x46A4 PUSH2 0x49BC JUMP JUMPDEST JUMPDEST DUP3 DUP3 DIV SWAP1 POP SWAP3 SWAP2 POP POP JUMP JUMPDEST PUSH1 0x0 PUSH2 0x46BB DUP3 PUSH2 0x47FF JUMP JUMPDEST SWAP2 POP PUSH2 0x46C6 DUP4 PUSH2 0x47FF JUMP JUMPDEST SWAP3 POP DUP3 PUSH2 0x46D6 JUMPI PUSH2 0x46D5 PUSH2 0x49BC JUMP JUMPDEST JUMPDEST DUP3 DUP3 DIV SWAP1 POP SWAP3 SWAP2 POP POP JUMP JUMPDEST PUSH1 0x0 PUSH2 0x46EC DUP3 PUSH2 0x47F5 JUMP JUMPDEST SWAP2 POP PUSH2 0x46F7 DUP4 PUSH2 0x47F5 JUMP JUMPDEST SWAP3 POP DUP2 PUSH32 0xFFFFFFFFFFFFFFFFFFFFFFFFFFFFFFFFFFFFFFFFFFFFFFFFFFFFFFFFFFFFFFFF DIV DUP4 GT DUP3 ISZERO ISZERO AND ISZERO PUSH2 0x4730 JUMPI PUSH2 0x472F PUSH2 0x498D JUMP JUMPDEST JUMPDEST DUP3 DUP3 MUL SWAP1 POP SWAP3 SWAP2 POP POP JUMP JUMPDEST PUSH1 0x0 PUSH2 0x4746 DUP3 PUSH2 0x47F5 JUMP JUMPDEST SWAP2 POP PUSH2 0x4751 DUP4 PUSH2 0x47F5 JUMP JUMPDEST SWAP3 POP DUP3 DUP3 LT ISZERO PUSH2 0x4764 JUMPI PUSH2 0x4763 PUSH2 0x498D JUMP JUMPDEST JUMPDEST DUP3 DUP3 SUB SWAP1 POP SWAP3 SWAP2 POP POP JUMP JUMPDEST PUSH1 0x0 PUSH2 0x477A DUP3 PUSH2 0x47D5 JUMP JUMPDEST SWAP1 POP SWAP2 SWAP1 POP JUMP JUMPDEST PUSH1 0x0 PUSH2 0x478C DUP3 PUSH2 0x47D5 JUMP JUMPDEST SWAP1 POP SWAP2 SWAP1 POP JUMP JUMPDEST PUSH1 0x0 DUP2 ISZERO ISZERO SWAP1 POP SWAP2 SWAP1 POP JUMP JUMPDEST PUSH1 0x0 DUP2 SWAP1 POP SWAP2 SWAP1 POP JUMP JUMPDEST PUSH1 0x0 PUSH32 0xFFFFFFFF00000000000000000000000000000000000000000000000000000000 DUP3 AND SWAP1 POP SWAP2 SWAP1 POP JUMP JUMPDEST PUSH1 0x0 PUSH20 0xFFFFFFFFFFFFFFFFFFFFFFFFFFFFFFFFFFFFFFFF DUP3 AND SWAP1 POP SWAP2 SWAP1 POP JUMP JUMPDEST PUSH1 0x0 DUP2 SWAP1 POP SWAP2 SWAP1 POP JUMP JUMPDEST PUSH1 0x0 PUSH1 0xFF DUP3 AND SWAP1 POP SWAP2 SWAP1 POP JUMP JUMPDEST DUP3 DUP2 DUP4 CALLDATACOPY PUSH1 0x0 DUP4 DUP4 ADD MSTORE POP POP POP JUMP JUMPDEST PUSH1 0x0 JUMPDEST DUP4 DUP2 LT ISZERO PUSH2 0x4839 JUMPI DUP1 DUP3 ADD MLOAD DUP2 DUP5 ADD MSTORE PUSH1 0x20 DUP2 ADD SWAP1 POP PUSH2 0x481E JUMP JUMPDEST DUP4 DUP2 GT ISZERO PUSH2 0x4848 JUMPI PUSH1 0x0 DUP5 DUP5 ADD MSTORE JUMPDEST POP POP POP POP JUMP JUMPDEST PUSH1 0x0 PUSH2 0x4859 DUP3 PUSH2 0x47F5 JUMP JUMPDEST SWAP2 POP PUSH1 0x0 DUP3 EQ ISZERO PUSH2 0x486D JUMPI PUSH2 0x486C PUSH2 0x498D JUMP JUMPDEST JUMPDEST PUSH1 0x1 DUP3 SUB SWAP1 POP SWAP2 SWAP1 POP JUMP JUMPDEST PUSH1 0x0 PUSH1 0x2 DUP3 DIV SWAP1 POP PUSH1 0x1 DUP3 AND DUP1 PUSH2 0x4890 JUMPI PUSH1 0x7F DUP3 AND SWAP2 POP JUMPDEST PUSH1 0x20 DUP3 LT DUP2 EQ ISZERO PUSH2 0x48A4 JUMPI PUSH2 0x48A3 PUSH2 0x49EB JUMP JUMPDEST JUMPDEST POP SWAP2 SWAP1 POP JUMP JUMPDEST PUSH2 0x48B3 DUP3 PUSH2 0x4A49 JUMP JUMPDEST DUP2 ADD DUP2 DUP2 LT PUSH8 0xFFFFFFFFFFFFFFFF DUP3 GT OR ISZERO PUSH2 0x48D2 JUMPI PUSH2 0x48D1 PUSH2 0x4A1A JUMP JUMPDEST JUMPDEST DUP1 PUSH1 0x40 MSTORE POP POP POP JUMP JUMPDEST PUSH1 0x0 PUSH2 0x48E6 DUP3 PUSH2 0x47F5 JUMP JUMPDEST SWAP2 POP PUSH32 0xFFFFFFFFFFFFFFFFFFFFFFFFFFFFFFFFFFFFFFFFFFFFFFFFFFFFFFFFFFFFFFFF DUP3 EQ ISZERO PUSH2 0x4919 JUMPI PUSH2 0x4918 PUSH2 0x498D JUMP JUMPDEST JUMPDEST PUSH1 0x1 DUP3 ADD SWAP1 POP SWAP2 SWAP1 POP JUMP JUMPDEST PUSH1 0x0 PUSH2 0x492F DUP3 PUSH2 0x4940 JUMP JUMPDEST SWAP1 POP SWAP2 SWAP1 POP JUMP JUMPDEST PUSH1 0x0 DUP2 SWAP1 POP SWAP2 SWAP1 POP JUMP JUMPDEST PUSH1 0x0 PUSH2 0x494B DUP3 PUSH2 0x4A5A JUMP JUMPDEST SWAP1 POP SWAP2 SWAP1 POP JUMP JUMPDEST PUSH1 0x0 DUP2 SWAP1 POP SWAP2 SWAP1 POP JUMP JUMPDEST PUSH1 0x0 PUSH2 0x4967 DUP3 PUSH2 0x47F5 JUMP JUMPDEST SWAP2 POP PUSH2 0x4972 DUP4 PUSH2 0x47F5 JUMP JUMPDEST SWAP3 POP DUP3 PUSH2 0x4982 JUMPI PUSH2 0x4981 PUSH2 0x49BC JUMP JUMPDEST JUMPDEST DUP3 DUP3 MOD SWAP1 POP SWAP3 SWAP2 POP POP JUMP JUMPDEST PUSH32 0x4E487B7100000000000000000000000000000000000000000000000000000000 PUSH1 0x0 MSTORE PUSH1 0x11 PUSH1 0x4 MSTORE PUSH1 0x24 PUSH1 0x0 REVERT JUMPDEST PUSH32 0x4E487B7100000000000000000000000000000000000000000000000000000000 PUSH1 0x0 MSTORE PUSH1 0x12 PUSH1 0x4 MSTORE PUSH1 0x24 PUSH1 0x0 REVERT JUMPDEST PUSH32 0x4E487B7100000000000000000000000000000000000000000000000000000000 PUSH1 0x0 MSTORE PUSH1 0x22 PUSH1 0x4 MSTORE PUSH1 0x24 PUSH1 0x0 REVERT JUMPDEST PUSH32 0x4E487B7100000000000000000000000000000000000000000000000000000000 PUSH1 0x0 MSTORE PUSH1 0x41 PUSH1 0x4 MSTORE PUSH1 0x24 PUSH1 0x0 REVERT JUMPDEST PUSH1 0x0 PUSH1 0x1F NOT PUSH1 0x1F DUP4 ADD AND SWAP1 POP SWAP2 SWAP1 POP JUMP JUMPDEST PUSH1 0x0 DUP2 PUSH1 0x60 SHL SWAP1 POP SWAP2 SWAP1 POP JUMP JUMPDEST PUSH32 0x3C6C696E652078313D22323335222079313D2200000000000000000000000000 PUSH1 0x0 DUP3 ADD MSTORE POP JUMP JUMPDEST PUSH32 0x3C7374796C653E2E737667426F6479207B666F6E742D66616D696C793A202243 PUSH1 0x0 DUP3 ADD MSTORE PUSH32 0x6F7572696572204E657722207D202E74696E79207B666F6E742D73697A653A36 PUSH1 0x20 DUP3 ADD MSTORE PUSH32 0x70783B207D202E736D616C6C207B666F6E742D73697A653A20313270783B7D2E PUSH1 0x40 DUP3 ADD MSTORE PUSH32 0x6D656469756D207B666F6E742D73697A653A20313870783B7D3C2F7374796C65 PUSH1 0x60 DUP3 ADD MSTORE PUSH32 0x3E00000000000000000000000000000000000000000000000000000000000000 PUSH1 0x80 DUP3 ADD MSTORE POP JUMP JUMPDEST PUSH32 0x3C7265637420793D223630222077696474683D2233303022206865696768743D PUSH1 0x0 DUP3 ADD MSTORE PUSH32 0x2231313522207374796C653D2266696C6C3A0000000000000000000000000000 PUSH1 0x20 DUP3 ADD MSTORE POP JUMP JUMPDEST PUSH32 0x3C7465787420783D2231352220793D223132302220636C6173733D226D656469 PUSH1 0x0 DUP3 ADD MSTORE PUSH32 0x756D223E524541534F4E3A3C2F746578743E0000000000000000000000000000 PUSH1 0x20 DUP3 ADD MSTORE POP JUMP JUMPDEST PUSH32 0x3C73766720636C6173733D22737667426F6479222077696474683D2233303022 PUSH1 0x0 DUP3 ADD MSTORE PUSH32 0x206865696768743D22333030222076696577426F783D22302030203330302033 PUSH1 0x20 DUP3 ADD MSTORE PUSH32 0x30302220786D6C6E733D22687474703A2F2F7777772E77332E6F72672F323030 PUSH1 0x40 DUP3 ADD MSTORE PUSH32 0x302F737667223E00000000000000000000000000000000000000000000000000 PUSH1 0x60 DUP3 ADD MSTORE POP JUMP JUMPDEST PUSH32 0x7B226E616D65223A220000000000000000000000000000000000000000000000 PUSH1 0x0 DUP3 ADD MSTORE POP JUMP JUMPDEST PUSH32 0x4552433732313A207472616E7366657220746F206E6F6E204552433732315265 PUSH1 0x0 DUP3 ADD MSTORE PUSH32 0x63656976657220696D706C656D656E7465720000000000000000000000000000 PUSH1 0x20 DUP3 ADD MSTORE POP JUMP JUMPDEST PUSH32 0x20416E63686F7220436572746966696361746520230000000000000000000000 PUSH1 0x0 DUP3 ADD MSTORE POP JUMP JUMPDEST PUSH32 0x3C6C696E652078313D22323735222079313D2200000000000000000000000000 PUSH1 0x0 DUP3 ADD MSTORE POP JUMP JUMPDEST PUSH32 0x4552433732313A20746F6B656E20616C7265616479206D696E74656400000000 PUSH1 0x0 DUP3 ADD MSTORE POP JUMP JUMPDEST PUSH32 0x313C2F746578743E000000000000000000000000000000000000000000000000 PUSH1 0x0 DUP3 ADD MSTORE POP JUMP JUMPDEST PUSH32 0x4D41585F44585F524541434845445F3130300000000000000000000000000000 PUSH1 0x0 DUP3 ADD MSTORE POP JUMP JUMPDEST PUSH32 0x4552433732313A207472616E7366657220746F20746865207A65726F20616464 PUSH1 0x0 DUP3 ADD MSTORE PUSH32 0x7265737300000000000000000000000000000000000000000000000000000000 PUSH1 0x20 DUP3 ADD MSTORE POP JUMP JUMPDEST PUSH32 0x4552433732313A20617070726F766520746F2063616C6C657200000000000000 PUSH1 0x0 DUP3 ADD MSTORE POP JUMP JUMPDEST PUSH32 0x3C7465787420783D2231352220793D2232303522207374796C653D22666F6E74 PUSH1 0x0 DUP3 ADD MSTORE PUSH32 0x2D73697A653A387078223E000000000000000000000000000000000000000000 PUSH1 0x20 DUP3 ADD MSTORE POP JUMP JUMPDEST PUSH32 0x454E444544000000000000000000000000000000000000000000000000000000 PUSH1 0x0 DUP3 ADD MSTORE POP JUMP JUMPDEST PUSH32 0x3C7465787420783D2231352220793D2238302220636C6173733D226D65646975 PUSH1 0x0 DUP3 ADD MSTORE PUSH32 0x6D223E45444954494F4E3E200000000000000000000000000000000000000000 PUSH1 0x20 DUP3 ADD MSTORE POP JUMP JUMPDEST PUSH32 0x3C7465787420783D2231352220793D223130302220636C6173733D226D656469 PUSH1 0x0 DUP3 ADD MSTORE PUSH32 0x756D223E49443E20000000000000000000000000000000000000000000000000 PUSH1 0x20 DUP3 ADD MSTORE POP JUMP JUMPDEST PUSH32 0x4552433732313A206F70657261746F7220717565727920666F72206E6F6E6578 PUSH1 0x0 DUP3 ADD MSTORE PUSH32 0x697374656E7420746F6B656E0000000000000000000000000000000000000000 PUSH1 0x20 DUP3 ADD MSTORE POP JUMP JUMPDEST PUSH32 0x3C7465787420783D2231352220793D2232352220636C6173733D226D65646975 PUSH1 0x0 DUP3 ADD MSTORE PUSH32 0x6D223E414E43484F522043455254494649434154453C2F746578743E00000000 PUSH1 0x20 DUP3 ADD MSTORE POP JUMP JUMPDEST PUSH32 0x222078323D22323335222079323D2233303022207374726F6B653D2277686974 PUSH1 0x0 DUP3 ADD MSTORE PUSH32 0x6522207374726F6B652D77696474683D22313022207374726F6B652D64617368 PUSH1 0x20 DUP3 ADD MSTORE PUSH32 0x61727261793D2200000000000000000000000000000000000000000000000000 PUSH1 0x40 DUP3 ADD MSTORE POP JUMP JUMPDEST PUSH32 0x22207374726F6B652D77696474683D2235222066696C6C3D226E6F6E6522202F PUSH1 0x0 DUP3 ADD MSTORE PUSH32 0x3E00000000000000000000000000000000000000000000000000000000000000 PUSH1 0x20 DUP3 ADD MSTORE POP JUMP JUMPDEST PUSH32 0x3C7465787420783D223231352220793D2238302220636C6173733D22736D616C PUSH1 0x0 DUP3 ADD MSTORE PUSH32 0x6C223E414E43484F5220434954593C2F746578743E0000000000000000000000 PUSH1 0x20 DUP3 ADD MSTORE POP JUMP JUMPDEST PUSH32 0x3C7465787420783D2231352220793D223235302220636C6173733D2274696E79 PUSH1 0x0 DUP3 ADD MSTORE PUSH32 0x223E6F662045617274682E2049662053706F6E736F7265642C20556E64657220 PUSH1 0x20 DUP3 ADD MSTORE PUSH32 0x53656374696F6E20362E463A20546865204265617265723C2F746578743E0000 PUSH1 0x40 DUP3 ADD MSTORE POP JUMP JUMPDEST PUSH32 0x2000000000000000000000000000000000000000000000000000000000000000 PUSH1 0x0 DUP3 ADD MSTORE POP JUMP JUMPDEST PUSH32 0x4E4F545F434F4C4C4543544F5200000000000000000000000000000000000000 PUSH1 0x0 DUP3 ADD MSTORE POP JUMP JUMPDEST PUSH32 0x4D4F524520455448204E45454445440000000000000000000000000000000000 PUSH1 0x0 DUP3 ADD MSTORE POP JUMP JUMPDEST PUSH32 0x3C7465787420783D2231352220793D223233302220636C6173733D2274696E79 PUSH1 0x0 DUP3 ADD MSTORE PUSH32 0x223E556E6465722053656374696F6E20312E43206F66207468652055706C6F61 PUSH1 0x20 DUP3 ADD MSTORE PUSH32 0x646564204D696E647320416E642048756D616E3C2F746578743E000000000000 PUSH1 0x40 DUP3 ADD MSTORE POP JUMP JUMPDEST PUSH32 0x4552433732313A20617070726F76652063616C6C6572206973206E6F74206F77 PUSH1 0x0 DUP3 ADD MSTORE PUSH32 0x6E6572206E6F7220617070726F76656420666F7220616C6C0000000000000000 PUSH1 0x20 DUP3 ADD MSTORE POP JUMP JUMPDEST PUSH32 0x22202F3E00000000000000000000000000000000000000000000000000000000 PUSH1 0x0 DUP3 ADD MSTORE POP JUMP JUMPDEST PUSH32 0x4552433732313A2062616C616E636520717565727920666F7220746865207A65 PUSH1 0x0 DUP3 ADD MSTORE PUSH32 0x726F206164647265737300000000000000000000000000000000000000000000 PUSH1 0x20 DUP3 ADD MSTORE POP JUMP JUMPDEST PUSH32 0x222078323D22323735222079323D2233303022207374726F6B653D22626C6163 PUSH1 0x0 DUP3 ADD MSTORE PUSH32 0x6B22207374726F6B652D77696474683D22313022207374726F6B652D64617368 PUSH1 0x20 DUP3 ADD MSTORE PUSH32 0x61727261793D2200000000000000000000000000000000000000000000000000 PUSH1 0x40 DUP3 ADD MSTORE POP JUMP JUMPDEST PUSH32 0x4552433732313A206F776E657220717565727920666F72206E6F6E6578697374 PUSH1 0x0 DUP3 ADD MSTORE PUSH32 0x656E7420746F6B656E0000000000000000000000000000000000000000000000 PUSH1 0x20 DUP3 ADD MSTORE POP JUMP JUMPDEST PUSH32 0x3C7465787420783D2231352220793D223139302220636C6173733D22736D616C PUSH1 0x0 DUP3 ADD MSTORE PUSH32 0x6C223E53504F4E534F5245442042593A3C2F746578743E000000000000000000 PUSH1 0x20 DUP3 ADD MSTORE POP JUMP JUMPDEST PUSH32 0x3C7465787420783D2231352220793D223237302220636C6173733D2274696E79 PUSH1 0x0 DUP3 ADD MSTORE PUSH32 0x223E556E6465722053656374696F6E20392E413A2049662044657374726F7965 PUSH1 0x20 DUP3 ADD MSTORE PUSH32 0x642C204265617265722057696C6C2042652044656C69737465642E3C2F746578 PUSH1 0x40 DUP3 ADD MSTORE PUSH32 0x743E000000000000000000000000000000000000000000000000000000000000 PUSH1 0x60 DUP3 ADD MSTORE POP JUMP JUMPDEST PUSH32 0x227D000000000000000000000000000000000000000000000000000000000000 PUSH1 0x0 DUP3 ADD MSTORE POP JUMP JUMPDEST PUSH32 0x3C2F746578743E00000000000000000000000000000000000000000000000000 PUSH1 0x0 DUP3 ADD MSTORE POP JUMP JUMPDEST PUSH32 0x22207374726F6B652D77696474683D22313022207374726F6B652D6461736861 PUSH1 0x0 DUP3 ADD MSTORE PUSH32 0x727261793D220000000000000000000000000000000000000000000000000000 PUSH1 0x20 DUP3 ADD MSTORE POP JUMP JUMPDEST PUSH32 0x4552433732313A206D696E7420746F20746865207A65726F2061646472657373 PUSH1 0x0 DUP3 ADD MSTORE POP JUMP JUMPDEST PUSH32 0x222C2022696D616765223A202200000000000000000000000000000000000000 PUSH1 0x0 DUP3 ADD MSTORE POP JUMP JUMPDEST PUSH32 0x4552433732313A20617070726F76656420717565727920666F72206E6F6E6578 PUSH1 0x0 DUP3 ADD MSTORE PUSH32 0x697374656E7420746F6B656E0000000000000000000000000000000000000000 PUSH1 0x20 DUP3 ADD MSTORE POP JUMP JUMPDEST PUSH32 0x3C7265637420793D22323035222077696474683D223330302220686569676874 PUSH1 0x0 DUP3 ADD MSTORE PUSH32 0x3D223735222072783D22313022207374796C653D2266696C6C3A000000000000 PUSH1 0x20 DUP3 ADD MSTORE POP JUMP JUMPDEST PUSH32 0x3C726563742077696474683D2233303022206865696768743D22333030222072 PUSH1 0x0 DUP3 ADD MSTORE PUSH32 0x783D22313022207374796C653D2266696C6C3A00000000000000000000000000 PUSH1 0x20 DUP3 ADD MSTORE POP JUMP JUMPDEST PUSH32 0x222C20226465736372697074696F6E223A220000000000000000000000000000 PUSH1 0x0 DUP3 ADD MSTORE POP JUMP JUMPDEST PUSH32 0x3C7465787420783D2231372220793D2235302220636C6173733D22736D616C6C PUSH1 0x0 DUP3 ADD MSTORE PUSH32 0x22206F7061636974793D22302E35223E00000000000000000000000000000000 PUSH1 0x20 DUP3 ADD MSTORE POP JUMP JUMPDEST PUSH32 0x22207374726F6B652D77696474683D2235222F3E000000000000000000000000 PUSH1 0x0 DUP3 ADD MSTORE POP JUMP JUMPDEST PUSH32 0x222079313D220000000000000000000000000000000000000000000000000000 PUSH1 0x0 DUP3 ADD MSTORE POP JUMP JUMPDEST PUSH32 0x4552433732313A207472616E73666572206F6620746F6B656E20746861742069 PUSH1 0x0 DUP3 ADD MSTORE PUSH32 0x73206E6F74206F776E0000000000000000000000000000000000000000000000 PUSH1 0x20 DUP3 ADD MSTORE POP JUMP JUMPDEST PUSH32 0x4552433732314D657461646174613A2055524920717565727920666F72206E6F PUSH1 0x0 DUP3 ADD MSTORE PUSH32 0x6E6578697374656E7420746F6B656E0000000000000000000000000000000000 PUSH1 0x20 DUP3 ADD MSTORE POP JUMP JUMPDEST PUSH32 0x3C7265637420783D2231352220793D22313235222077696474683D2232303522 PUSH1 0x0 DUP3 ADD MSTORE PUSH32 0x206865696768743D22343022207374796C653D2266696C6C3A77686974653B6F PUSH1 0x20 DUP3 ADD MSTORE PUSH32 0x7061636974793A302E35222F3E00000000000000000000000000000000000000 PUSH1 0x40 DUP3 ADD MSTORE POP JUMP JUMPDEST PUSH32 0x222079323D2233303022207374726F6B653D2200000000000000000000000000 PUSH1 0x0 DUP3 ADD MSTORE POP JUMP JUMPDEST PUSH32 0x3C7061746820643D224D203233302035352071203235202D3330203530203022 PUSH1 0x0 DUP3 ADD MSTORE PUSH32 0x207374726F6B653D220000000000000000000000000000000000000000000000 PUSH1 0x20 DUP3 ADD MSTORE POP JUMP JUMPDEST PUSH32 0x3C7465787420783D2231352220793D223134302220636C6173733D226D656469 PUSH1 0x0 DUP3 ADD MSTORE PUSH32 0x756D223E544F2000000000000000000000000000000000000000000000000000 PUSH1 0x20 DUP3 ADD MSTORE POP JUMP JUMPDEST PUSH32 0x3C7061746820643D224D20323830203535206C202D3330202D34302220737472 PUSH1 0x0 DUP3 ADD MSTORE PUSH32 0x6F6B653D22000000000000000000000000000000000000000000000000000000 PUSH1 0x20 DUP3 ADD MSTORE POP JUMP JUMPDEST PUSH32 0x222F3E0000000000000000000000000000000000000000000000000000000000 PUSH1 0x0 DUP3 ADD MSTORE POP JUMP JUMPDEST PUSH32 0x4552433732313A20617070726F76616C20746F2063757272656E74206F776E65 PUSH1 0x0 DUP3 ADD MSTORE PUSH32 0x7200000000000000000000000000000000000000000000000000000000000000 PUSH1 0x20 DUP3 ADD MSTORE POP JUMP JUMPDEST PUSH32 0x646174613A6170706C69636174696F6E2F6A736F6E3B6261736536342C000000 PUSH1 0x0 DUP3 ADD MSTORE POP JUMP JUMPDEST PUSH32 0x746F55696E74385F6F766572666C6F7700000000000000000000000000000000 PUSH1 0x0 DUP3 ADD MSTORE POP JUMP JUMPDEST PUSH32 0x4845585F4C000000000000000000000000000000000000000000000000000000 PUSH1 0x0 DUP3 ADD MSTORE POP JUMP JUMPDEST PUSH32 0x4E4F545F53544152544544000000000000000000000000000000000000000000 PUSH1 0x0 DUP3 ADD MSTORE POP JUMP JUMPDEST PUSH32 0x3C636972636C652063783D22323535222063793D2233302220723D2232302220 PUSH1 0x0 DUP3 ADD MSTORE PUSH32 0x7374726F6B653D227768697465222066696C6C3D227472616E73706172656E74 PUSH1 0x20 DUP3 ADD MSTORE PUSH32 0x22207374726F6B652D77696474683D223522206F7061636974793D22302E3722 PUSH1 0x40 DUP3 ADD MSTORE PUSH32 0x2F3E000000000000000000000000000000000000000000000000000000000000 PUSH1 0x60 DUP3 ADD MSTORE POP JUMP JUMPDEST PUSH32 0x4552433732313A207472616E736665722063616C6C6572206973206E6F74206F PUSH1 0x0 DUP3 ADD MSTORE PUSH32 0x776E6572206E6F7220617070726F766564000000000000000000000000000000 PUSH1 0x20 DUP3 ADD MSTORE POP JUMP JUMPDEST PUSH32 0x3C6C696E652078313D2200000000000000000000000000000000000000000000 PUSH1 0x0 DUP3 ADD MSTORE POP JUMP JUMPDEST PUSH32 0x746F55696E74385F6F75744F66426F756E647300000000000000000000000000 PUSH1 0x0 DUP3 ADD MSTORE POP JUMP JUMPDEST PUSH32 0x3C7465787420783D2231352220793D223234302220636C6173733D2274696E79 PUSH1 0x0 DUP3 ADD MSTORE PUSH32 0x223E436F6578697374656E636520506163743A20546865204265617265722049 PUSH1 0x20 DUP3 ADD MSTORE PUSH32 0x732052652D456E7469746C656420546F205468652046726565646F6D3C2F7465 PUSH1 0x40 DUP3 ADD MSTORE PUSH32 0x78743E0000000000000000000000000000000000000000000000000000000000 PUSH1 0x60 DUP3 ADD MSTORE POP JUMP JUMPDEST PUSH32 0x222078323D220000000000000000000000000000000000000000000000000000 PUSH1 0x0 DUP3 ADD MSTORE POP JUMP JUMPDEST PUSH32 0x3C2F7376673E0000000000000000000000000000000000000000000000000000 PUSH1 0x0 DUP3 ADD MSTORE POP JUMP JUMPDEST PUSH32 0x3C7061746820643D224D20323330203535206C203330202D343022207374726F PUSH1 0x0 DUP3 ADD MSTORE PUSH32 0x6B653D2200000000000000000000000000000000000000000000000000000000 PUSH1 0x20 DUP3 ADD MSTORE POP JUMP JUMPDEST PUSH32 0x3C7465787420783D2231352220793D223236302220636C6173733D2274696E79 PUSH1 0x0 DUP3 ADD MSTORE PUSH32 0x223E48617320496D6D6564696174652041636365737320546F2054686520496E PUSH1 0x20 DUP3 ADD MSTORE PUSH32 0x6E65722042616E6477696474682057656C6C732E3C2F746578743E0000000000 PUSH1 0x40 DUP3 ADD MSTORE POP JUMP JUMPDEST PUSH32 0x646174613A696D6167652F7376672B786D6C3B6261736536342C000000000000 PUSH1 0x0 DUP3 ADD MSTORE POP JUMP JUMPDEST PUSH32 0x3C7265637420793D22313735222077696474683D223330302220686569676874 PUSH1 0x0 DUP3 ADD MSTORE PUSH32 0x3D22343022207374796C653D2266696C6C3A0000000000000000000000000000 PUSH1 0x20 DUP3 ADD MSTORE POP JUMP JUMPDEST PUSH2 0x5E45 DUP2 PUSH2 0x476F JUMP JUMPDEST DUP2 EQ PUSH2 0x5E50 JUMPI PUSH1 0x0 DUP1 REVERT JUMPDEST POP JUMP JUMPDEST PUSH2 0x5E5C DUP2 PUSH2 0x4793 JUMP JUMPDEST DUP2 EQ PUSH2 0x5E67 JUMPI PUSH1 0x0 DUP1 REVERT JUMPDEST POP JUMP JUMPDEST PUSH2 0x5E73 DUP2 PUSH2 0x47A9 JUMP JUMPDEST DUP2 EQ PUSH2 0x5E7E JUMPI PUSH1 0x0 DUP1 REVERT JUMPDEST POP JUMP JUMPDEST PUSH2 0x5E8A DUP2 PUSH2 0x47F5 JUMP JUMPDEST DUP2 EQ PUSH2 0x5E95 JUMPI PUSH1 0x0 DUP1 REVERT JUMPDEST POP JUMP INVALID COINBASE TIMESTAMP NUMBER DIFFICULTY GASLIMIT CHAINID SELFBALANCE 0x48 0x49 0x4A 0x4B 0x4C 0x4D 0x4E 0x4F POP MLOAD MSTORE MSTORE8 SLOAD SSTORE JUMP JUMPI PC MSIZE GAS PUSH2 0x6263 PUSH5 0x6566676869 PUSH11 0x6B6C6D6E6F707172737475 PUSH23 0x7778797A303132333435363738392B2FA2646970667358 0x22 SLT KECCAK256 0x2E DUP7 0xD1 0xB1 SWAP14 0xFC EQ PUSH22 0x6BDD01A0BE6EBA3C7B02359A8B358E61F8E3D8C3E3F3 PUSH21 0x5764736F6C63430008040033000000000000000000 "},"methodIdentifiers":{"approve(address,uint256)":"095ea7b3","balanceOf(address)":"70a08231","certificates(uint256)":"663b3e22","collector()":"913e77ad","defaultCertificatesSupply()":"acd0bddb","deluxeCertificatesSupply()":"57cecd3a","endDate()":"c24a0f8b","generateBase64Image(uint256)":"a48b3b8f","generateImage(uint256)":"4b44d812","getApproved(uint256)":"081812fc","isApprovedForAll(address,address)":"e985e9c5","mintCertificate()":"dd014437","name()":"06fdde03","owner()":"8da5cb5b","ownerOf(uint256)":"6352211e","safeTransferFrom(address,address,uint256)":"42842e0e","safeTransferFrom(address,address,uint256,bytes)":"b88d4fde","setApprovalForAll(address,bool)":"a22cb465","startDate()":"0b97bc86","supportsInterface(bytes4)":"01ffc9a7","symbol()":"95d89b41","tokenURI(uint256)":"c87b56dd","transferFrom(address,address,uint256)":"23b872dd","withdrawETH()":"e086e5ec"}}}}}